:020000040800F2
:10000000505A0024D103000889990008317A000869
:100010008199000851110008A9C3000800000000E0
:10002000000000000000000000000000D99C000853
:100030003913000800000000A1990008E19C0008A5
:10004000EB030008EB030008EB030008EB030008D8
:10005000EB030008EB030008EB030008EB030008C8
:10006000EB030008EB030008EB0300080112000893
:1000700011120008EB030008EB030008EB03000873
:10008000EB030008EB030008EB030008EB03000898
:10009000EB030008EB030008EB030008EB03000888
:1000A000EB030008EB030008EB030008EB03000878
:1000B000EB030008EB030008EB030008EB03000868
:1000C000EB030008EB030008EB030008EB03000858
:1000D000E99B0008EB030008EB030008EB030008B2
:1000E000812D0008EB03000800000000EB0300086E
:1000F000EB030008EB030008EB030008EB03000828
:10010000EB030008EB030008EB030008EB03000817
:10011000EB030008EB030008EB030008EB03000807
:10012000EB030008EB030008EB030008EB030008F7
:10013000EB030008EB030008EB030008EB030008E7
:1001400000000000000000000000000000000000AF
:10015000EB030008EB030008EB030008EB030008C7
:10016000EB030008EB030008EB030008EB030008B7
:10017000EB03000891990008EB0300080000000061
:10018000EB030008EB030008EB030008EB03000897
:10019000EB030008EB030008EB030008EB03000887
:1001A000EB030008EB030008EB030008000000006D
:1001B000EB030008EB030008EB030008EB03000867
:1001C000EB030008EB030008000000000000000043
:1001D0000000000000000000EB0300080000000029
:1001E000000000000000000000000000000000000F
:1001F0000000000000000000EB030008EB03000813
:10020000EB030008EB03000800000000EB0300080C
:10021000EB030008EB030008EB030008EB03000806
:10022000EB03000800000000EB03000800000000E2
:10023000EB030008EB03000800000000EB030008DC
:10024000EB030008EB030008EB030008EB030008D6
:10025000EB030008EB030008EB030008EB030008C6
:10026000EB030008EB030008EB030008EB030008B6
:10027000EB030008EB030008EB030008000000009C
:10028000EB030008EB030008EB030008EB03000896
:1002900000000000EB030008EB0300080000000072
:1002A00000000000EB030008EB030008EB0300086C
:1002B000EB030008EB030008EB030008EB03000866
:1002C000EB030008EB030008EB03000800F002F862
:1002D00000F06FF814A696E8000CB244B344DA4577
:1002E00001D100F066F8BAE80F000FA696E83000DA
:1002F000A5EB040504EB0607AAEB0704A7F1010729
:100300004FEA15154FEA3414A4F10104AC4201D3AD
:1003100000F04FF813F0010F18BFFB1A43F0010370
:1003200000F001F8DBE7184714F9000034F9000089
:100330000A4410F8014B14F00F0508BF10F8015BD8
:10034000240908BF10F8014B6D1E05D010F8013BC1
:100350006D1E01F8013BF9D1641E03D0641E01F843
:10036000015BFBD19142E4D370470000704700006D
:100370000023002400250026103A28BF78C1FBD8AE
:10038000520728BF30C148BF0B60704766290EF086
:100390006A85002070471FB50EF058FD00F0E8FB9D
:1003A0000400002000210EF00BFDE0601FBD10B521
:1003B00010BD00F0E1FC1146FFF7EDFF0CF01CFE54
:1003C00000F0FFFC03B4FFF7F2FF03BC00F042FDB6
:1003D0000948804709480047FEE7FEE7FEE7FEE7D9
:1003E000FEE7FEE7FEE7FEE7FEE7FEE70448054915
:1003F000054A064B70470000B99D0008CD02000871
:1004000050500024505A00245052002450520024CE
:100410000FB41CB5074B06AA7B44694600900598AB
:1004200000F08DFB0020694600F09CFB1CBC5DF8D1
:1004300014FB00004907000070B504468569006898
:10044000C10601D5302600E02026C00707D070BDC8
:10045000D4E9012130469047206A401C20626D1E7D
:10046000F6D570BD70B5044685690078C00707D120
:1004700070BDD4E9012120209047206A401C2062F1
:100480006D1EF6D570BD00002DE9F05F894604466B
:100490004FF0000ADFF824B1FB44C0F820A020464A
:1004A000E168884700287DD0252806D0D4E90121BD
:1004B0009047206A401C2062F1E700255F462046F5
:1004C000E16888472028064607DB312E05D2B81997
:1004D00010F8200C08B10543F1E7A80701D525F075
:1004E0000405C4F81CA00027C4F818A02A2E09D0BF
:1004F00030460EF05DFC38B304EB8708303EC8F898
:10050000186019E059F8041B204604EB870291613A
:10051000E1688847012F064618D1E069002820DAF3
:1005200025F020051DE0D8F8180000EB800006EB50
:1005300040003038C8F818002046E1688847064671
:100540000EF036FC0028EED1012F0AD02E2E08D155
:100550002046E16888477F1C0646022F45F02005AB
:10056000C4DBA069002803DA404245F00105A06120
:10057000E80701D025F01005A6B1A6F14100192821
:1005800002D8203645F400654A46314620462560AB
:100590004D46FFF7FBFE60B1012807D0ED1D25F0A9
:1005A000070000E007E000F1080978E705F1040919
:1005B00075E730467AE7206ABDE8F09FCEE9000093
:1005C000032A40F2308010F0030C00F0158011F87F
:1005D000013BBCF1020F624498BF11F801CB00F857
:1005E000013B38BF11F8013BA2F1040298BF00F8AB
:1005F00001CB38BF00F8013B11F0030300F0258068
:10060000083AC0F0088051F8043B083A51F804CB8E
:10061000A0E80810F5E7121D5CBF51F8043B40F854
:10062000043BAFF30080D20724BF11F8013B11F85F
:1006300001CB48BF11F8012B24BF00F8013B00F8A3
:1006400001CB48BF00F8012B704710B5203AC0F02D
:100650000B80B1E81850A0E81850B1E81850A0E895
:100660001850203ABFF4F5AF5FEA027C24BFB1E82E
:100670001850A0E8185044BF18C918C0BDE8104071
:100680005FEA827C24BF51F8043B40F8043B08BF7A
:100690007047D20728BF31F8023B48BF11F8012B41
:1006A00028BF20F8023B48BF00F8012B70474FF0ED
:1006B000000200B5134694469646203922BFA0E8B2
:1006C0000C50A0E80C50B1F12001BFF4F7AF0907BE
:1006D00028BFA0E80C5048BF0CC05DF804EB8900AF
:1006E00028BF40F8042B08BF704748BF20F8022BF2
:1006F00011F0804F18BF00F8012B7047704770470A
:10070000704710B500F038FA006810BD10B5044607
:1007100000F032FA046010BD2DE9FF4F0C461E4672
:100720004FF0FF378BB0D2E90001DDF860800A900E
:100730008A46C1F30A5505B93D46002108464FF0E7
:100740000000BAF1000F00F4400005DA00EB800071
:100750004FF4400101EA50004FEA9059B9F1010FFE
:1007600000DDB9460A9850EA4A000ED044F610500F
:10077000A5F2FF3545432F14B8F1000F1ED0754286
:10078000291E1EDDC9F100021CE0B8F1010F4FF077
:10079000000001D0302103E0F24305E02154401C69
:1007A000B042FBDB30460022002121540B99C1F8F6
:1007B0000880C1E900200FB0BDE8F08FBD1B6D1CA3
:1007C000DEE74A4600DA694206A800F05FFA06ABA7
:1007D00093E8070003AB83E8070050460A990DF041
:1007E00029F88DE80700A0F500501F380090039805
:1007F000002D0ADD42F21F014A460844002303A9E6
:10080000039068460DF092FA09E0A0F500504A46C0
:100810001F38002303A9039068460DF09CFA8DE869
:1008200007000004000C03D04FF0FF30410800E047
:100830001046B8F1000F03D00022009215461EE0CA
:10084000751E05D400F09CF9303262556D1EF9D545
:10085000B3460122084302D000227F1C04E0207826
:10086000302801D100227F1E002A099784D01DE084
:10087000112D07DA00F084F9303262556D1C50EA10
:100880000102F5D1084302D00098C8B10EE0002162
:10089000681E05E0235C625C63542254401E491CC0
:1008A0008142F7DBAB46A81B401E0990002004F8EC
:1008B0000B000B98099AC0F80880C0E9002B7AE772
:1008C00011264FF0000857E72DE9F04F88460446FF
:1008D000D21D22F0070191B0D1E90001CDE90A0152
:1008E0000DF070FB02460B98C00F01D02D2007E0E1
:1008F0002068810701D52B2002E0202101EAC000F9
:10090000032A099001D0072A05DB03464146204609
:1009100000F07CF90BE12078800601D5E06900E069
:100920000620B8F1650F814606D0B8F1660F18D0E1
:10093000B8F1670F70D131E00020B9F1110F0090CC
:1009400001DB112301E009F101030AAA01A90CA8A6
:10095000FFF7E2FEDDE90C70002609F10105834690
:1009600047E001204B4600904FF000470AAA01A93A
:100970000CA8FFF7D1FEDDE90DB00C995D4600260D
:1009800010B909F101000D18B9EB050003D4C0F14D
:10099000FF3609F10105A5EB09002BE0B9F1010FC4
:1009A00001DA4FF001090020B9F1110F009048461B
:1009B00001DD112300E003460AAA01A90CA8FFF7F4
:1009C000ABFEDDE90C704D4600268346207800071B
:1009D0000AD4AB4500DA5D4601A8012D04DD4119BA
:1009E00011F8011C302907D04F4502DA17F1040F26
:1009F00004DA012082460FE06D1EEEE7002F02DCD4
:100A0000ED1B3E4403E0781CA84200DD7D1CB81BB2
:100A100000F1010A4FF000472078000703D4AA45EF
:100A200001DB4FF0FF3A0021B7F1004F0DF1430811
:100A30008DF8431024D002202B23002F01DA7F42AF
:100A40002D230A21021EA0F1010000DC5FB197FBFB
:100A5000F1FC97FBF1F201FB1C7C17460CF1300C0A
:100A600008F801CDEEE7A8F101000370218809051F
:100A700001D5452100E06521A0F1010800F8011C25
:100A800009980FA9A1EB0807FF1D00B1012041192A
:100A900001EBEA70A1693844081A401EA061207871
:100AA000C00602D42046FFF7C7FC099828B1D4E954
:100AB00001219047206A401C20622078C00622D580
:100AC0002046FFF7B9FC1EE0002E04DBB34502DD33
:100AD00001A8805D00E03020D4E901219047206A20
:100AE000401C2062761CAAF101005FEA000A0AD1CC
:100AF00000F03EF8C0680168405CD4E901219047ED
:100B0000206A401C2062281EA5F10105DCDC07E0FC
:100B1000D4E9012118F8010B9047206A401C20629B
:100B2000381EA7F10107F3DC2046FFF79BFC0320EA
:100B300011B041E601694A1C02610878704700B5AE
:100B40008FB0CDE901310021059105497944CDE906
:100B5000031011466846FFF797FC0FB000BD000078
:100B6000E5FFFFFF0A6802F8010B0A60704700000A
:100B7000004870475801002400487047380100249D
:100B800030B5B0F10A0271F100034FEA900E4EEA5F
:100B9000817EB0EB0E0061EB91014FEA101E4EEA30
:100BA000017E10EB0E0041EB11114FEA102E4EEAC0
:100BB000016E10EB0E0041EB11214FEA104E4EEA90
:100BC000014E10EB0E0041EB1141401841F10001C4
:100BD0004FEAD00040EA41704FEAD1014FEA810468
:100BE00044EA907410EB800544EB01046D1944EB6A
:100BF0000404521BA3414FF0000348BF0A3200D542
:100C000030BD401C41F1000130BD00002DE9F04134
:100C10001F46044603260168072A01F4006004DB2E
:100C200008B116A505E016A503E008B115A500E07A
:100C300015A521F010002060A069C01EA0610FB1B1
:100C4000401EA0612046FFF7F7FB4FB1D4E9012118
:100C500038469047206A401C2062C01C206206E093
:100C6000206AFAE7D4E9012115F8010B9047761EB6
:100C7000F8D22046FFF7F6FBBDE8F0814E414E006A
:100C80006E616E00494E4600696E66002DE9F047C0
:100C9000814616468AB0354878440DC88DE80D0067
:100CA00032487844801C03AC0DC884E80D0041F63E
:100CB0009B300844372190FBF1F290FBF1F5A5F150
:100CC000800501FB12041B3C02D56442012000E0B8
:100CD0000020DFF898A080460027FA44AAF1BE0A57
:100CE0000EE0E0070AD03246684607EB47010123D1
:100CF0000AEB81010DF02FF88DE8070064107F1CCE
:100D0000002CEED1194F7F44AE3F19E0E80715D013
:100D100007EB04100DF1180A90E80E008AE80E00A7
:100D2000C068F04201D1981908903246012306A903
:100D300003A80DF010F803AB83E807006D10641CE6
:100D4000002DE3D14FF0010332466946B8F1000FA0
:100D500003A802D00CF0EAFF01E00CF0FCFFC9E9A7
:100D60000001C9F808200AB0BDE8F087BCE3000024
:100D700000487047380100247546FFF7F9FFAE467A
:100D800005006946534620F00700854618B020B597
:100D9000FFF72CFBBDE820404FF000064FF00007A6
:100DA0004FF000084FF0000BAC46ACE8C009ACE8CF
:100DB000C009ACE8C009ACE8C00921F007018D46C4
:100DC000704710B50446AFF300802046BDE81040E0
:100DD000FFF7F8BA0000000030B44FF0013C50F8C3
:100DE000042BCCFA52F451F8043BD51A20D1FCB9AB
:100DF00050F8042BCCFA52F451F8043BD51A17D111
:100E0000B4B950F8042BCCFA52F451F8043BD51A7B
:100E10000ED16CB950F8042BCCFA52F451F8043BC3
:100E2000D51A05D1002CDAD030BC4FF00000704745
:100E300029BAB1FA81F111F01801D1F120008440F2
:100E4000F2D1CA40CB4012F0FF0213F0FF0330BCD6
:100E5000D01A704701491820ABBEFEE726000200F9
:100E6000704700000000000040F600000121C5F6B8
:100E70000200012203F070BA40F600000121C5F61D
:100E80000200002203F068BA704700000000000072
:100E900040F600000821C5F60200012203F05CBA0A
:100EA00040F600000821C5F60200002203F054BA03
:100EB0007047000000000000002808BF704710B510
:100EC0004EF2180145F2003CCEF20001C0F2070CD0
:100ED00003E000BF013802041AD051F804EC0B689B
:100EE000002208E01A449C42A2EB0402234628BFD9
:100EF00072446245EED20C689C42F3D10C689C426D
:100F000004BF0C689C42EDD10C689C42F3D0E9E729
:100F1000BDE810407047000080B54EF21801C0EBEC
:100F20000010CEF200014FEA401E002351F804CC1D
:100F30000A6808E013449042A3EB0003024628BF6E
:100F4000634473450CD208689042F3D1086890421C
:100F500004BF08689042EDD108689042F3D0E9E7F9
:100F600080BD00000000000010B5FFF78DFFFFF707
:100F70009FFF0BF01DFA04460BF0A6FA204310BDAC
:100F80002DE9F04F81B000920E468146FFF774FFC5
:100F9000922000F0C5F8922000F0C2F8552000F031
:100FA000BFF88046552000F0BBF88346552000F07E
:100FB000B7F88246552000F0B3F80446552000F0FB
:100FC000AFF80746552000F0ABF80546FFF74CFF99
:100FD00048EA0B2000B24AEA042109B200EE100AE6
:100FE00040F20000C2F20040B8EEC00A90ED001AD4
:100FF00021EE000A01EE101A47EA052186ED000AEB
:1010000009B290ED002A00EE101AB8EEC11AB8EE3F
:10101000C00A22EE011A86ED011A22EE000A86EDC0
:10102000020AFFF73DFF802000F07AF8552000F01B
:1010300077F80646552000F073F8552000F070F858
:101040008246552000F06CF80546552000F068F8FF
:101050008346552000F064F80446552000F060F8FF
:101060000746552000F05CF88046FFF711FF0F2E71
:1010700028D14AEA052000B24BEA042109B200EE69
:10108000100A40F20400C2F20040B8EEC00A90ED2F
:10109000001A21EE000A01EE101A47EA082189ED34
:1010A000000A09B290ED002A00EE101AB8EEC11A3B
:1010B000B8EEC00A22EE011A89ED011A22EE000AEA
:1010C00089ED020AFFF7D8FEA22000F029F8A2203D
:1010D00000F026F8552000F023F80446552000F0D3
:1010E0001FF80546FFF7C0FEE0004FF6000340EA98
:1010F00055110022CFF6FF73B2EB902F18BF1943A2
:10110000B4EE001AB3EE072A00EE101A0098B8EEFB
:10111000C00AA0EE012A80ED002A01B0BDE8F08FE0
:1011200080B582B08DF8070042F29820C2F20040EC
:101130000DF107010DF1060201234FF47A7CCDF881
:1011400000C005F05DFF9DF8060002B080BD000004
:10115000FEE70000000000000020704700000000D3
:10116000002070470000000010B541F6381440F62A
:10117000BC51C2F20044C2F200410022204609F0F4
:10118000EFF840F2BC512046C2F2004109F0D8F815
:10119000002010BD00000000B0B5096804460CF046
:1011A000DFF941F638152146C2F20045284609F01C
:1011B000C7F8284609F0A0F80020B0BD00000000E4
:1011C000002070470000000041F63812C2F20042D1
:1011D000D2F8BC22D2F81422002A1CBF012070478A
:1011E00010B541F638140A46C2F2004401462046C2
:1011F00009F0B6F82046BDE8104009F029B9000012
:1012000041F61440C2F2004001F05EBF0000000051
:1012100041F68C40C2F2004001F056BF00000000D1
:1012200040F20F42D0F800C0C4F20202944510DC34
:101230006F22C4F20202944520DC3F22C4F2020273
:10124000944536DC1022C4F20202944554D0282280
:101250004EE040F26F42C4F2020294451ADC40F2C2
:101260003F42C4F2020294452ADC40F21042C4F22A
:101270000202944540D040F2284239E09F22C4F255
:101280000202944525DC7022C4F20202944533D058
:1012900088222DE040F29F42C4F2020294451FDCF6
:1012A00040F27042C4F20202944525D040F28842D6
:1012B0001EE04022C4F2020294451DD0582217E0DD
:1012C00040F24042C4F20202944515D040F2584226
:1012D0000EE0A022C4F2020294450DD0B82207E02D
:1012E00040F2B842C4F20202944505D040F2A04256
:1012F000C4F20202944517D10CF0F8024AF6AB236F
:10130000103ACAF6AA23A2FB033109A35F2AC1F34C
:1013100002115B5C40F2FF312CEA0101C36588BF1A
:1013200004318165084670472CF0FF01F9E700BFE2
:10133000000610160006101670470000000000009E
:10134000F0B581B02DED088B04464CF2AC504FF255
:10135000C352C3F22770C4F21C12C4F8EC01C4F8E3
:10136000F02149F69A100022C3F61960C4F2C8228F
:101370000D46C4E97E0241F26F206C21C3F6832042
:10138000C4F80C0204F504700026C4F8F4614FF0B0
:101390007E57C4F80072C4E98176FFF788F995EDAD
:1013A000018A95ED000A28EE081A95ED029A4CF68E
:1013B000CD459FED582AC3F6CC55C4F87C62A0EE0B
:1013C000001AC4F88062C4E9A257012084F884029C
:1013D000A9EE091AB1EEC11AB4EE421AF1EE10FAF2
:1013E00005DAC4E90076A6609FED4C1A53E0B1EE31
:1013F00040AA8AEE010A9FED481AB0EEC00AB4EE88
:10140000410AF1EE10FA08DD4FF07E502060002016
:101410009FED421AC4E901003DE0B0EE480AF0EE4B
:10142000490A0CF0FBFD29EE091AA8EE081AB0EEE5
:10143000408AB0EE4A0AF1EEC10A0CF0EFFDB6EEBA
:1014400000BAB0EE409A28EE0B8AB0EE480A0CF0D3
:101450003BFFB0EE40AAB0EE480A0DF00FFB29EEBC
:101460000B8AB0EE409AB0EE480A0CF02DFFB0EEB9
:1014700040BAB0EE480A0DF001FB2AEE0B1A84EDDB
:10148000001A29EE401A29EE0B2A2AEE000A84EDF2
:10149000012A84ED020A04F12000BC2184ED031A24
:1014A0000026C4E90466A661FFF701F94DF20A704F
:1014B000C021C3F62340E061E063E065E0674FF0E0
:1014C0007E50C4F89C00C4F8BC00C4F8DC0004F1F1
:1014D000E000FFF7ECF84CF6774004F5D071C3F26A
:1014E0002B20C4F86001C4F88001C4E97965C4E91F
:1014F0007155C4E97366C4E97565C4E9776661C16D
:10150000C4E96B66C4E96D56C4E96F66BDEC088B2F
:1015100001B0F0BDBD378635A4707D3F00000000EE
:101520002DE9F0412DED108BADF5447D90ED041AC1
:1015300091ED002A32EE411A90ED052A91ED013A23
:10154000FEEE008A33EE422AF6EE00BA90ED064A2D
:1015500091ED023AB0EE408A21EE280A33EE443A89
:10156000D0ED019A22EE284A90ED00FA21EE2B1AD6
:10157000D0ED02AA20EE089AB0EE4F0A24EE08DA67
:10158000D0ED03CA23EE284A9FEDF45A21EE08AAB3
:10159000B0EE691A23EE2B3A044622EE2B2AAAEE6D
:1015A0000F1A23EE08CAB0EE6C3AA9EE290A22EE11
:1015B00008BAB0EE6A2AACEE2A1A24EE08EAABEEBC
:1015C0000F2AADEE2A0AADEE2C1AAEEE292AAEEEA7
:1015D0002C0AACEE0F3AAAEE2C2A21EE014AABEE11
:1015E000293AA0EE004AA9EE2A3AA2EE024AA3EE58
:1015F000034AB1EEC44AB4EE454AF1EE10FA0FDDEB
:1016000080EE040A81EE041A84ED000A82EE040AD8
:1016100084ED011A83EE041A84ED020A84ED031AA4
:1016200093AF502107F17000FFF741F828EE285AD8
:1016300094ED7B3A68EE2B0A8DED96EA8DEDA2EAE9
:1016400062AE25EE290A8DED9AAA25EE2A6A8DED65
:10165000A4AA20EEA92A8DED95DA63EE002A8DED7D
:101660009DDA20EEAA1A8DEDA06A60EEAC1A4FF05A
:101670007E5062EE803ACDED991A23EE067ACDEDDA
:101680009F1A25EE2C4A939060EE8F0A9B90E7EE0E
:10169000063AA39063EE049AAB9062EEA04AB39030
:1016A00062EEA15ABB90E9EE843AC390E7EE044A99
:1016B00004F11C01E7EE205AC42223EE21EAC4ED16
:1016C000383AE9EE814A304663EE207A8DED9CCAC5
:1016D000E9EE805A8DEDA8CA6EEE203AC4ED394A83
:1016E0002EEE00AA8DEDA1BAC4ED3A5A6EEE214A53
:1016F0006EEE065A8DEDA9BAE7EE843A8DED949A16
:1017000025EE0F5A8DEDAA9AA7EE86AA8DED972A9F
:10171000E7EEA04A8DED981AE7EE825A8DED9E5ABB
:10172000E2EE813A8DEDA54A62EE866A8DEDA72A3A
:1017300027EE808A8DEDA65A67EEA18AC4ED473A5E
:10174000A2EE84AA8DEDAC1AE2EE804A8DEDAD0AD0
:10175000E2EE855A8DEDAE5A67EE002A84ED46AA78
:1017600063EE023AC4ED484A67EE211AC4ED495AC5
:1017700027EEA0FAA9EE868AE9EEA08A27EE86DA9D
:10178000E3EE862AE3EEA01A67EE200A27EE066A49
:10179000E7EE026AA9EE84FA63EE01AAA9EE82DA04
:1017A00023EE053AE3EE840AA3EE826AE9EE856A47
:1017B000AAEE848AAAEE81FAEAEE808AC4ED3B6A38
:1017C000AAEE85DA84ED3F8AE3EE042A84ED40FA3E
:1017D000E3EE010AC4ED418AE3EE001A84ED42DA39
:1017E000A3EE056AC4ED4D2AC4ED4E0AC4ED4F1AAE
:1017F00084ED506AFEF729FF0DF1C408C42140466C
:10180000FEF755FF0020414605E000BF01301C31C6
:10181000072800F09980C0EBC00207EB820292ED2E
:10182000000A92ED011A92ED022A92ED033A92ED2E
:10183000044A92ED055A92ED066A00228B18B518FB
:10184000102A93ED007AD5ED000AA0EE207AD3EDB0
:10185000010AD5ED011AD5ED022AE0EE210AD3EDF9
:10186000021AE0EE221AD5ED072AA1EE227AD5ED72
:10187000082AE1EE220AD5ED092AE1EE221AD5ED79
:101880000E2AA2EE227AD5ED0F2AE2EE220AD5ED3B
:10189000102AE2EE221AD5ED152AA3EE227AD5ED12
:1018A000162AE3EE220AD5ED172AE3EE221AD5ED29
:1018B0001C2AA4EE227AD5ED1D2AE4EE220AD5EDEB
:1018C0001E2AE4EE221AD5ED232AA5EE227AD5EDC2
:1018D000242AE5EE220AD5ED252AE5EE221AD5EDD9
:1018E0002A2AA6EE227AD5ED2B2AE6EE220AD5ED9B
:1018F0002C2AE6EE221A83ED007AC3ED010AC3ED2D
:10190000021A83D093ED037AD5ED030AA0EE207A74
:10191000D5ED0A0A1032A1EE207AD5ED110AA2EE19
:10192000207AD5ED180AA3EE207AD5ED1F0AA4EE91
:10193000207AD5ED260AA5EE207AD5ED2D0AA6EE61
:10194000207A83ED037A79E76E46C4213046FEF7AC
:10195000AEFE06F10800002107E000BFBD37863566
:1019600001311C30072900F09B80C1EBC102034606
:1019700008EB820292ED000A92ED011A92ED022A22
:1019800092ED033A92ED044A92ED055A92ED066A01
:10199000002200BFBD1813ED027AD3ED002A702A91
:1019A000D5ED000AD5ED071AA0EE207A53ED010A15
:1019B000E0EE210AD5ED0E1AE0EE212AD5ED011A4E
:1019C000A1EE217AD5ED081AE1EE210AD5ED0F1A24
:1019D000E1EE212AD5ED021AA2EE217AD5ED091AFF
:1019E000E2EE210AD5ED101AE2EE212AD5ED031A16
:1019F000A3EE217AD5ED0A1AE3EE210AD5ED111AEC
:101A0000E3EE212AD5ED041AA4EE217AD5ED0B1AC6
:101A1000E4EE210AD5ED121AE4EE212AD5ED051ADD
:101A2000A5EE217AD5ED0C1AE5EE210AD5ED131AB3
:101A3000E5EE212AD5ED061AA6EE217AD5ED0D1A8E
:101A4000E6EE210AD5ED141AE6EE212A03ED027A1C
:101A500043ED010AC3ED002A82D093ED017AD5ED62
:101A6000150AA0EE207AD5ED160A7032A1EE207A82
:101A7000D5ED170AA2EE207AD5ED180AA3EE207A4A
:101A8000D5ED190AA4EE207AD5ED1A0AA5EE207A32
:101A9000D5ED1B0AA6EE207A83ED017A103379E7A3
:101AA000002000BF32182118A82892ED000A91EDFD
:101AB000387A92ED011A92ED022A92ED033AD1EDB5
:101AC000390AD1ED3A1AD1ED3B2A30EE070A92EDF0
:101AD000044A92ED055A92ED066AD1ED3C3AD1EDF9
:101AE0003D4A91ED3E7A31EE201A32EE212A81ED07
:101AF000070A33EE220A81ED081A34EE231A81ED2B
:101B0000092A35EE242A81ED0A0A36EE070A81ED0C
:101B10000B1A81ED0C2A81ED0D0A39D092ED070ADE
:101B200091ED3F7A92ED081A92ED092AD1ED400A23
:101B3000D1ED411A30EE070A92ED0A3A92ED0B4AC6
:101B4000D1ED422AD1ED433A31EE201A81ED0E0A51
:101B500032EE210A92ED0C5A92ED0D6AD1ED444A13
:101B6000D1ED455A81ED0F1A33EE221A81ED100A9C
:101B700034EE230A81ED111A35EE241A81ED120A92
:101B800036EE250A81ED131A383081ED140A89E703
:101B90000020A0610DF5447DBDEC108BBDE8F08107
:101BA00091ED010A92ED011A20EE000A91ED002A52
:101BB00021EE011A91ED023A0021A2EE020A92ED05
:101BC000002AA2EE021A92ED022AA3EE030AA2EE66
:101BD000021AB1EEC02AB1EEC10A90EDA21A80ED50
:101BE0009F2AB4EE412A80EDA00AF1EE10FA0DDA38
:101BF00090ED7C1A30EE410A90EDA31AB0EEC00AC7
:101C0000B4EE410AF1EE10FAB8BF012180F8841257
:101C100070470000000000002DE9F04F81B02DED6D
:101C2000108BADF5866D91ED010A91ED002A20EE45
:101C3000001A91ED023A9FED714AF7EE00BA90ED6D
:101C4000039AD0ED00CAA2EE021AD0ED01EAB8EE76
:101C5000008AD0ED02DA2CEEAEDA0446A3EE031AC7
:101C600090F884026CEEAD8AB1EEC11AB4EE441A5B
:101C7000F1EE10FA2CEE894A31FE2B1AB0EE445ADE
:101C8000AEEEAD4A83EE016A29EE093A8DED086A9F
:101C900080EE017AC2EE010AB0EE6B1AB0EE430A92
:101CA000AEEEAE3A9EEEAD5AB0EE6B2A8DED077AEF
:101CB000ADEEAD0ACDED050AA3EE081A34EE043AF6
:101CC000B0EE4D4AA0EE082A9DEE894A27EE011A91
:101CD00035EE050AA3EE201AB0EE683A27EE000AA8
:101CE00034EE044AAEEE893AA2EE200AA4EE061AB9
:101CF00033EE032A21EE011AA2EE060AA0EE001A24
:101D0000B1EEC10A84ED820A40B34FF07E50C4F8B0
:101D10000402D4F8C801C4F8A401D4F8CC01C4F872
:101D2000A801D4F8D001C4F8AC01D4F8D401C4F8A7
:101D3000B001D4F8D801C4F8B401D4F8DC01C4F877
:101D4000B801D4F8E001C4F8BC01D4F8E401C4F847
:101D5000C001D4F8E801C4F8C4018BE094ED7E1A08
:101D6000B4EE410AF1EE10FA4ADD80EE010AD4ED3C
:101D7000800A0CF051FB94ED7F1A84ED810AB4EED9
:101D8000410AF1EE10FA03DDB0EE410A84ED811A4A
:101D900094ED721A94ED732A94ED754A20EE011AAF
:101DA00094ED743A20EE022A94ED765A84ED691A85
:101DB00094ED787A20EE041A94ED776A20EE033AD7
:101DC000D4ED790A84ED6A2A20EE052A84ED6C1A96
:101DD00020EE071A84ED6B3A20EE063A84ED6D2A68
:101DE00020EE202A84ED6F1A94ED7A1A84ED6E3A73
:101DF00084ED702A20EE010A3AE000BFBD37863537
:101E000094ED720A94ED753A30EE000A94ED786A1A
:101E100084ED690A33EE030A84ED6C0A36EE060A95
:101E200094ED731A84ED6F0A94ED7A0A31EE011A7B
:101E300094ED742A30EE000A94ED764A94ED775AC8
:101E400094ED797A32EE022A84ED6A1A34EE041A9D
:101E500084ED6B2A35EE052A84ED6D1A37EE071AEC
:101E60004FF08040C4F8040284ED6E2A84ED701AAD
:101E700084ED710A2DEE88AA94ED071A3EEEAEEAC3
:101E800094ED0E3A3CEEACFA94ED096A39EE09BADB
:101E900094ED1D4A6EEE889A94ED107A2AEE010AAE
:101EA000D4ED115A2EEE012AD4ED186A2FEE011A44
:101EB0008DED069A2CEE88CAF7ADABEE030A5421DD
:101EC000AFEE032A2846A9EE831A94ED153AACEE3C
:101ED000030AE9AFABEE032A7DEEADAAAAEE031A20
:101EE00094ED1C3AAEEE030AAAEE832AABEE031A77
:101EF00094ED083A6AEE031A6EEE032A2FEE035AA7
:101F000094ED0F3AEBEE031AEFEE032AA9EE835A93
:101F100094ED163AECEE031AEBEE032AAAEE035AFE
:101F20002AEE063A6EEE064A6FEE060A94ED0A6A4B
:101F3000EEEE041AEAEE842AABEE045A2AEE064AC2
:101F40002EEE068A6FEE063AABEE073AEFEE074A40
:101F5000E9EE870A94ED177AABEE254AAFEE258AB3
:101F6000E9EEA53AACEE073AEBEE074AEAEE070ACD
:101F700094ED1E7AACEE264AABEE268AEAEE263ABD
:101F8000AEEE073AEAEE874AEBEE070A94ED1F7AC7
:101F9000AEEE074A60EE0A7AAAEE878AEBEE073ABF
:101FA00020EE0E6A20EE0F7A94ED690AE1EE8B7A4C
:101FB000A1EE8F6AA1EEA97A62EE0A1A62EE0E5ABB
:101FC00022EE0F2AE2EE8B1AE2EE8F5AA2EEA92A37
:101FD000E4EE8C1AE4EE8B5AA4EE8A2A61EE0F4AE4
:101FE00061EE0A2A21EE0E1AE5EE294AE5EE0B2AE9
:101FF000A5EE0F1A94ED6D5AE0EE8A4AE0EE8C2AB7
:10200000A8EE0B2AA0EE8B1AD4ED710AE3EE8B4AF0
:10201000E3EE8E2AE8EE0E1AE8EE2A5AA3EEAA1A8A
:10202000E3EE0C7AA3EE0B6A70EEA40A62EE623A5B
:10203000A3EE0A7AE4EE0E7A35EE255AA4EE2A6A69
:1020400062EE414AE1EEA03AA4EE0B7AE5EE204AB8
:1020500025EE623A30EE270A26EE634A67EE453AED
:1020600061EEE05AA1EE813A66EE606AA0EE244A83
:10207000E6EE023AE2EE225A20EE422AE7EE016A4A
:1020800020EE411AA7EE034AA7EE212A27EE627A34
:10209000A6EE221A26EE616AADEE89DAA0EE207A6B
:1020A0006EEEEE0ADEEE898AA0EE056AECEEAC0A70
:1020B0008BEE840AB0EE4D4AB0EE685AEDEEED0AB2
:1020C00064EE80CA66EE80DA63EE80EACDED040A43
:1020D00065EE808A67EE00BA22EE00DA63EE00FA5F
:1020E00021EE008A26EE009A34EE040A8DED030AF2
:1020F00035EE050A8DED020AFEF7D9FA002000211F
:1021000063182A18702993ED073A92ED000A92EDB0
:10211000011A92ED022AA3EE0A0A93ED0E5AA3EEDB
:102120000E1A92ED044AA3EE0F2A93ED083AA3EE9D
:102130000B0A92ED056AA3EE0F1A93ED157AA3EE42
:10214000292A93ED093AA3EE0C0AD2ED070AA3EE71
:102150000B1AD2ED081AA3EE0A2A93ED0A3AA3EE5F
:102160000E0AA3EE2A1AA3EE0B2A92ED033AA5EE6D
:102170000A3A82ED000AA5EE0E4A93ED170AA5EE83
:102180000F6A93ED0F5AA5EE0B3A82ED011AA5EEF8
:102190000F4A82ED022AA5EE296A93ED105AA5EEA8
:1021A0000C3AA5EE0B4AA5EE0A6A93ED115AA5EE7C
:1021B0000E3AA5EE2A4AA5EE0B6A92ED065AA7EE54
:1021C0000A5A82ED033AE7EE0E0A82ED044AE7EE80
:1021D0000F1A93ED167AA7EE0B5A82ED056AE7EE19
:1021E0000F0AE7EE291AA0EE0C5AE0EE0B0AE0EE19
:1021F0000A1A93ED180AA0EE0E5AE0EE2A0AE0EE53
:102200000B1A82ED065AC2ED070AC2ED081A2ED04B
:1022100093ED1C0A92ED091A92ED0A2A92ED0B3AFF
:10222000A0EE0A1A7031A0EE0E2A3030A0EE0F3A5E
:1022300093ED1D0AA0EE0B1AA0EE0F2AA0EE293A8C
:1022400093ED1E0AA0EE0C1AA0EE0B2AA0EE0A3A9D
:1022500093ED1F0AA0EE0E1AA0EE2A2AA0EE0B3A6A
:1022600082ED091A82ED0A2A82ED0B3A48E7E2AEC6
:1022700054213046FEF71BFA002000BF2A183118FF
:10228000302891ED002A92ED003A91ED010A91ED8E
:10229000021AA3EE2C2A92ED034AA3EE2D0A91ED29
:1022A000045AA3EE2E1A92ED013AA3EE282A91EDDC
:1022B000056AA3EE2B0A91ED077AA3EE0D1A92EDB3
:1022C000023AA3EE2F2AD1ED080AA3EE080AA3EEE4
:1022D000091A91ED033AA4EE2C3A81ED002AA4EEFE
:1022E0002D5A91ED062AA4EE2E6A92ED044AA4EE30
:1022F000283A81ED010AA4EE2B5A92ED080AA4EEC9
:102300000D6A92ED054AA4EE2F3A81ED021AA4EE71
:10231000085AA4EE096A92ED064AA4EE2C2A81ED31
:10232000033AA4EE2D7A81ED045AE4EE2E0A92EDE2
:10233000074AA4EE282A81ED056AA4EE2B7AE4EE82
:102340000D0AA0EE2F2AA0EE087AE0EE090A81ED30
:10235000062A81ED077AC1ED080A25D092ED090A17
:1023600091ED091A91ED0A2A91ED0B3AA0EE2C1A83
:102370003030A0EE2D2AA0EE2E3A92ED0A0AA0EE01
:10238000281AA0EE2B2AA0EE0D3A92ED0B0AA0EE31
:102390002F1AA0EE082AA0EE093A81ED091A81ED64
:1023A0000A2A81ED0B3A69E70DF562799DED060A7F
:1023B0009DED048A04F5077054224946A0EE008A78
:1023C000FEF743F99DED050A9DED021A30EE411A24
:1023D0009DED070A9DED032A9DEDE24A30EE420A8B
:1023E0009DEDE52A22EE013A9DED082A24EE014AF0
:1023F0009DEDE65A32EE482A9DEDE86AA5EE003AD8
:102400008DED085A9DEDE35A8DED076A26EE016ABF
:1024100097ED027AA5EE004A9DEDE75A8DED065A3A
:10242000A5EE023A97ED005A8DED055AA5EE006A29
:102430009DEDE45A8DED047A27EE017AA5EE024A6D
:1024400097ED015A8DED035AA5EE026A97ED035AF6
:102450008DED025AA5EE007A94ED015A33EE053A5D
:1024600097ED045A8DED015AD7ED05FAA5EE027AE3
:1024700094ED005A34EE055A94ED024A63EE030AD5
:1024800097ED088A36EE044A94ED036A6FEE811ADE
:10249000D7ED06DAE5EE050A97ED09DA37EE066ABA
:1024A00097ED079A28EE017AD7ED0A8AEDEE801AA9
:1024B00084ED9C1AE4EE040A94ED041AADEE007A61
:1024C00084ED9D0AE9EE021A84ED9E2AE6EE060AE4
:1024D000D7ED0BBAA8EE827AD7ED0CCAD7ED0DEA8C
:1024E00084ED005A84ED013A31EE810A94ED051A2B
:1024F000B1EEE02A84ED024A37EE011A9FED847AAC
:1025000084ED036AB4EE472AF1EE10FA0FDD85EE92
:10251000025A83EE023A84ED005A84EE024A84EDB8
:10252000013A86EE022A84ED024A84ED032A94EDF4
:102530007D2AB1AFB1EE423AC42182FE400A38464C
:1025400082FE411A0026A66183FE000A83FE011A5C
:1025500084ED040A84ED051AFEF7A9F84FF07E5CBD
:102560000021002209EB0605BB1847F801C07818C6
:1025700093ED000A95ED001A93ED012A93ED023ACE
:1025800093ED034AA1EE4A0AA1EE4B2A702AA1EE6E
:102590004C3AA1EE4E4A95ED011AA1EE4E0AA1EE7B
:1025A0004F2AA1EE4B3AA1EE6A4A95ED021AA1EE2E
:1025B0004F0AA1EE692AA1EE4A3AA1EE4B4A83EDF9
:1025C000000A83ED012A95ED030A83ED023A83EDBB
:1025D000034AC0F820C093ED071A93ED082A93ED43
:1025E000093A93ED0A4AA0EE4A1AA0EE4B2AA0EE51
:1025F0004C3AA0EE4E4A95ED040AA0EE4E1AA0EE1B
:102600004F2AA0EE4B3AA0EE6A4A95ED050AA0EEDD
:102610004F1AA0EE692AA0EE4A3AA0EE4B4A83ED8B
:10262000071A83ED082A95ED060A83ED093A83ED32
:102630000A4AC0F840C093ED0E1A93ED0F2A93EDAD
:10264000103A93ED114AA0EE4A1AA0EE4B2AA0EEE2
:102650004C3AA0EE4E4A95ED070AA0EE4E1AA0EEB7
:102660004F2AA0EE4B3AA0EE6A4A95ED080AA0EE7A
:102670004F1AA0EE692AA0EE4A3AA0EE4B4A83ED2B
:102680000E1A83ED0F2A83ED103A83ED114A33D0F1
:10269000C0F860C095ED090A93ED151A93ED162A5E
:1026A00093ED173A93ED184AA0EE4A1A7032A0EE55
:1026B0004B2A8031A0EE4C3A3036A0EE4E4A95EDD2
:1026C0000A0AA0EE4E1AA0EE4F2AA0EE4B3AA0EE58
:1026D0006A4A95ED0B0AA0EE4F1AA0EE692AA0EE09
:1026E0004A3AA0EE4B4A83ED151A83ED162A83ED84
:1026F000173A83ED184A35E780AEC4213046FDF71E
:10270000D6FF002031469DED02CA9DED01EA06E0AC
:10271000BD37863501301C31072800F09980C0EBA9
:10272000C00207EB820292ED000A92ED011A92EDCF
:10273000022A92ED033A92ED044A92ED055A92ED87
:10274000066A00228B18A518102A93ED007AD5EDA1
:10275000070AA0EE207AD3ED010AD5ED081AD5EDCF
:10276000092AE0EE210AD3ED021AE0EE221AD5ED95
:102770000E2AA1EE227AD5ED0F2AE1EE220AD5ED3E
:10278000102AE1EE221AD5ED152AA2EE227AD5ED15
:10279000162AE2EE220AD5ED172AE2EE221AD5ED2C
:1027A0001C2AA3EE227AD5ED1D2AE3EE220AD5EDEE
:1027B0001E2AE3EE221AD5ED232AA4EE227AD5EDC5
:1027C000242AE4EE220AD5ED252AE4EE221AD5EDDC
:1027D0002A2AA5EE227AD5ED2B2AE5EE220AD5ED9E
:1027E0002C2AE5EE221AD5ED312AA6EE227AD5ED75
:1027F000322AE6EE220AD5ED332AE6EE221A83EDDE
:10280000007AC3ED010AC3ED021A83D093ED037A77
:10281000D5ED0A0AA0EE207AD5ED110A1032A1EE0C
:10282000207AD5ED180AA2EE207AD5ED1F0AA3EE84
:10283000207AD5ED260AA4EE207AD5ED2D0AA5EE54
:10284000207AD5ED340AA6EE207A83ED037A79E773
:102850000DF59E78C4214046FDF729FF08F10800D8
:10286000002104E001311C30072900F09B80C1EBFE
:10287000C102034606EB820292ED000A92ED011AB4
:1028800092ED022A92ED033A92ED044A92ED055A36
:1028900092ED066A002200BFBD1813ED027AD3ED57
:1028A000002A702AD5ED000AD5ED071AA0EE207A8D
:1028B00053ED010AE0EE210AD5ED0E1AE0EE212AD1
:1028C000D5ED011AA1EE217AD5ED081AE1EE210A23
:1028D000D5ED0F1AE1EE212AD5ED021AA2EE217AEA
:1028E000D5ED091AE2EE210AD5ED101AE2EE212A01
:1028F000D5ED031AA3EE217AD5ED0A1AE3EE210AEB
:10290000D5ED111AE3EE212AD5ED041AA4EE217AB1
:10291000D5ED0B1AE4EE210AD5ED121AE4EE212AC8
:10292000D5ED051AA5EE217AD5ED0C1AE5EE210AB2
:10293000D5ED131AE5EE212AD5ED061AA6EE217A79
:10294000D5ED0D1AE6EE210AD5ED141AE6EE212A90
:1029500003ED027A43ED010AC3ED002A82D093ED24
:10296000017AD5ED150AA0EE207AD5ED160A70325F
:10297000A1EE207AD5ED170AA2EE207AD5ED180A3D
:10298000A3EE207AD5ED190AA4EE207AD5ED1A0A25
:10299000A5EE207AD5ED1B0AA6EE207A83ED017A0A
:1029A000103379E73AAE54213046FDF780FE94EDBE
:1029B000690A94ED6A1A94ED6B2A94ED6C3A94EDE1
:1029C0006D4A94ED6E5A94ED6F6A94ED707AD4ED81
:1029D000710A002009EB000231183028D1ED003ACD
:1029E000D2ED004AD1ED011AD1ED022AE4EE803A8F
:1029F000D2ED035AE4EE811AD1ED046AE4EE822AA4
:102A0000D2ED014AE4EE833AD1ED057AE4EE841A80
:102A100091ED07AAE4EE852AD2ED024AE4EE863A69
:102A200091ED08BAE4EE871AE4EEA02AD1ED034A4C
:102A3000E5EE804AC1ED003AE5EE816AD1ED063A55
:102A4000E5EE827AD2ED045AE5EE834AC1ED011A31
:102A5000E5EE846AD2ED081AE5EE857AD2ED055AE4
:102A6000E5EE864AC1ED022AE5EE876AE5EEA07A38
:102A7000D2ED065AE5EE803AC1ED034AA5EE81AAF1
:102A8000C1ED046AA5EE82BAD2ED075AE5EE833AAB
:102A9000C1ED057AA5EE84AAA5EE85BAE1EE863AE7
:102AA000A1EE87AAA1EEA0BAC1ED063A81ED07AA70
:102AB00081ED08BA25D0D2ED091AD1ED092AD1ED60
:102AC0000A3AD1ED0B4AE1EE802A3030E1EE813A4C
:102AD000E1EE824AD2ED0A1AE1EE832AE1EE843A6F
:102AE000E1EE854AD2ED0B1AE1EE862AE1EE873A55
:102AF000E1EEA04AC1ED092AC1ED0A3AC1ED0B4A47
:102B000068E709ADC4212846FDF7D1FD9DEDE20A35
:102B10009DEDE31A9DEDE42A9DEDE53A06F10C00EA
:102B20000021DDED084ADDED075ADDED066ADDED39
:102B3000057A9DED04AA9DED03BA00BF6A1810ED59
:102B4000035AA82992ED004A92ED016A92ED027AA9
:102B5000D2ED030AD2ED041AD2ED052AD2ED063ADF
:102B6000A5EE004AA5EE036AA5EE257AE5EE0A0A6F
:102B7000E5EE2F1AE5EE082AE5EE2B3A10ED025AA3
:102B8000A5EE014AA5EE246AA5EE277AE5EE0C0A29
:102B9000E5EE2D1AE5EE0D2AE5EE2C3A10ED015A80
:102BA000A5EE024AA5EE266AA5EE0B7AE5EE0E0A20
:102BB00082ED004AE5EE091A82ED016AE5EE282A67
:102BC00082ED027AE5EE2E3AC2ED030AC2ED041A56
:102BD000C2ED052AC2ED063A4ED090ED005A92EDB4
:102BE000074A92ED086A92ED097AD2ED0A0AD2ED0F
:102BF0000B1AD2ED0C2AD2ED0D3AA5EE004A38316F
:102C0000A5EE036AA5EE257AE5EE0A0AE5EE2F1A8F
:102C1000E5EE082AE5EE2B3A90ED015AA5EE014AC1
:102C2000A5EE246AA5EE277AE5EE0C0AE5EE2D1A4C
:102C3000E5EE0D2AE5EE2C3A90ED025AA5EE024A99
:102C40001830A5EE266AA5EE0B7AE5EE0E0A82EDA7
:102C5000074AE5EE091A82ED086AE5EE282A82EDB8
:102C6000097AE5EE2E3AC2ED0A0AC2ED0B1AC2ED60
:102C70000C2AC2ED0D3A61E7002000BF08EB00010D
:102C80002A182318A82891ED000A92ED004A91ED28
:102C9000011A92ED015A30EE040A91ED022A92EDEA
:102CA000026A83ED070A31EE050A91ED033A92EDCF
:102CB000037A83ED080A32EE060A91ED041A83EDD9
:102CC000090A33EE070A92ED042A83ED0A0A31EE6F
:102CD000020A91ED051A92ED052A83ED0B0A31EEF9
:102CE000020A92ED061A83ED0C0A91ED060A30EE07
:102CF000010A83ED0D0A39D091ED070A92ED074ADA
:102D000091ED081A92ED085A30EE040A91ED092A65
:102D100092ED096A83ED0E0A31EE050A91ED0A3A49
:102D200092ED0A7A83ED0F0A32EE060A91ED0B1A44
:102D300083ED100A33EE070A92ED0B2A83ED110A98
:102D400031EE020A91ED0C1A92ED0C2A83ED120A73
:102D500031EE020A91ED0D1A92ED0D2A83ED130A60
:102D600031EE020A383083ED140A87E70DF5866DDF
:102D7000BDEC108B01B0BDE8F08F0000000000003A
:102D800080B54FF4806001F007FA4FF48050BDE841
:102D9000804001F001BA0000EFF3108072B600BF6E
:102DA000FEE70000000000002DE9F04142F21007AC
:102DB00088460546C5F2002701F0D6FA396849076A
:102DC00013D4B8F1010F23D100213868C1F2EE719C
:102DD000014020D042F27430C2F2004082690A43BE
:102DE000826101207960BDE8F08106466C1C02E03A
:102DF00038684007E5D5002CFAD001F0B5FA014655
:102E00004FF0030015B1891BA942F1D9BDE8F0814B
:102E10000020BDE8F0813868C0034FF0000058BFC3
:102E2000BDE8F0814FF480317960BDE8F0810000A9
:102E3000F0B190F83510022918D180B540F20F4258
:102E40000168C4F20202914214DC6F23C4F202034F
:102E5000994224DC3F23C4F2020399423ADC102356
:102E6000C4F20203994258D0282352E080214165E0
:102E70000120704740F26F43C4F2020399421ADC0A
:102E800040F23F43C4F2020399422ADC40F210436D
:102E9000C4F20203994240D040F2284339E09F2314
:102EA000C4F20203994225DC7023C4F20203994262
:102EB00033D088232DE040F29F43C4F202039942AD
:102EC0001FDC40F27043C4F20203994225D040F265
:102ED00088431EE04023C4F2020399421DD05823C8
:102EE00017E040F24043C4F20203994215D040F289
:102EF00058430EE0A023C4F2020399420DD0B82338
:102F000007E040F2B843C4F20203994205D040F210
:102F1000A043C4F2020399426ED191424FF00402E1
:102F200080F8352010DC6F20C4F20200814220DCE2
:102F30003F20C4F20200814236DC1020C4F20200BD
:102F4000814253D028204EE040F26F40C4F202008C
:102F500081421ADC40F23F40C4F2020081422ADC86
:102F600040F21040C4F2020081423FD040F22840BB
:102F700039E09F20C4F20200814225DC7020C4F2B7
:102F80000200814232D088202DE040F29F40C4F2FE
:102F9000020081421FDC40F27040C4F20200814214
:102FA00024D040F288401EE04020C4F2020081425A
:102FB0001CD0582017E040F24040C4F20200814289
:102FC00014D040F258400EE0A020C4F2020081422A
:102FD0000CD0B82007E040F2B840C4F202008142B1
:102FE00004D040F2A040C4F202008142086820F000
:102FF00001000860002080BD0A6822F00E020A600D
:1030000045F25742C5F6020291420A6822F00102D7
:103010000A600EDC45F22F42C5F60202914217DC2F
:1030200045F20842C5F60202914226D045F21C4202
:103030001FE045F27F42C5F60202914211DC45F2E3
:103040005842C5F60202914217D045F26C4210E098
:1030500045F23042C5F6020291420ED045F244429A
:1030600007E045F29442C5F60202914205D045F2CE
:103070008042C5F6020291421AD1D0E9181CD0E96B
:1030800016E30A6822F480720A6003F01F0101222D
:1030900002FA01F1CEF80410816ECCF80410C16E72
:1030A00031B10A6822F480720A60D0E91C124A60C9
:1030B000012180F83510016D0022002980F83420AC
:1030C00098D08847002080BD2DE9F04782B00021CC
:1030D000019140F2280148F2B513C2F20041C1F655
:1030E0004E33856D40F26F490A680168C4F20209E7
:1030F0002E68A2FB032849452A6815DC9F22C4F2EA
:10310000020291422BDC5722C4F2020291424FDCB0
:103110001022C4F20202914278D02822C4F20202A4
:10312000914273D040226CE045F22F43C5F6020372
:10313000994227DC40F2B743C4F20203994243DCD0
:1031400040F27042C4F2020291425FD040F28842E3
:10315000C4F20202914259D040F2A04251E040F242
:103160002742C4F2020291423DDCA022C4F20202D4
:1031700091424BD0B822C4F20202914246D040F2B2
:1031800010423EE045F26B43C5F60203994273DC00
:1031900045F23043C5F60203994200F0808045F2C3
:1031A0004443C5F60203994279D045F2584371E091
:1031B0005822C4F20202914228D07022C4F20202C4
:1031C000914223D088221CE040F2B843C4F20203AB
:1031D00099421BD045F20843C5F6020399425ED0DE
:1031E00045F21C4356E040F22842C4F202029142EA
:1031F0000CD040F24042C4F20202914206D040F2AA
:103200005842C4F20202914240F02D83C26D08235D
:1032100002F01F0240F20F4A9340C4F2020A334206
:1032200000F0D18051454FF0040412DC6F27C4F246
:103230000207B94264DC3F27C4F20207B94200F337
:1032400092801027C4F20207B94200F0B08028270C
:10325000A8E0494560DC40F23F47C4F20207B942AA
:1032600000F3888040F21047C4F20207B94200F030
:103270009E8040F2284795E045F26C43C5F6020374
:1032800099420CD045F28043C5F60203994206D01C
:1032900045F29443C5F60203994240F0E4820B687C
:1032A000C76D07F01F070426BE40164218BF13F073
:1032B00004041BD10226BE40164218BF13F00204BC
:1032C00039D1FA40120740F1CE8213F0080200F023
:1032D000CA820A6822F00E020A60012101FA07F28E
:1032E0006A60416580F83510C16C5BE21A046E605B
:1032F00033D49A0635D40A6822F004020A6030E01A
:103300009F27C4F20207B9423DDC7027C4F20207CE
:10331000B9424CD0882745E040F29F47C4F20207EB
:10332000B94237DC40F27047C4F20207B9423ED0DE
:1033300040F2884736E01A046E6000F197829A06E0
:1033400000F198820A6822F00A020A60012180F8DE
:103350003510002180F834108CE2D90301D4816C3F
:103360007CE2016C7AE24027C4F20207B9421ED027
:10337000582717E040F24047C4F20207B94216D07E
:1033800040F258470EE0A027C4F20207B9420ED01F
:10339000B82707E040F2A047C4F20207B94206D0BE
:1033A00040F2B847C4F20207B94218BF08240F68B8
:1033B000274208D00F6827F004070F60AB60436D09
:1033C00043F0010343650123934033426AD05145E2
:1033D00010DC6F27C4F20207B9421CDC3F27C4F29D
:1033E0000207B94232DC1027C4F20207B94251D0B9
:1033F00028274AE049451ADC40F23F47C4F2020759
:10340000B9422ADC40F21047C4F20207B94241D067
:1034100040F2284739E09F27C4F20207B94225DC71
:103420007027C4F20207B94234D088272DE040F259
:103430009F47C4F20207B9421FDC40F27047C4F252
:103440000207B94226D040F288471EE04027C4F266
:103450000207B9421ED0582717E040F24047C4F295
:103460000207B94216D040F258470EE0A027C4F236
:103470000207B9420ED0B82707E040F2A047C4F2D5
:103480000207B94206D040F2B847C4F20207B94277
:1034900040F0F2814F693F0604D5AB60436D43F0C5
:1034A000020343650423934033426AD0514510DC44
:1034B0006F27C4F20207B9421CDC3F27C4F202079F
:1034C000B94232DC1027C4F20207B94251D0282792
:1034D0004AE049451ADC40F23F47C4F20207B942CC
:1034E0002ADC40F21047C4F20207B94241D040F250
:1034F000284739E09F27C4F20207B94225DC70272C
:10350000C4F20207B94234D088272DE040F29F4729
:10351000C4F20207B9421FDC40F27047C4F202074E
:10352000B94226D040F288471EE04027C4F2020785
:10353000B9421ED0582717E040F24047C4F20207B4
:10354000B94216D040F258470EE0A027C4F2020755
:10355000B9420ED0B82707E040F2A047C4F20207F4
:10356000B94206D040F2B847C4F20207B94240F06F
:1035700085810F68BF0704D5AB60436D43F004033A
:103580004365102303FA02F232427AD051454FF0DC
:10359000080310DC6F27C4F20207B9421CDC3F2786
:1035A000C4F20207B94232DC1027C4F20207B94262
:1035B00051D028274AE049451ADC40F23F47C4F27F
:1035C0000207B9422ADC40F21047C4F20207B942AE
:1035D00041D040F2284739E09F27C4F20207B942A0
:1035E00025DC7027C4F20207B94234D088272DE0C9
:1035F00040F29F47C4F20207B9421FDC40F2704715
:10360000C4F20207B94226D040F288471EE04027A4
:10361000C4F20207B9421ED0582717E040F24047D3
:10362000C4F20207B94216D040F258470EE0A02774
:10363000C4F20207B9420ED0B82707E040F2A04713
:10364000C4F20207B94206D040F2B847C4F20207FA
:10365000B94218BF04230F681F4212D0AA600A683B
:1036600052030A6806D4D20506D40A6822F008027A
:103670000A6001E011034ED4016C11B10446884781
:103680002046C16D01F01F02202101FA02F33342EE
:1036900000F0A88001681027514510DC6F26C4F2A5
:1036A0000206B1421CDC3F26C4F20206B14236DCFF
:1036B0001026C4F20206B14255D028264EE04945F4
:1036C0001ADC40F23F46C4F20206B1422EDC40F260
:1036D0001046C4F20206B14245D040F228463DE011
:1036E0009F26C4F20206B14229DC7026C4F202060B
:1036F000B14238D0882631E040F29F46C4F202063B
:10370000B14223DC40F27046C4F20206B1422AD034
:1037100040F2884622E0816C0029AFD1B1E7402613
:10372000C4F20206B1421ED0582617E040F24046CD
:10373000C4F20206B14216D040F258460EE0A0266E
:10374000C4F20206B1420ED0B82607E040F2A0460D
:10375000C4F20206B14206D040F2B846C4F20206F4
:10376000B14218BF02270E683E423BD0AB6090F8D2
:103770003530042B0B681CD123F016030B604B690A
:1037800023F080034B61036C0BB9836C1BB10B6896
:1037900023F008030B603F219140A960012180F8CC
:1037A0003510016D00294FF0000280F8342056D109
:1037B00059E05A030A680CD4D2050ED40A6822F0E4
:1037C00010020A60012180F83510002180F83410C1
:1037D00003E0110301D4416C00E0C16B11B1044658
:1037E00088472046416D00293DD0416DC90734D03E
:1037F000042180F8351001684FEA98220B6823F005
:1038000001030B60019B0133019393421AD80B68AB
:10381000DB0717D0019B01330193934212D80B6849
:10382000DB070FD0019B0133019393420AD80B6849
:10383000DB0707D0019B01330193934202D80B6849
:10384000DB07DFD10968C9074FF0030108BF012179
:1038500080F83510002180F83410C16C19B102B025
:10386000BDE8F047084702B0BDE8F087D90301D4AE
:10387000416CF3E7C16BF1E70B6813E60B6880E678
:103880002DE9F041044600F06FFDECB140F26F48C5
:1038900005462068C4F20208404518DC9F21C4F2A6
:1038A000020188422EDC5721C4F20201884254DC16
:1038B0001021C4F2020188427ED02821C4F2020104
:1038C000884279D0402172E00120BDE8F08145F2C4
:1038D0002F41C5F60201884227DC40F2B741C4F20D
:1038E0000201884245DC40F27041C4F20201884284
:1038F00062D040F28841C4F2020188425CD040F2BA
:10390000A04154E040F22741C4F20201884240DC69
:10391000A021C4F2020188424ED0B821C4F20201B3
:10392000884249D040F2104141E045F26B41C5F672
:103930000201884200F3C78045F23041C5F602011A
:10394000884200F0D28045F24441C5F60201884227
:1039500000F0CB8045F25841C3E05821C4F2020187
:10396000884229D07021C4F20201884224D08821E3
:103970001DE040F2B841C4F2020188421CD045F279
:103980000841C5F60201884200F0AF8045F21C41B3
:10399000A7E040F22841C4F2020188420CD040F274
:1039A0004041C4F20201884206D040F25841C4F2BC
:1039B0000201884240F0D580022184F835100021B0
:1039C00084F83410016821F0010101602068016869
:1039D000C9070CD000F0C8FC401B0628F6D32020F5
:1039E0006065032084F835000120BDE8F08148F2CD
:1039F0003F0204F108060168CFF6106211406569C4
:103A00004CCE1143A2691943E3693143266A0D4341
:103A1000616A2B43042943EA060343EA020303D104
:103A2000D4E90B652E4333436568A5F12906292E99
:103A300000F21382DFE816F02A002A002A002A008A
:103A40002A002A00110211021102110211021102B0
:103A500011021102110211021102110211021102CE
:103A6000110211022A002A002A002A001102110262
:103A7000110211022A002A00110211021102110280
:103A8000110211022A002A002A002A0043F480139E
:103A900003600429436923F0070341EA030140F06E
:103AA0007B80D4E90A53002B41EA050174D0B2F5BA
:103AB000005F58D0002A62D1022D63D0012D58D06A
:103AC000002D5FD068E045F26C41C5F602018842E6
:103AD0000BD045F28041C5F60201884205D045F27F
:103AE0009441C5F6020188423BD104F1080E02213F
:103AF00084F83510002184F834100168A3699EE829
:103B00000450A2F18005E769B5FA85F566696D098B
:103B1000402A4FEA853543EA07026FF3101142EA63
:103B2000060208BF102541EADC0142EA0E02236AC0
:103B3000294341EAD20141EA131140F80819C0B201
:103B4000CD2148433C2101EA9020E0652046FDF765
:103B500067FBE16D012201F01F0102FA01F14160F2
:103B600025E040203CE7032D16D8DFE805F00E0BDA
:103B70000E02A3F1C072B2FA82F2520904E0032DE0
:103B800003D309D1C3F3006232B140206065012044
:103B900084F83500BDE8F08141612046FDF740FB27
:103BA000E16D3F2201F01F0102FA01F181602068FE
:103BB000404519DC9F21C4F20201884231DC5721C3
:103BC000C4F20201884256DC1021C4F2020188428C
:103BD00000F092802821C4F20201884200F08C801B
:103BE0004021C4F2020184E045F22F41C5F60201F2
:103BF00088422BDC40F2B741C4F20201884248DC23
:103C000040F27041C4F20201884275D040F288410E
:103C1000C4F2020188426FD040F2A041C4F2020116
:103C200067E040F22741C4F20201884240DCA02153
:103C3000C4F2020188425FD0B821C4F20201884276
:103C40005AD040F21041C4F2020152E045F26B41F9
:103C5000C5F6020188423CDC45F23041C5F602015E
:103C6000884249D045F24441C5F60201884243D01A
:103C700045F258413BE05821C4F2020188423BD052
:103C80007021C4F20201884236D08821C4F20201B8
:103C90002FE040F2B841C4F2020188422CD045F234
:103CA0000841C5F60201884226D045F21C411EE0BB
:103CB00040F22841C4F2020188421DD040F2404146
:103CC000C4F20201884217D040F25841C4F2020106
:103CD0000FE045F26C41C5F6020188420CD045F276
:103CE0009441C5F60201884206D045F28041C5F6EE
:103CF0000201884240F0D98045F2574C45F6FC0E4F
:103D0000C5F6020CC5F6020E60450EDC45F22F41E9
:103D1000C5F60201884217DC45F20841C5F60201EA
:103D2000884226D045F21C411FE045F27F41C5F68E
:103D30000201884211DC45F25841C5F60201884271
:103D400017D045F26C4110E045F23041C5F6020152
:103D500088420ED045F2444107E045F29441C5F651
:103D60000201884205D045F28041C5F60201884231
:103D700044D100F0FC014CF6CD420839CCF6CC42DF
:103D8000A1FB0212AEF1FC05AEF17C061309A2689C
:103D900003F01F01802A4FF0010205EB8305256621
:103DA00002FA01F26666A26604D100206060286013
:103DB00072601CE06368D9B25F1E072F29607260D1
:103DC00015D84E1E082E17D260450EF1440235DC80
:103DD00045F22F41C5F60201884245DC45F2084113
:103DE000C5F60201884254D045F21C414DE0002046
:103DF0006067C4E91B0058E0E06E51E000F0F80194
:103E00004AF6AB221039CAF6AA22A1FB021240F2EE
:103E10000F43C4F2020308251109984203F1AA06D0
:103E20000B4688BF05EB121340F60005B042C4F202
:103E3000020505F1800628BF0B46A8E745F27F4141
:103E4000C5F60201884218DC45F25841C5F6020168
:103E500088421ED045F26C4117E025F00307742F0D
:103E600008BF43F4801313E645F23041C5F6020162
:103E700088420ED045F2444107E045F28041C5F644
:103E80000201884205D045F29441C5F602018842FC
:103E900012D10EEB83000121E066B1402267616719
:103EA00000210160D4E91C0141600020606501210E
:103EB00084F83510BDE8F08140F60000C4F202003D
:103EC00000F1FC0E00F5A072E3E700000000000026
:103ED000B0B5044600F048FA40F232110546C2F28D
:103EE0000041621C097818BF0C4400BF00F03CFA86
:103EF000401BA042FAD3B0BD2DE9F04742F274381E
:103F0000C2F2004898F81420012A02D10220BDE82C
:103F1000F0870446012088F814000020C8F8180033
:103F200089462079C00708D04CF250300121FEF7B5
:103F30003BFF01460120002959D1206801281FD1EB
:103F40002079C00752D042F20C052069C5F2002545
:103F5000296821F030012960296808432860286811
:103F6000012140F0880028604CF25030FEF71CFF21
:103F7000002818BF0120296821F00801296036E0D7
:103F80004FF0FF30C9F80000D4E90270384487428E
:103F90002CD242F20C063D02C5F2002640F2047A11
:103FA00008E000BFD4E9020101370844874205F563
:103FB00080751BD22079C007F4D02069316821F4C4
:103FC000E6613160316828430843012140F08400F4
:103FD00030604CF25030FEF7E7FE3168002821EAED
:103FE0000A013160DED0C9F8007000E00020002135
:103FF00088F81410BDE8F08742F20C00C5F20020EA
:10400000016841F0010101600068012121EA00001E
:1040100070470000000000002DE9F04742F27435BF
:10402000C2F20045287D012802D10220BDE8F087B8
:1040300008466FF31300B0F1006F4FF001002875D0
:1040400018BFBDE8F08742F2100692468946C5F2D5
:1040500000260020A86100F087F9316849070BD5D8
:1040600004464CF2503700BF00F07EF9001BB84206
:1040700057D830684007F7D440F200083068C1F2E2
:10408000EE7810EA080005D0A9690143A9617060C3
:10409000012058E030685746C00302D54FF4803005
:1040A000706056F8040C40F0020046F8040CBFF3B0
:1040B0006F8FBFF34F8F3868C9F800007868C9F870
:1040C0000400B868C9F80800F868C9F80C00386935
:1040D000C9F810007869C9F81400B869C9F818005F
:1040E000F869C9F81C00BFF36F8FBFF34F8F00F062
:1040F0003BF9316849070BD504464CF2503700BFF5
:1041000000F032F9001BB84216D830684007F7D4E7
:10411000306810EA080106D0A8690843A8610120A8
:1041200008E003200FE03068C0034FF0000004D522
:104130004FF48031716000E0032056F8041C21F038
:10414000020146F8041C00212975BDE8F087000033
:1041500042F20400C5F200208168C9070CD040F289
:104160002311C4F26751016048F6AB11CCF6EF5150
:1041700001608068C00701D10020704701207047AE
:10418000B0F5805F18BF704742F26C300121C2F277
:1041900000400170704700008821C5F600010A68E0
:1041A000024208BF70470860FFF7EABF0000000046
:1041B0002DE9F04F83B00F68002F00F0C88000F1A8
:1041C000264642F2004506F1FF76C5F602050A22B0
:1041D000A8424FEAB62540F2040C08BF092200F1BC
:1041E00020030093082DC5F6000C38BF4FEAB62215
:1041F000002400264FF0000801920AE008F10108AF
:104200000F6837FA08F206F1020604F1040400F020
:104210009E80012202FA08FE17EA0E09EED0D1F8BC
:1042200004B003220BF00307B2407D1E6FEA020ABE
:10423000012D11D88268CD6802EA0A02B5402A43EE
:104240008260CBF30015426822EA0E0205FA08F5F7
:104250002A43426004E000BF032F01D103271FE07F
:10426000C2688D6802EA0A02B540022F42EA0502DE
:10427000C26015D16FF0030204F01C0502EA580B6E
:10428000009A0F2352F80BE0AB400F692EEA0303AC
:10429000AF403B4342F80B30D1F804B00BF00307BA
:1042A000026807FA06F302EA0A021BF4403F42EAF8
:1042B00003020260A2D044F2F44340F2084EC5F675
:1042C0000203C5F6000E0F251A6842F002021A60BA
:1042D0001A6802F00202029228F00302029B04F024
:1042E0000C0352F80E709D40AF43019D05FA03F395
:1042F0003B4342F80E304FF0B04EDEF800204B68E2
:1043000042EA0907DD0258BF22EA09079D02CEF8FA
:104310000070DCF8002042EA090758BF22EA0907CA
:104320009D03CCF80070DCF8802042EA090758BFF2
:1043300022EA0907DB03CCF88070DCF87C2042EA33
:10434000090758BF22EA0907CCF87C7056E703B08A
:10435000BDE8F08F00000000002A08BF0904816159
:10436000704700000000000045F24800C2F2004023
:10437000006870470000000040F2321045F248012A
:10438000C2F20040C2F2004100780A68104408609E
:10439000704700000000000080B5032000F0B0F876
:1043A00001F0E2FE44F218414FF27003C5F602013B
:1043B000C0F600030A68C2F303229A5C096801F0A0
:1043C0000F0102F01F02595CD04040F22C02C2F2F1
:1043D000004201F01F0120FA01F1116040F22801B2
:1043E000C2F2004108600F2000F00AF800281CBF4C
:1043F000012080BD00F030F8002080BD00000000EA
:1044000040F23211C2F20041097819B310B50446E6
:1044100040F22800C2F200404FF47A72B2FBF1F190
:104420000068B0FBF1F002F02FFF0F2C01464FF0B7
:1044300001000ED8002918BF10BD4FF0FF30002238
:10444000214600F02DF840F234110020C2F2004164
:104450000C6010BD0120704781B044F2F440C5F6F5
:104460000200016841F002010160006800F00200F2
:104470000090009801B07047002848BF704700F0D6
:104480001F01012202FA01F14EF20012C0F34A109C
:10449000CEF2000242F82010704700000000000039
:1044A00070B54EF60C5C4FF0FF36CEF2000C00F10A
:1044B000604505F56445DCF80030C3F3022E8EF04C
:1044C0000703042B28BF0423BEF1030406FA03F3F9
:1044D00021EA030100F00F0338BF0024043B002849
:1044E000634406FA04F048BF03F10C05A14022EA38
:1044F000000008430001287070BD000000000000AB
:104500004EF60C514FF6FF03CEF200010A681A4036
:1045100060F30A2242F0806040F0FD70086070474E
:1045200001680122C0F80025002280F8F42488697F
:1045300040F000608861486D40F08052002042F0F9
:1045400003024A6570470000704700000000000049
:1045500002680020516270472DE9F043D0F80080D6
:10456000D8F82430A9B1D8F82870B1F1010C03EBC8
:10457000174351D05FFA8CF10C46012998BF0124F2
:10458000042908F5827104F0030E09D200270024E3
:1045900029E0002043EA0241C8F82810BDE8F08372
:1045A00004F0FC0908F1F406002400BF56F8107F5F
:1045B00044F00100C0B244F00305EDB203EB174331
:1045C00044F0020751F82000FFB2043403EB10401E
:1045D00051F8273051F82550E7B200EB13404F4512
:1045E00000EB1543E2D1BEF1000F15D051F82700C2
:1045F000BEF1010F03EB10430ED0601CBEF1020FA1
:10460000C0B251F8200003EB104305D0A01CC0B28B
:1046100051F8200003EB104308EB8C0043EA024101
:10462000C0F804110020BDE8F08300000000000085
:10463000D0F8080506F034BA01EBC10200EB8202A3
:10464000D0F80805926C06F09BB90000000000004D
:1046500001EBC10200EB8202D0F80805D2F88822F3
:1046600006F0E6B900000000D0F8080506F01CBA14
:1046700010B501F00F0E0A464FFA82FCD2090EEB7C
:10468000CE01BCF1000F00EB810303F51F7148BFA1
:1046900003F13C0190F8BC344A70012B81F800E032
:1046A00001D1022010BD012280F8BC24026804461A
:1046B000104606F0B5FF002084F8BC0410BD0000D1
:1046C000B0B501F00F024368934201D20120B0BDA2
:1046D0004CB202EBC2038C46002C00EB830303F5C3
:1046E0001F714FEADC1448BF03F13C0190F8BC3461
:1046F0004C700024012B8C700A7001D10220B0BDD7
:10470000012280F8BC2402680546104607F064FACE
:10471000204685F8BC44B0BD01F00F0101EBC1019A
:1047200000EB8100D0F8900270470000000000000C
:1047300010B54FFA81FCBCF1000F01F00F0C0CEB2F
:10474000CC0122D400EB810E00218EF87D120EF5F3
:104750001F718EF87CC2CEF884228EF88032022B34
:1047600001D100224A7190F8BC24012A01D1022013
:1047700010BD012280F8BC2402680446104606F0F1
:10478000FFFD002084F8BC0410BD00EB81014FF058
:10479000010E01F83CCF81F801E08A600B71A1F8AD
:1047A0001AC0022BDDD0DEE780B501F00F0C0CEB58
:1047B000CC0100EB810E0021CEE9A331C3688EF855
:1047C0007D120EF51F71CEF88822012B8EF87CC267
:1047D00008BFCA61DAB2006807F046FA002080BD5F
:1047E000B0B501F00F04426894424FF001022CD89A
:1047F0004FFA81FC01EBC10304EBC405BCF1000FCF
:1048000000EB830303F51F7300EB850548BF05F13B
:104810003C0390F8BC54C9095970012D9A701C7062
:1048200001D10220B0BD012180F8BC14054600680A
:10483000194607F0F9F92CB9297B286805F2C4421A
:1048400007F09AF9002285F8BC241046B0BD00009C
:1048500080B501F00F0CD0F80CE0BEF1010F0CEBAD
:10486000CC0100EB810101F83CCF4FF0000CC1E915
:104870000323C1F814C04FF001034B7008BFCA6195
:104880005FFA8EF2006807F0EFF9002080BD0000AB
:104890002DE9F04F87B005688246284607F0ECFB0B
:1048A00010B107B0BDE8F08FDAF8000007F014FC93
:1048B0000028F6D0D5F80808C0F30D20CAF8FC048B
:1048C000DAF8000007F008FC8007DAF8000003D5EA
:1048D000416901F00201416105F50061059107F0B0
:1048E000FBFBC006DAF80000069534D5816921F09B
:1048F000100181612C6A04F00F0000EBC001C4F3C9
:1049000043400AEB8101062801F51F7511D00228EA
:104910001AD147F6F07014EA000615D03409E96898
:104920000698224607F0DCFBE86800EB1610E8600A
:1049300007E00AF2C4410822069807F0D1FBC4F34D
:104940000A14686920446861DAF80000816941F05E
:1049500010018161069D07F0BFFB000340F1F88064
:10496000DAF8000007F094FB002800F0F18006461A
:104970004FF4306800244FF0000B0AF2C44004905A
:1049800009E000BF0BF1010B760808F1200804F1E3
:10499000240400F0DD80F007F4D05FFA8BF9DAF838
:1049A0000000494607F090FB0746C0075FD005EBC3
:1049B000080001218160DAF8000008EB0001036CB7
:1049C0008A68DAF80C50012D25D1150732D49506E6
:1049D00000F1B68043F20B05C4F65475AB42069D58
:1049E00002D312F400422FD10AEB0402D2F89C3217
:1049F00009696FF3DF41A3EB0101C2F8901294BB88
:104A0000D2F88C32002B00F0A180D2F88802084442
:104A1000C2F8880227E043F20B05C4F65475FF354F
:104A2000AB4217D11004069D0ED490061BD5202052
:104A3000886018E043F20B00069DC4F65470834270
:104A400015D312F4004012D04FF4004088603807AC
:104A50000FD43DE0069D34B9DAF88C1219B9002163
:104A6000049A07F089F850464946FFF7F1FD3807E8
:104A70002ED505EB08000821816043F20B01DAF81E
:104A80000000C4F65471056C40448D4281680AD31D
:104A900011F4004107D04FF400418160504600F00E
:104AA000FBFC069D09E0504600F0F6FC43F20B00CB
:104AB000C4F654708542069D0AD3DAF80C0001282A
:104AC00006D1DAF800000121049A07F055F800BF7A
:104AD000F80607D4B8070BD4B80624D4B8047FF579
:104AE00051AF27E005EB080010218160B807F3D52E
:104AF0006869000604D50599486840F480604860FC
:104B00000AEB040090F87F12012906D1002180F8F9
:104B10007F125046494600F05BFB05EB080002217E
:104B20008160B806DAD505EB080020218160B80461
:104B30007FF528AF05EB08004FF40051816021E7B5
:104B400020208860069D380793D4C1E7012187E7BC
:104B5000DAF8000007F0C0FA400340F1E080DAF82C
:104B6000000007F08DFA002800F0D980064606986C
:104B700000F5106900250AF13C0004900AF2C440D7
:104B80000290CDF80C9004E0760805F1010500F0E4
:104B9000C680F007F8D0EFB2DAF80000394607F027
:104BA0007FFA0446C0070BD1200735D4E00639D47C
:104BB00060063DD4A00741D42006E5D558E000BFEB
:104BC000059B05F00F004FF0010C09EB45120CFAA4
:104BD00000F0596B21EA00005863C2F808C0DAF807
:104BE0000C00012812D105EBC500049901EB8000EF
:104BF000D0E902121144C16045B9006930B9DAF850
:104C000000000121029A06F0B7FF00BF5046394666
:104C1000FFF712FD2007C9D509EB45100821816077
:104C2000E006C5D509EB4510102181606006C1D5AD
:104C300009EB451040218160A007BDD506982946A3
:104C400007F0AEF905EBC500049901EB800010F800
:104C5000031F012905D1002101705046394600F09B
:104C6000B3FA09EB45100221816020067FF58CAF75
:104C700005EBC500049901EB8008D8E904108142D6
:104C8000FFF482AFDAF800400A1AD8F808309A42E6
:104C900038BF134604EB451203F1030CD2F8183960
:104CA0009BB2B3EB9C0F2BD302F51069D8F8101010
:104CB000814223D9081A9AF80C20D8E902B1584544
:104CC00038BF8346009220461FFA8BF33A4607F01E
:104CD0002FFBD8F80C00D8F814105844C8F80C0072
:104CE00001EB0B00C8F814000BF10301D9F81820F0
:104CF00092B2B2EB910FD9D2D8F81010DDF80C9027
:104D000081423FF641AF05F00F00012101FA00F0AA
:104D1000D4F8341821EA0000C4F8340834E7DAF88B
:104D2000000007F0D9F9002803D4DAF80000069C47
:104D30001AE00599486820F0010048609AF8F404E8
:104D4000012807D100208AF8F40400215046FFF71B
:104D5000FBFB02E0504600F07FFBDAF80000069C07
:104D6000416901F00041416107F0B6F9000502D444
:104D7000DAF800000CE005988068C00702D05046C1
:104D800000F0B2FBDAF80000416901F40061416112
:104D900007F0A2F9000117D5DAF80000416901F027
:104DA000006141619AF8F41419B1504600F09CFB7F
:104DB0000AE001218AF8F414406DC0F38300CAF8B8
:104DC000F8045046FFF7C0FBDAF8000007F084F95A
:104DD000C00402D4DAF80000FAE00599486820F02F
:104DE00001004860DAF80000102107F0D9F8DAF87D
:104DF0000400002800F0C280042800F0030C01D257
:104E000000216DE020F0030E04F536634FF6A05844
:104E10004FF6C0554FF6E0544FF6006000214FF6B4
:104E20007F37CFF6FF78CFF6FF75CFF6FF74CFF65A
:104E3000FF7000BFA3F51872A3F5107604319760D8
:104E40008E4553F8082022F4001243F8082043F856
:104E5000587C53F8602C22F4001243F8602C53F86D
:104E6000602C42F0006243F8602CB760A3F508762E
:104E70005A5922F400125A5143F8387C53F8402C06
:104E800022F4001243F8402C53F8402C42F0006208
:104E900043F8402CB760A3F500761A5922F40012AB
:104EA0001A5143F8187C53F8202C22F4001243F8CE
:104EB000202C53F8202C42F0006243F8202CB760DD
:104EC0001A5822F400121A509F601A6822F4001235
:104ED0001A601A6842F000621A6003F18003A9D1D7
:104EE000BCF1000F069849D000F5106200F5306063
:104EF00002EB41174FF67F334E01BCF1010FBB604F
:104F000000EB4115975927F400179751AB6087596B
:104F100027F400178751875947F0006787512DD034
:104F20004F1CBCF1020F4FEA471502EB471600EB8E
:104F30004717B360565926F400165651BB604359C3
:104F400023F400134351435943F00063435115D0F8
:104F500002314FF67F364F0102EB411300EB411156
:104F60009E60D35923F40013D3518E60C15921F4AC
:104F70000011C151C15941F00061C151059E842108
:104F80000B224423F06940F00110F061DAF83000A0
:104F9000002808BF142104BF42F22B021023DAF8C4
:104FA000000077583A437250F1580AF2C44241F077
:104FB0000B01F150316821F4FE6131609AF80C1058
:104FC00006F0DAFDDAF80000416901F48051416130
:104FD00007F082F88004DAF800001AD506F014FA17
:104FE000DAF8000007F038F8CAF81000DAF80040E4
:104FF00001F092F89AF810200146204607F010F9C7
:10500000504600F011FADAF80000416901F400514D
:10501000416107F061F8000702D4DAF8000008E007
:10502000504600F01DFADAF80000416901F008016D
:10503000416107F051F8000629D50699886920F0EA
:1050400080008861DAF80400022820D30AF51F7472
:105050000AF13C05012640F2A32703E0013624377C
:10506000864214D21AF807100129F7D106F00F0072
:10507000320600EBC00005EB800158BF04EB800155
:10508000DAF8000006F0FCFEDAF80400E6E7DAF8E9
:10509000000007F021F8C00202D4DAF8000031E085
:1050A000DAF80400022827D306990AF13C0401F536
:1050B00012650AF163064FF00108012706E000BF00
:1050C00001372035874206F1240615D22968727807
:1050D000012AF5D1B1F1FF3FF2DC07F00F0086F8AD
:1050E000008000EBC00004EB8001DAF8000006F05D
:1050F000C7FEDAF80400E3E7DAF80000416901F4DA
:105100008011416106F0E8FF8002069D02D4DAF8C2
:10511000000034E0DAF8041002292AD305F53260E1
:1051200001390AF52972012306E000BF013900F1B7
:10513000200002F124021CD007681678012EF5D158
:10514000B7F1FF3FF2DCDAF8FC6407F4803706F0D1
:105150000106B742EAD102F8013CAF6947F0800787
:10516000AF616F693F06E1D40599486840F400706B
:105170004860DAF80000416901F40011416106F06D
:10518000ABFF400002D4DAF8000008E05046FFF719
:105190004FFADAF80000416901F08041416106F000
:1051A0009BFF40077FF57DABDAF80000446861079C
:1051B00004D55046FFF758FADAF800004168214359
:1051C000416007B0BDE8F08FD0F8080505F0D4BC09
:1051D000D0F8080505F0E8BC002800F0C4802DE9EF
:1051E000F04F8BB08046056890F8BD0428B90020C8
:1051F00088F8BC04404600F0CFF8032088F8BD04CE
:10520000E86BC00502D40020C8F80C00D8F80000F4
:1052100006F0AAFCD8F800000A9008F1040ED8E9BC
:1052200008769EE82E58D8E90A9AD8E90C40CDE9CC
:1052300008400A988DE82058CDE90476CDE9069A11
:1052400006F0F2F8002840F08780D8F8000000212E
:10525000002506F09DFFD8F8041000295DD008F164
:105260003C004FF0010C0022002300BF02EBC20201
:1052700000EB820700F82230DAB201337A83DAB227
:1052800087F801C091423D71BD60FD603D61EDD880
:1052900008F51F7000220025002300BF05EBC5079D
:1052A00043F00105ECB200EB8706A14200F827307D
:1052B00072703271B260F26032612ED904EBC407B1
:1052C00000F8275043F00205ECB200EB8706A1423C
:1052D00072703271B260F26032611ED904EBC407A1
:1052E00000F8275043F00305ECB200EB8706A1421B
:1052F00072703271B260F26032610ED904EBC40791
:10530000043300EB870600F82750DDB2A942727023
:105310003271B260F2603261C0D8D8F808000A90E9
:1053200008F11C0ED8F80020D8E90337D8E9056544
:105330009EE80058D8E90A9AD8E90C40CDE908401F
:1053400002A8CDE9007680E8205810460A9ACDE9F7
:10535000069A06F0C5F940B1022088F8BD04012084
:105360000BB0BDE8F08F01207047002088F83800AE
:10537000012088F8BD04D8F82400012802D1404655
:10538000FFF7CEF8D8F8000006F09AF900200BB02D
:10539000BDE8F08F0000000010B5C2B014A90446AB
:1053A00001F10800B021FBF782F900212068C4F266
:1053B0000401884201D042B010BD01AC4821201D3B
:1053C000FBF775F92020019001200790204600F09E
:1053D00053FF08B1FDF7E0FC002015904FF480204A
:1053E00014904FF44010359014A800F0C9F808B19B
:1053F000FDF7D2FC00F0B8F844F2D8400022C5F620
:105400000200016841F0007101600068032100F0B2
:105410000070009000984D20FFF742F84D20FFF7F4
:105420002BF842B010BD000010B50446006928B149
:10543000022801D0FDF7B0FC012100E00021D4F8E2
:10544000080505F03DFCD4F80805BDE8104005F05E
:10545000EBBB000000000000D0F8080505F014BC0C
:10546000D0F8080505F01CBC90F8BC24012A01D135
:105470000220704710B5012280F8BC2480F8381053
:1054800004460268104606F0B7FE002084F8BC040B
:1054900010BD000000000000D0F8082500F2C44153
:1054A000104605F025BC000010B5044690F8BC0479
:1054B000012801D1022010BD2068012184F8BC140C
:1054C000C16BC90506D4A16A012903D1816B41F4DE
:1054D0008031816306F05CFD206806F0E1F8002071
:1054E00084F8BC0410BD000010B50446D0F80805CF
:1054F00005F056FC2068D0F8001E41F00101C0F80C
:10550000001E206A002808BF10BD4EF61050CEF2D3
:105510000000016841F00601016010BD00000000BC
:10552000B0B544F60C05C5F6020529684907296897
:1055300005D401F00701081A18BF0120B0BD21F001
:10554000070108432860FEF70FFF044655F8080CD2
:10555000800407D4FEF708FF001BB0F57A7FF5D969
:105560000120B0BD0020B0BD44F60C00C5F602001D
:10557000016841F080710160704700000000000088
:105580002DE9F0470446C07844F22C480007C5F6E0
:10559000020824D5606E4FEA3051032936D8DFE87F
:1055A00001F002090F17D8F8001041F40031C8F8D3
:1055B00000100DE004F10800022104F0F5F904E008
:1055C00004F12800022104F07FFA064640B9606E1B
:1055D000D8F8241021F440110843C8F8240000260C
:1055E0006078C00701D1354629E0A06D04283CD879
:1055F0003546DFE800F003130D191900D8F8000054
:10560000354640F40030C8F800000DE00126E7E719
:1056100004F12800002104F057FA04E004F1080026
:10562000002104F0C1F905462F464DB9D8F82400F1
:10563000A16D20F0070000250843C8F82400374674
:10564000607840072FD5D4F8A4004FEA70500528A1
:1056500014D8DFE800F003160D1C1C1CD8F800005D
:1056600040F40030C8F8000011E001250127E7E709
:1056700004F12800002104F027FA07E001250126A3
:1056800012E004F10800002104F08EF905462E46D0
:1056900055B9D8F82C00D4F8A41020F460000025E7
:1056A0000843C8F82C003E46607800072CD5D4F893
:1056B000A8004FEA3060052811D8DFE800F0031396
:1056C0000A191919D8F8000040F40030C8F8000091
:1056D0000EE004F12800002104F0F6F907E00125AE
:1056E000012712E004F10800002104F05DF90546ED
:1056F0002F4655B9D8F82C00D4F8A81020F0E06057
:1057000000250843C8F82C003746E078800720D5EC
:10571000E06C4FEA3010032830D8DFE800F00F02C9
:10572000090FD8F8000040F40030C8F8000005E088
:1057300004F10800022104F037F905462E464DB960
:10574000D8F82000E16C20F0300000250843C8F8AC
:1057500020003E466078C0062AD5E06D4FEA303022
:1057600004283AD8DFE800F003130D191900D8F81F
:10577000000040F40030C8F800000EE001250126CA
:10578000E8E704F12800002104F09EF904E004F1A8
:105790000800002104F008F905462F464DB9D8F855
:1057A0002400E16D20F4E04000250843C8F82400FF
:1057B00037466078800624D5206E4FEA30400528B1
:1057C00000F24B83DFE800F012030C12121204F116
:1057D0000800012104F0E8F807E001250127E8E7C7
:1057E00004F12800012104F06FF905462E464DB959
:1057F000D8F82400216E20F4E02000250843C8F8E2
:1058000024003E466078400623D5D4F8AC004FEA29
:105810003070052800F22583DFE800F00F03090F40
:105820000F0F04F10800012104F0BEF804E004F1B8
:105830002800012104F048F905462F4655B9D8F84B
:105840002C00D4F8AC1020F0E04000250843C8F844
:105850002C003746607800061FD5E06E90B1B0F19D
:10586000005F09D0B0F1805F29D1D8F8000040F482
:105870000030C8F8000005E004F10800012104F040
:1058800093F805462E464DB9D8F82400E16E20F075
:10589000405000250843C8F824003E46E078C00781
:1058A00021D0A06C03284FD8DFE800F012020C12C0
:1058B000D8F8000040F40030C8F8000008E00125E6
:1058C0000126EBE704F10800022104F06DF805461B
:1058D000A9464DB9D8F82000A16C20F0030000259E
:1058E0000843C8F82000B146A078400601D44F46CE
:1058F00016E0D8F8D40340F48070C8F8D403FEF75B
:1059000033FD0646D8F8D403C00507D4FEF72CFDB6
:10591000801B6428F6D90325032701E02F46BDB17B
:105920002078C00756D0A06F4FEAF000052800F29B
:105930009B82DFE800F044033E44444404F1080045
:10594000012104F031F839E001254FF00109CBE7DE
:10595000D8F84410D4F8B000414011F4407F11D081
:10596000D8F84410D8F8442042F48032C8F84420D3
:10597000D8F8442021F4407122F48032C8F8442041
:10598000C8F84410B0F5807F40F08282FEF7ECFC4E
:10599000064641F2883A0325032700BFD8F84400A1
:1059A000800700F17382FEF7DFFC801B5045F5D9BC
:1059B000B6E704F12800012104F086F805462E46DA
:1059C0004DB9D8F82800A16F20F038000025084311
:1059D000C8F828003E46207880071FD5606F05284C
:1059E00000F24582DFE800F00F03090F0F0F04F10A
:1059F0000800012103F0D8FF04E004F12800012190
:105A000004F062F805462F464DB9D8F82800616FBA
:105A100020F0070000250843C8F828003746207802
:105A2000400721D5D4F89000052800F22382DFE852
:105A300000F00F03090F0F0F04F10800012103F01C
:105A4000B3FF04E004F12800012104F03DF805460D
:105A50002E4655B9D8F82C00D4F8901020F0070045
:105A600000250843C8F82C003E462078800623D540
:105A7000D4F88C004FEA3070052800F2FE81DFE890
:105A800000F00F03090F0F0F04F10800002103F0CD
:105A90008BFF04E004F12800022104F015F805460C
:105AA0002F4655B9D8F82800D4F88C1020F0E040E3
:105AB00000250843C8F8280037462078400623D53B
:105AC000D4F898004FEAB020052800F2D981DFE829
:105AD00000F00F03090F0F0F04F10800002103F07D
