:020000040800F2
:10000000202C0024B9030008C9700008D969000831
:10001000C170000831080008E19A000800000000E3
:10002000000000000000000000000000197400083B
:10003000110A000800000000E170000821740008A7
:10004000D3030008D3030008D3030008D303000838
:10005000D3030008D3030008D3030008D303000828
:10006000D3030008D3030008D3030008D90800080D
:10007000E9080008D3030008D3030008D3030008ED
:10008000D3030008D3030008D3030008D3030008F8
:10009000D3030008D3030008D3030008D3030008E8
:1000A000D3030008D3030008D3030008D3030008D8
:1000B000D3030008D3030008D3030008D3030008C8
:1000C000D3030008D3030008D3030008D3030008B8
:1000D00029730008D3030008D3030008D3030008E2
:1000E00039230008D303000800000000D3030008F0
:1000F000D3030008D3030008D3030008D303000888
:10010000D3030008D3030008D3030008D303000877
:10011000D3030008D3030008D3030008D303000867
:10012000D3030008D3030008D3030008D303000857
:10013000D3030008D3030008D3030008D303000847
:1001400000000000000000000000000000000000AF
:10015000D3030008D3030008D3030008D303000827
:10016000D3030008D3030008D3030008D303000817
:10017000D3030008D1700008D3030008000000007A
:10018000D3030008D3030008D3030008D3030008F7
:10019000D3030008D3030008D3030008D3030008E7
:1001A000D3030008D3030008D303000800000000B5
:1001B000D3030008D3030008D3030008D3030008C7
:1001C000D3030008D3030008000000000000000073
:1001D0000000000000000000D30300080000000041
:1001E000000000000000000000000000000000000F
:1001F0000000000000000000D3030008D303000843
:10020000D3030008D303000800000000D303000854
:10021000D3030008D3030008D3030008D303000866
:10022000D303000800000000D30300080000000012
:10023000D3030008D303000800000000D303000824
:10024000D3030008D3030008D3030008D303000836
:10025000D3030008D3030008D3030008D303000826
:10026000D3030008D3030008D3030008D303000816
:10027000D3030008D3030008D303000800000000E4
:10028000D3030008D3030008D3030008D3030008F6
:1002900000000000D3030008D303000800000000A2
:1002A00000000000D3030008D3030008D3030008B4
:1002B000D3030008D3030008D3030008D3030008C6
:1002C000D3030008D3030008D303000800F002F8AA
:1002D00000F062F814A696E8000CB244B344DA4584
:1002E00001D100F059F8BAE80F000FA696E83000E7
:1002F000A5EB040504EB0607AAEB0704A7F1010729
:100300004FEA15154FEA3414A4F10104AC4201D3AD
:1003100000F042F813F0010F18BFFB1A43F001037D
:1003200000F001F8DBE71847E8AA000008AB00007E
:100330000A4410F8014B14F00F0508BF10F8015BD8
:10034000240908BF10F8014B6D1E05D010F8013BC1
:100350006D1E01F8013BF9D1641E03D0641E01F843
:10036000015BFBD19142E4D370470000704700006D
:100370000023002400250026103A28BF78C1FBD8AE
:10038000520728BF30C148BF0B6070471FB50AF045
:1003900067FC1FBD10B510BD00F09EF81146FFF7B9
:1003A000F5FF09F039FD00F0BCF803B4FFF7F2FFE8
:1003B00003BC00F0BFF80000094880470948004727
:1003C000FEE7FEE7FEE7FEE7FEE7FEE7FEE7FEE705
:1003D000FEE7FEE704480549054A064B7047000062
:1003E000F1740008CD02000820220024202C0024F3
:1003F000202400242024002410B5203AC0F00B80D3
:10040000B1E81850A0E81850B1E81850A0E818500A
:10041000203ABFF4F5AF5FEA027C24BFB1E8185080
:10042000A0E8185044BF18C918C0BDE810405FEAE2
:10043000827C24BF51F8043B40F8043B08BF70475E
:10044000D20728BF31F8023B48BF11F8012B28BF63
:1004500020F8023B48BF00F8012B70474FF0000224
:1004600000B5134694469646203922BFA0E80C50AA
:10047000A0E80C50B1F12001BFF4F7AF090728BF85
:10048000A0E80C5048BF0CC05DF804EB890028BF01
:1004900040F8042B08BF704748BF20F8022B11F02A
:1004A000804F18BF00F8012B7047704770477047A6
:1004B00010B500F009F8006810BD10B5044600F052
:1004C00003F8046010BD00000048704738010024A4
:1004D00000487047380100247546FFF7F9FFAE4623
:1004E00005006946534620F00700854618B020B540
:1004F000FFF770FFBDE820404FF000064FF0000707
:100500004FF000084FF0000BAC46ACE8C009ACE877
:10051000C009ACE8C009ACE8C00921F007018D466C
:10052000704710B50446AFF300802046BDE8104088
:10053000FFF73BBF01491820ABBEFEE726000200D3
:10054000704700000000000040F600000121C5F6E1
:100550000200012203F054B840F600000121C5F664
:100560000200002203F04CB87047000000000000B9
:1005700040F600000821C5F60200012203F040B851
:1005800040F600000821C5F60200002203F038B84A
:100590007047000000000000002808BF704710B539
:1005A0004EF2180145F2003CCEF20001C0F2070CF9
:1005B00003E000BF013802041AD051F804EC0B68C4
:1005C000002208E01A449C42A2EB0402234628BF02
:1005D00072446245EED20C689C42F3D10C689C4296
:1005E00004BF0C689C42EDD10C689C42F3D0E9E753
:1005F000BDE810407047000080B54EF21801C0EB16
:100600000010CEF200014FEA401E002351F804CC46
:100610000A6808E013449042A3EB0003024628BF97
:10062000634473450CD208689042F3D10868904245
:1006300004BF08689042EDD108689042F3D0E9E722
:1006400080BD00000000000010B5FFF78DFFFFF730
:100650009FFF09F049FA044609F0D2FA204310BD81
:100660002DE9F04F81B000920E468146FFF774FFEE
:10067000922000F0C5F8922000F0C2F8552000F05A
:10068000BFF88046552000F0BBF88346552000F0A7
:10069000B7F88246552000F0B3F80446552000F024
:1006A000AFF80746552000F0ABF80546FFF74CFFC2
:1006B00048EA0B2000B24AEA042109B200EE100A0F
:1006C00040F20000C2F20040B8EEC00A90ED001AFD
:1006D00021EE000A01EE101A47EA052186ED000A14
:1006E00009B290ED002A00EE101AB8EEC11AB8EE69
:1006F000C00A22EE011A86ED011A22EE000A86EDEA
:10070000020AFFF73DFF802000F07AF8552000F044
:1007100077F80646552000F073F8552000F070F881
:100720008246552000F06CF80546552000F068F828
:100730008346552000F064F80446552000F060F828
:100740000746552000F05CF88046FFF711FF0F2E9A
:1007500028D14AEA052000B24BEA042109B200EE92
:10076000100A40F20400C2F20040B8EEC00A90ED58
:10077000001A21EE000A01EE101A47EA082189ED5D
:10078000000A09B290ED002A00EE101AB8EEC11A64
:10079000B8EEC00A22EE011A89ED011A22EE000A13
:1007A00089ED020AFFF7D8FEA22000F029F8A22066
:1007B00000F026F8552000F023F80446552000F0FC
:1007C0001FF80546FFF7C0FEE0004FF6000340EAC1
:1007D00055110022CFF6FF73B2EB902F18BF1943CB
:1007E000B4EE001AB3EE072A00EE101A0098B8EE25
:1007F000C00AA0EE012A80ED002A01B0BDE8F08F0A
:1008000080B582B08DF8070042F24010C2F200407D
:100810000DF107010DF1060201234FF47A7CCDF8AA
:1008200000C005F0C1FB9DF8060002B080BD0000CD
:10083000FEE70000000000000020704700000000FC
:10084000002070470000000010B541F6680440F633
:10085000BC51C2F20044C2F200410022204607F01F
:100860001BF940F2BC512046C2F2004107F004F9E6
:10087000002010BD0000000010B541F668040146DC
:10088000C2F20044204607F0F7F8204607F0D0F8FF
:10089000002010BD00000000002070470000000094
:1008A00041F66802C2F20042D2F8BC22D2F8142209
:1008B000002A1CBF0120704710B541F668040A46A3
:1008C000C2F200440146204607F0E6F82046BDE8A3
:1008D000104007F059B9000041F64430C2F2004020
:1008E00001F08ABE0000000041F6BC30C2F20040B8
:1008F00001F082BE0000000040F20F42D0F800C0BC
:10090000C4F20202944510DC6F22C4F20202944544
:1009100020DC3F22C4F20202944536DC1022C4F2ED
:100920000202944554D028224EE040F26F42C4F2B5
:10093000020294451ADC40F23F42C4F2020294459E
:100940002ADC40F21042C4F20202944540D040F248
:10095000284239E09F22C4F20202944525DC70222D
:10096000C4F20202944533D088222DE040F29F4227
:10097000C4F2020294451FDC40F27042C4F202024B
:10098000944525D040F288421EE04022C4F2020283
:1009900094451DD0582217E040F24042C4F20202B2
:1009A000944515D040F258420EE0A022C4F2020253
:1009B00094450DD0B82207E040F2B842C4F20202DA
:1009C000944505D040F2A042C4F20202944517D1EA
:1009D0000CF0F8024AF6AB23103ACAF6AA23A2FB9F
:1009E000033109A35F2AC1F302115B5C40F2FF31BE
:1009F0002CEA0101C36588BF043181650846704750
:100A00002CF0FF01F9E700BF0006101600061016D3
:100A10007047000000000000F0B581B02DED088B9C
:100A200004464CF2AC504FF2C352C3F22770C4F2EA
:100A30001C12C4F8EC01C4F8F02149F69A10002207
:100A4000C3F61960C4F2C8220D46C4E97E0241F221
:100A50006F206C21C3F68320C4F80C0204F50470E7
:100A60000026C4F8F4614FF07E57C4F80072C4E960
:100A70008176FFF7F3FC95ED018A95ED000A28EEEB
:100A8000081A95ED029A9FED542AA0EE001AA9EEDD
:100A9000091AB1EEC11AB4EE421AF1EE10FA05DAF3
:100AA000C4E90076A6609FED4E1A53E0B1EE40AA6D
:100AB0008AEE010A9FED491AB0EEC00AB4EE410A6F
:100AC000F1EE10FA08DD4FF07E50206000209FED1F
:100AD000441AC4E901003DE0B0EE480AF0EE490ACC
:100AE00009F0C4F929EE091AA8EE081AB0EE408AF6
:100AF000B0EE4A0AF1EEC10A09F0B8F9B6EE00BA52
:100B0000B0EE409A28EE0B8AB0EE480A09F004FBDA
:100B1000B0EE40AAB0EE480A09F0D8FE29EE0B8AE2
:100B2000B0EE409AB0EE480A09F0F6FAB0EE40BADC
:100B3000B0EE480A09F0CAFE2AEE0B1A84ED001A3C
:100B400029EE401A29EE0B2A2AEE000A84ED012A2A
:100B500084ED020A04F12000BC2184ED031A002573
:100B6000C4E90455A561FFF779FC4DF20A70C02174
:100B7000C3F62340E061E0634FF07E56E065E06736
:100B800004F1E000C4F89C60C4F8BC60C4F8DC6008
:100B9000FFF764FC4EF2FF60C4E97355C4E9775572
:100BA000C4E97556C4E97956C2F6DB60C4F8600141
:100BB000C4F88001C4E97166D4E97812C4F8C02190
:100BC000C4E96806C4E96A55C4E96C56C4E96E51C3
:100BD000BDEC088B01B0F0BDBD378635A4707D3FFC
:100BE00000000000000000002DE9F0412DED108B09
:100BF000ADF5447D90ED041A91ED002A32EE411AD4
:100C000090ED052A91ED013AFEEE008A33EE422A7C
:100C1000F6EE00BA90ED064A91ED023AB0EE408A47
:100C200021EE280A33EE443AD0ED019A22EE284A0A
:100C300090ED00FA21EE2B1AD0ED02AA20EE089AD0
:100C4000B0EE4F0A24EE08DAD0ED03CA23EE284AAC
:100C50009FEDF45A21EE08AAB0EE691A23EE2B3A62
:100C6000044622EE2B2AAAEE0F1A23EE08CAB0EE93
:100C70006C3AA9EE290A22EE08BAB0EE6A2AACEE66
:100C80002A1A24EE08EAABEE0F2AADEE2A0AADEEE0
:100C90002C1AAEEE292AAEEE2C0AACEE0F3AAAEED2
:100CA0002C2A21EE014AABEE293AA0EE004AA9EE29
:100CB0002A3AA2EE024AA3EE034AB1EEC44AB4EEC7
:100CC000454AF1EE10FA0FDD80EE040A81EE041AB7
:100CD00084ED000A82EE040A84ED011A83EE041A00
:100CE00084ED020A84ED031A93AF502107F17000DE
:100CF000FFF7B4FB28EE285A94ED7B3A68EE2B0AF6
:100D00008DED96EA8DEDA2EA62AE25EE290A8DED13
:100D10009AAA25EE2A6A8DEDA4AA20EEA92A8DEDC5
:100D200095DA63EE002A8DED9DDA20EEAA1A8DED9C
:100D3000A06A60EEAC1A4FF07E5062EE803ACDEDC4
:100D4000991A23EE067ACDED9F1A25EE2C4A939040
:100D500060EE8F0A9B90E7EE063AA39063EE049A4A
:100D6000AB9062EEA04AB39062EEA15ABB90E9EE5E
:100D7000843AC390E7EE044A04F11C01E7EE205ADE
:100D8000C42223EE21EAC4ED383AE9EE814A304626
:100D900063EE207A8DED9CCAE9EE805A8DEDA8CAEB
:100DA0006EEE203AC4ED394A2EEE00AA8DEDA1BABE
:100DB000C4ED3A5A6EEE214A6EEE065A8DEDA9BA8E
:100DC000E7EE843A8DED949A25EE0F5A8DEDAA9AAE
:100DD000A7EE86AA8DED972AE7EEA04A8DED981A28
:100DE000E7EE825A8DED9E5AE2EE813A8DEDA54AEC
:100DF00062EE866A8DEDA72A27EE808A8DEDA65ACF
:100E000067EEA18AC4ED473AA2EE84AA8DEDAC1A32
:100E1000E2EE804A8DEDAD0AE2EE855A8DEDAE5AD6
:100E200067EE002A84ED46AA63EE023AC4ED484A12
:100E300067EE211AC4ED495A27EEA0FAA9EE868A78
:100E4000E9EEA08A27EE86DAE3EE862AE3EEA01A20
:100E500067EE200A27EE066AE7EE026AA9EE84FA38
:100E600063EE01AAA9EE82DA23EE053AE3EE840AE4
:100E7000A3EE826AE9EE856AAAEE848AAAEE81FA76
:100E8000EAEE808AC4ED3B6AAAEE85DA84ED3F8AF9
:100E9000E3EE042A84ED40FAE3EE010AC4ED418A50
:100EA000E3EE001A84ED42DAA3EE056AC4ED4D2AA2
:100EB000C4ED4E0AC4ED4F1A84ED506AFFF79CFA58
:100EC0000DF1C408C4214046FFF7C8FA002041468E
:100ED00005E000BF01301C31072800F09980C0EB0D
:100EE000C00207EB820292ED000A92ED011A92ED28
:100EF000022A92ED033A92ED044A92ED055A92EDE0
:100F0000066A00228B18B518102A93ED007AD5EDE9
:100F1000000AA0EE207AD3ED010AD5ED011AD5ED35
:100F2000022AE0EE210AD3ED021AE0EE221AD5EDF4
:100F3000072AA1EE227AD5ED082AE1EE220AD5EDA4
:100F4000092AE1EE221AD5ED0E2AA2EE227AD5ED7B
:100F50000F2AE2EE220AD5ED102AE2EE221AD5ED92
:100F6000152AA3EE227AD5ED162AE3EE220AD5ED54
:100F7000172AE3EE221AD5ED1C2AA4EE227AD5ED2B
:100F80001D2AE4EE220AD5ED1E2AE4EE221AD5ED42
:100F9000232AA5EE227AD5ED242AE5EE220AD5ED04
:100FA000252AE5EE221AD5ED2A2AA6EE227AD5EDDB
:100FB0002B2AE6EE220AD5ED2C2AE6EE221A83ED44
:100FC000007AC3ED010AC3ED021A83D093ED037AD0
:100FD000D5ED030AA0EE207AD5ED0A0A1032A1EE73
:100FE000207AD5ED110AA2EE207AD5ED180AA3EEEB
:100FF000207AD5ED1F0AA4EE207AD5ED260AA5EEBB
:10100000207AD5ED2D0AA6EE207A83ED037A79E7D2
:101010006E46C4213046FFF721FA06F10800002190
:1010200007E000BFBD37863501311C30072900F0CD
:101030009B80C1EBC102034608EB820292ED000ADD
:1010400092ED011A92ED022A92ED033A92ED044AD2
:1010500092ED055A92ED066A002200BFBD1813ED0D
:10106000027AD3ED002A702AD5ED000AD5ED071AD1
:10107000A0EE207A53ED010AE0EE210AD5ED0E1A1A
:10108000E0EE212AD5ED011AA1EE217AD5ED081A5C
:10109000E1EE210AD5ED0F1AE1EE212AD5ED021A73
:1010A000A2EE217AD5ED091AE2EE210AD5ED101A49
:1010B000E2EE212AD5ED031AA3EE217AD5ED0A1A24
:1010C000E3EE210AD5ED111AE3EE212AD5ED041A3B
:1010D000A4EE217AD5ED0B1AE4EE210AD5ED121A11
:1010E000E4EE212AD5ED051AA5EE217AD5ED0C1AEC
:1010F000E5EE210AD5ED131AE5EE212AD5ED061A03
:10110000A6EE217AD5ED0D1AE6EE210AD5ED141AD8
:10111000E6EE212A03ED027A43ED010AC3ED002A2F
:1011200082D093ED017AD5ED150AA0EE207AD5EDA7
:10113000160A7032A1EE207AD5ED170AA2EE207AB7
:10114000D5ED180AA3EE207AD5ED190AA4EE207A7F
:10115000D5ED1A0AA5EE207AD5ED1B0AA6EE207A67
:1011600083ED017A103379E7002000BF321821188F
:10117000A82892ED000A91ED387A92ED011A92EDCD
:10118000022A92ED033AD1ED390AD1ED3A1AD1EDA6
:101190003B2A30EE070A92ED044A92ED055A92ED91
:1011A000066AD1ED3C3AD1ED3D4A91ED3E7A31EE01
:1011B000201A32EE212A81ED070A33EE220A81ED50
:1011C000081A34EE231A81ED092A35EE242A81ED1E
:1011D0000A0A36EE070A81ED0B1A81ED0C2A81ED21
:1011E0000D0A39D092ED070A91ED3F7A92ED081A77
:1011F00092ED092AD1ED400AD1ED411A30EE070AED
:1012000092ED0A3A92ED0B4AD1ED422AD1ED433AE2
:1012100031EE201A81ED0E0A32EE210A92ED0C5ABF
:1012200092ED0D6AD1ED444AD1ED455A81ED0F1A88
:1012300033EE221A81ED100A34EE230A81ED111AE1
:1012400035EE241A81ED120A36EE250A81ED131AC5
:10125000383081ED140A89E70020A0610DF5447D46
:10126000BDEC108BBDE8F0812DE9F04F81B02DED84
:10127000108BADF5866D91ED010A91ED002A20EEFF
:10128000001A91ED023A9FED5C4AF7EE00DA90ED1C
:10129000039AD0ED00BAA2EE021AD0ED02FAD0ED18
:1012A00001EAB8EE008A0446A3EE031AB1EEC11AB1
:1012B000B4EE441AF1EE10FA2BEE894A31FE2D1AE3
:1012C000B0EE445A9EEEAF4A83EE016A29EE093A27
:1012D0008DED086A80EE017AC2EE010AB0EE6D1A59
:1012E000B0EE430AAEEEAE3AAEEEAF5A8DED077AEF
:1012F00034EE044ACDED050AAFEEAF0A35EE052A0D
:101300002BEEEF5AA0EE081AB0EE6D0A27EE022A75
:10131000AEEE895AA3EE080A2BEEAE3AA1EE202AD1
:10132000AFEE893A27EE000A35EE051A8DED031A65
:10133000A4EE200A33EE033AA1EE062A90ED7E1ABF
:101340008DED043AA3EE060A20EE000AA2EE020A90
:10135000B1EEC00A80ED820AB4EE410AF1EE10FA55
:101360004CDD80EE010AD4ED800A08F07DFF94ED9B
:101370007F1A84ED810AB4EE410AF1EE10FA03DD22
:10138000B0EE410A84ED811A94ED721A94ED754A1B
:1013900020EE011A94ED732A94ED787A84ED691A9F
:1013A00020EE041A94ED743A94ED765A20EE022A57
:1013B00084ED6C1A20EE071A94ED776A20EE033A5A
:1013C000D4ED790A84ED6A2A20EE052A84ED6F1A9D
:1013D00094ED7A1A84ED6B3A20EE063A84ED6D2A8C
:1013E00020EE202A84ED6E3A20EE010A84ED702A68
:1013F00084ED710A2AE000BFBD3786354FF07E507C
:10140000C4F80402D4F8C801C4F8A401D4F8CC018B
:10141000C4F8A801D4F8D001C4F8AC01D4F8D401C0
:10142000C4F8B001D4F8D801C4F8B401D4F8DC0190
:10143000C4F8B801D4F8E001C4F8BC01D4F8E40160
:10144000C4F8C001D4F8E801C4F8C4012FEE88DA6A
:1014500094ED072A7EEEAE8A94ED0E3A7BEEAB9ABF
:1014600094ED0A6A39EE09EAD4ED116A6EEE88AAA3
:10147000F7AD2DEE020A542128EE821A284629EEF5
:10148000822A8DED069A2BEE88FAE9AFAEEE030ABA
:10149000A9EE831AAAEE832A94ED153AAFEE030A59
:1014A000AEEE031A3FEEAFCAADEE032A94ED1C3A3E
:1014B000A8EE830AACEE031AAEEE032A94ED083AC6
:1014C0002DEE037A68EE831A29EE834A94ED0F3AE3
:1014D000AEEE037AE9EE831AAAEE834A94ED163A49
:1014E000AFEE037AEEEE031AADEE034A94ED1D3A29
:1014F000A8EE837AECEE031AAEEE034A94ED093AB5
:101500006DEE035A68EE834A69EE830A94ED103A51
:10151000EEEE035AE9EE834AEAEE830A94ED173AB7
:101520002DEE065A68EE862A69EE863AEFEE035AE9
:10153000EEEE034AEDEE030A94ED1E3AAEEE265AA5
:10154000E9EEA62AEAEEA63AD4ED1F6AE8EE835A3F
:10155000ECEE034AEEEE030A94ED183AAFEE035AAE
:1015600060EE0D7AEEEE032AEDEE033A20EE283A15
:1015700020EE296A94ED690AE7EE0E7AA7EE293A81
:10158000A7EE2A6AE5EE8F7AA5EE8E3AA5EE8D6A71
:1015900021EE0D7A61EE285A21EE291AA1EE8E7AFB
:1015A000E1EEA95AA1EEAA1AA4EE8F7AE4EE8E5AC1
:1015B000A4EE8D1A62EE0D1A62EE284A22EE292A56
:1015C000E4EE0E1AECEE262AA4EE2A2AEEEE263AD5
:1015D000E4EE294A94ED6D4AE0EE8F1AA0EE8D2AD2
:1015E000E0EE8E4AD4ED710AA2EE8E1AA3EE8E2A98
:1015F000E3EEA81AA8EEA65AE2EE8C5AA2EEA87A5A
:10160000E3EE8C4A30EE822A61EE610AE5EE287A3A
:1016100034EE254AA5EE0C3A61EE642AE7EE020AA2
:10162000A5EE0E6AE4EE022A24EE615A30EE270A95
:1016300063EE600A66EE443A67EE425A63EE426A2F
:10164000A7EE245AE0EE220AE3EE013AE1EE215A37
:1016500020EE411AE6EE246A60EE644A6EEEEE7AFF
:10166000E6EE050AA6EE071A26EE616AE3EE214AC7
:1016700023EE473AEBEEAB7AA0EE026AA0EE043A14
:101680008DEEA07AEFEEEF7A62EE87BACDED027AB8
:1016900066EE87DA63EE87FA65EE87CA26EE078A7A
:1016A00021EE079A25EE07BA24EE87AA63EE07EA31
:1016B000FEF7D4FE0020002163182A18702993ED4C
:1016C000073A92ED000A92ED011A92ED022AA3EE7A
:1016D0000D0A93ED0E5AA3EE281A92ED044AA3EEDA
:1016E000292A93ED083AA3EE0E0A92ED056AA3EEBD
:1016F000291A93ED157AA3EE2A2A93ED093AA3EE5F
:101700000F0AD2ED070AA3EE0E1AD2ED081AA3EEC5
:101710000D2A93ED0A3AA3EE280AA3EE0C1AA3EEC3
:101720000E2A92ED033AA5EE0D3A82ED000AA5EEDF
:10173000284A93ED170AA5EE296A93ED0F5AA5EEF4
:101740000E3A82ED011AA5EE294A82ED022AA5EE93
:101750002A6A93ED105AA5EE0F3AA5EE0E4AA5EEB1
:101760000D6A93ED115AA5EE283AA5EE0C4AA5EEA6
:101770000E6A92ED065AA7EE0D5A82ED033AE7EE95
:10178000280A82ED044AE7EE291A93ED167AA7EEAD
:101790000E5A82ED056AE7EE290AE7EE2A1AA0EE54
:1017A0000F5AE0EE0E0AE0EE0D1A93ED180AA0EEC5
:1017B000285AE0EE0C0AE0EE0E1A82ED065AC2ED4F
:1017C000070AC2ED081A2ED093ED1C0A92ED091AF1
:1017D00092ED0A2A92ED0B3AA0EE0D1A7031A0EEAE
:1017E000282A3030A0EE293A93ED1D0AA0EE0E1AF9
:1017F000A0EE292AA0EE2A3A93ED1E0AA0EE0F1AB7
:10180000A0EE0E2AA0EE0D3A93ED1F0AA0EE281AC4
:10181000A0EE0C2AA0EE0E3A82ED091A82ED0A2AF9
:1018200082ED0B3A48E7E2AE54213046FEF716FE51
:10183000002000BF2A183118302891ED002A92EDBF
:10184000003A91ED010A91ED021AA3EE2B2A92EDD6
:10185000034AA3EE2D0A91ED045AA3EE2F1A92ED3E
:10186000013AA3EE2C2A91ED056AA3EE080A91ED48
:10187000077AA3EE091A92ED023AA3EE0B2AD1EDF4
:10188000080AA3EE0A0AA3EE2E1A91ED033AA4EE7B
:101890002B3A81ED002AA4EE2D5A91ED062AA4EEF2
:1018A0002F6A92ED044AA4EE2C3A81ED010AA4EECF
:1018B000085A92ED080AA4EE096A92ED054AA4EED0
:1018C0000B3A81ED021AA4EE0A5AA4EE2E6A92EDAA
:1018D000064AA4EE2B2A81ED033AA4EE2D7A81ED7F
:1018E000045AE4EE2F0A92ED074AA4EE2C2A81ED69
:1018F000056AA4EE087AE4EE090AA0EE0B2AA0EE2F
:101900000A7AE0EE2E0A81ED062A81ED077AC1ED12
:10191000080A25D092ED090A91ED091A91ED0A2ADB
:1019200091ED0B3AA0EE2B1A3030A0EE2D2AA0EE4E
:101930002F3A92ED0A0AA0EE2C1AA0EE082AA0EE89
:10194000093A92ED0B0AA0EE0B1AA0EE0A2AA0EEBD
:101950002E3A81ED091A81ED0A2A81ED0B3A69E7E9
:101960000DF562799DED060A9DED028A04F507707A
:1019700054224946A0EE008AFEF73EFD9DED050A81
:101980009DED042A9DED031A9DEDE24A30EE411AC9
:101990009DED070A30EE420A9DEDE52A9DEDE65ADF
:1019A00097ED027A22EE013A9DED082A24EE014AD3
:1019B0009DEDE86A32EE482A8DED085AA5EE003A10
:1019C0009DEDE35A8DED076A26EE016AA5EE004A09
:1019D0009DEDE75A8DED065AA5EE023A97ED005AB5
:1019E0008DED055AA5EE006A9DEDE45A8DED047A61
:1019F00027EE017AA5EE024A97ED015A8DED035AC2
:101A0000A5EE026A97ED035A8DED025AA5EE007A13
:101A100094ED015A33EE053A97ED045A8DED015AD3
:101A2000D7ED05EAA5EE027A94ED005A34EE055A98
:101A300094ED024A63EE030A97ED088A36EE044AF3
:101A400094ED036A6EEE811AD7ED06FAE5EE050A0B
:101A500097ED09AA37EE066A97ED079A28EE017A04
:101A600097ED0ABAEFEE801A84ED9C1AE4EE040AB0
:101A700094ED041AAAEE007A84ED9D0AE9EE021AAA
:101A800084ED9E2AE6EE060AD7ED0BBAABEE027A9B
:101A9000D7ED0CCAD7ED0DDA84ED005A84ED013A8A
:101AA00031EE810A94ED051AB1EEE02A84ED024A86
:101AB00037EE011A9FEDD87A84ED036AB4EE472A17
:101AC000F1EE10FA0FDD85EE025A83EE023A84ED54
:101AD000005A84EE024A84ED013A86EE022A84ED31
:101AE000024A84ED032A94ED7D2AB1AFB1EE423A69
:101AF000C42182FE400A384682FE411A0026A661B1
:101B000083FE000A83FE011A84ED040A84ED051A9F
:101B1000FEF7A4FC4FF07E5C0021002209EB0605D5
:101B2000BB1847F801C0781893ED000A95ED001A2C
:101B300093ED012A93ED023A93ED034AA1EE4D0A8B
:101B4000A1EE4E2A702AA1EE4F3AA1EE684A95ED19
:101B5000011AA1EE680AA1EE692AA1EE4E3AA1EEA1
:101B60004C4A95ED021AA1EE690AA1EE6A2AA1EE8D
:101B70004D3AA1EE4E4A83ED000A83ED012A95ED20
:101B8000030A83ED023A83ED034AC0F820C093EDC7
:101B9000071A93ED082A93ED093A93ED0A4AA0EE4D
:101BA0004D1AA0EE4E2AA0EE4F3AA0EE684A95EDEF
:101BB000040AA0EE681AA0EE692AA0EE4E3AA0EE42
:101BC0004C4A95ED050AA0EE691AA0EE6A2AA0EE2D
:101BD0004D3AA0EE4E4A83ED071A83ED082A95EDA3
:101BE000060A83ED093A83ED0A4AC0F840C093ED36
:101BF0000E1A93ED0F2A93ED103A93ED114AA0EED1
:101C00004D1AA0EE4E2AA0EE4F3AA0EE684A95ED8E
:101C1000070AA0EE681AA0EE692AA0EE4E3AA0EEDE
:101C20004C4A95ED080AA0EE691AA0EE6A2AA0EEC9
:101C30004D3AA0EE4E4A83ED0E1A83ED0F2A83ED46
:101C4000103A83ED114A33D0C0F860C095ED090A0F
:101C500093ED151A93ED162A93ED173A93ED184A62
:101C6000A0EE4D1A7032A0EE4E2A8031A0EE4F3A0F
:101C70003036A0EE684A95ED0A0AA0EE681AA0EE8A
:101C8000692AA0EE4E3AA0EE4C4A95ED0B0AA0EE62
:101C9000691AA0EE6A2AA0EE4D3AA0EE4E4A83EDF4
:101CA000151A83ED162A83ED173A83ED184A35E7A6
:101CB00080AEC4213046FEF7D1FB002031469DEDB9
:101CC00002EA9DED01FA04E001301C31072800F022
:101CD0009980C0EBC00207EB820292ED000A92ED00
:101CE000011A92ED022A92ED033A92ED044A92ED26
:101CF000055A92ED066A00228B18A518102A93ED5A
:101D0000007AD5ED070AA0EE207AD3ED010AD5EDD1
:101D1000081AD5ED092AE0EE210AD3ED021AE0EE09
:101D2000221AD5ED0E2AA1EE227AD5ED0F2AE1EE88
:101D3000220AD5ED102AE1EE221AD5ED152AA2EEDF
:101D4000227AD5ED162AE2EE220AD5ED172AE2EE26
:101D5000221AD5ED1C2AA3EE227AD5ED1D2AE3EE38
:101D6000220AD5ED1E2AE3EE221AD5ED232AA4EE8F
:101D7000227AD5ED242AE4EE220AD5ED252AE4EED6
:101D8000221AD5ED2A2AA5EE227AD5ED2B2AE5EEE8
:101D9000220AD5ED2C2AE5EE221AD5ED312AA6EE3F
:101DA000227AD5ED322AE6EE220AD5ED332AE6EE86
:101DB000221A83ED007AC3ED010AC3ED021A83D023
:101DC00093ED037AD5ED0A0AA0EE207AD5ED110A3B
:101DD0001032A1EE207AD5ED180AA2EE207AD5EDC8
:101DE0001F0AA3EE207AD5ED260AA4EE207AD5EDBF
:101DF0002D0AA5EE207AD5ED340AA6EE207A83EDE1
:101E0000037A79E70DF59E78C4214046FEF726FB5C
:101E100008F10800002106E0BD37863501311C308D
:101E2000072900F09B80C1EBC102034606EB82024A
:101E300092ED000A92ED011A92ED022A92ED033A18
:101E400092ED044A92ED055A92ED066A002200BF17
:101E5000BD1813ED027AD3ED002A702AD5ED000AE1
:101E6000D5ED071AA0EE207A53ED010AE0EE210A23
:101E7000D5ED0E1AE0EE212AD5ED011AA1EE217A58
:101E8000D5ED081AE1EE210AD5ED0F1AE1EE212A6F
:101E9000D5ED021AA2EE217AD5ED091AE2EE210A59
:101EA000D5ED101AE2EE212AD5ED031AA3EE217A20
:101EB000D5ED0A1AE3EE210AD5ED111AE3EE212A37
:101EC000D5ED041AA4EE217AD5ED0B1AE4EE210A21
:101ED000D5ED121AE4EE212AD5ED051AA5EE217AE8
:101EE000D5ED0C1AE5EE210AD5ED131AE5EE212AFF
:101EF000D5ED061AA6EE217AD5ED0D1AE6EE210AE9
:101F0000D5ED141AE6EE212A03ED027A43ED010A1B
:101F1000C3ED002A82D093ED017AD5ED150AA0EE2B
:101F2000207AD5ED160A7032A1EE207AD5ED170A87
:101F3000A2EE207AD5ED180AA3EE207AD5ED190A83
:101F4000A4EE207AD5ED1A0AA5EE207AD5ED1B0A6B
:101F5000A6EE207A83ED017A103379E73AAE542168
:101F60003046FEF77BFA94ED690A94ED6A1A94ED17
:101F70006B2A94ED6C3A94ED6D4A94ED6E5A94EDA3
:101F80006F6A94ED707AD4ED710A002009EB0002BB
:101F900031183028D1ED003AD2ED004AD1ED011AC6
:101FA000D1ED022AE4EE803AD2ED035AE4EE811A32
:101FB000D1ED046AE4EE822AD2ED014AE4EE833ADE
:101FC000D1ED057AE4EE841A91ED07CAE4EE852A94
:101FD000D2ED024AE4EE863A91ED08DAE4EE871A91
:101FE000E4EEA02AD1ED034AE5EE804AC1ED003AC5
:101FF000E5EE816AD1ED063AE5EE827AD2ED045A39
:10200000E5EE834AC1ED011AE5EE846AD2ED081AC5
:10201000E5EE857AD2ED055AE5EE864AC1ED022A53
:10202000E5EE876AE5EEA07AD2ED065AE5EE803A53
:10203000C1ED034AA5EE81CAC1ED046AA5EE82DABC
:10204000D2ED075AE5EE833AC1ED057AA5EE84CAD2
:10205000A5EE85DAE1EE863AA1EE87CAA1EEA0DA16
:10206000C1ED063A81ED07CA81ED08DA25D0D2ED3F
:10207000091AD1ED092AD1ED0A3AD1ED0B4AE1EE68
:10208000802A3030E1EE813AE1EE824AD2ED0A1A3E
:10209000E1EE832AE1EE843AE1EE854AD2ED0B1AB5
:1020A000E1EE862AE1EE873AE1EEA04AC1ED092A87
:1020B000C1ED0A3AC1ED0B4A68E709ADC4212846D3
:1020C000FEF7CCF99DEDE20A9DEDE31A9DEDE42AC1
:1020D0009DEDE53A06F10C000021DDED084ADDED4D
:1020E000075ADDED066ADDED057A9DED04CA9DED2A
:1020F00003DA00BF6A1810ED035AA82992ED004ACE
:1021000092ED016A92ED027AD2ED030AD2ED041A41
:10211000D2ED052AD2ED063AA5EE004AA5EE036AF5
:10212000A5EE257AE5EE0C0AE5EE2E1AE5EE082A74
:10213000E5EE2B3A10ED025AA5EE014AA5EE246A0F
:10214000A5EE277AE5EE0E0AE5EE2F1AE5EE0A2A4D
:10215000E5EE2C3A10ED015AA5EE024AA5EE266AEC
:10216000A5EE0D7AE5EE0F0A82ED004AE5EE091ABA
:1021700082ED016AE5EE0B2A82ED027AE5EE2D3A58
:10218000C2ED030AC2ED041AC2ED052AC2ED063AF9
:102190004ED090ED005A92ED074A92ED086A92ED0A
:1021A000097AD2ED0A0AD2ED0B1AD2ED0C2AD2ED41
:1021B0000D3AA5EE004A3831A5EE036AA5EE257A60
:1021C000E5EE0C0AE5EE2E1AE5EE082AE5EE2B3ACE
:1021D00090ED015AA5EE014AA5EE246AA5EE277AF4
:1021E000E5EE0E0AE5EE2F1AE5EE0A2AE5EE2C3AA8
:1021F00090ED025AA5EE024A1830A5EE266AA5EE29
:102200000D7AE5EE0F0A82ED074AE5EE091A82ED36
:10221000086AE5EE0B2A82ED097AE5EE2D3AC2ED69
:102220000A0AC2ED0B1AC2ED0C2AC2ED0D3A61E7A3
:10223000002000BF08EB00012A182318A82891ED00
:10224000000A92ED004A91ED011A92ED015A30EE2A
:10225000040A91ED022A92ED026A83ED070A31EE3B
:10226000050A91ED033A92ED037A83ED080A32EE06
:10227000060A91ED041A83ED090A33EE070A92ED7E
:10228000042A83ED0A0A31EE020A91ED051A92ED55
:10229000052A83ED0B0A31EE020A92ED061A83ED50
:1022A0000C0A91ED060A30EE010A83ED0D0A39D0D1
:1022B00091ED070A92ED074A91ED081A92ED085A3E
:1022C00030EE040A91ED092A92ED096A83ED0E0AB7
:1022D00031EE050A91ED0A3A92ED0A7A83ED0F0A82
:1022E00032EE060A91ED0B1A83ED100A33EE070A5F
:1022F00092ED0B2A83ED110A31EE020A91ED0C1AD0
:1023000092ED0C2A83ED120A31EE020A91ED0D1ABC
:1023100092ED0D2A83ED130A31EE020A383083ED77
:10232000140A87E70DF5866DBDEC108B01B0BDE892
:10233000F08F00000000000080B54FF4806001F0D5
:102340007FF84FF48050BDE8804001F079B800007C
:10235000EFF3108072B600BFFEE70000000000003F
:10236000F0B190F83510022918D180B540F20F4233
:102370000168C4F20202914214DC6F23C4F202032A
:10238000994224DC3F23C4F2020399423ADC102331
:10239000C4F20203994258D0282352E080214165BB
:1023A0000120704740F26F43C4F2020399421ADCE5
:1023B00040F23F43C4F2020399422ADC40F2104348
:1023C000C4F20203994240D040F2284339E09F23EF
:1023D000C4F20203994225DC7023C4F2020399423D
:1023E00033D088232DE040F29F43C4F20203994288
:1023F0001FDC40F27043C4F20203994225D040F240
:1024000088431EE04023C4F2020399421DD05823A2
:1024100017E040F24043C4F20203994215D040F263
:1024200058430EE0A023C4F2020399420DD0B82312
:1024300007E040F2B843C4F20203994205D040F2EB
:10244000A043C4F2020399426ED191424FF00402BC
:1024500080F8352010DC6F20C4F20200814220DCBD
:102460003F20C4F20200814236DC1020C4F2020098
:10247000814253D028204EE040F26F40C4F2020067
:1024800081421ADC40F23F40C4F2020081422ADC61
:1024900040F21040C4F2020081423FD040F2284096
:1024A00039E09F20C4F20200814225DC7020C4F292
:1024B0000200814232D088202DE040F29F40C4F2D9
:1024C000020081421FDC40F27040C4F202008142EF
:1024D00024D040F288401EE04020C4F20200814235
:1024E0001CD0582017E040F24040C4F20200814264
:1024F00014D040F258400EE0A020C4F20200814205
:102500000CD0B82007E040F2B840C4F2020081428B
:1025100004D040F2A040C4F202008142086820F0DA
:1025200001000860002080BD0A6822F00E020A60E7
:1025300045F25742C5F6020291420A6822F00102B2
:102540000A600EDC45F22F42C5F60202914217DC0A
:1025500045F20842C5F60202914226D045F21C42DD
:102560001FE045F27F42C5F60202914211DC45F2BE
:102570005842C5F60202914217D045F26C4210E073
:1025800045F23042C5F6020291420ED045F2444275
:1025900007E045F29442C5F60202914205D045F2A9
:1025A0008042C5F6020291421AD1D0E9181CD0E946
:1025B00016E30A6822F480720A6003F01F01012208
:1025C00002FA01F1CEF80410816ECCF80410C16E4D
:1025D00031B10A6822F480720A60D0E91C124A60A4
:1025E000012180F83510016D0022002980F8342087
:1025F00098D08847002080BD2DE9F04782B00021A7
:10260000019140F2280148F2B513C2F20041C1F62F
:102610004E33856D40F26F490A680168C4F20209C1
:102620002E68A2FB032849452A6815DC9F22C4F2C4
:10263000020291422BDC5722C4F2020291424FDC8B
:102640001022C4F20202914278D02822C4F202027F
:10265000914273D040226CE045F22F43C5F602034D
:10266000994227DC40F2B743C4F20203994243DCAB
:1026700040F27042C4F2020291425FD040F28842BE
:10268000C4F20202914259D040F2A04251E040F21D
:102690002742C4F2020291423DDCA022C4F20202AF
:1026A00091424BD0B822C4F20202914246D040F28D
:1026B00010423EE045F26B43C5F60203994273DCDB
:1026C00045F23043C5F60203994200F0808045F29E
:1026D0004443C5F60203994279D045F2584371E06C
:1026E0005822C4F20202914228D07022C4F202029F
:1026F000914223D088221CE040F2B843C4F2020386
:1027000099421BD045F20843C5F6020399425ED0B8
:1027100045F21C4356E040F22842C4F202029142C4
:102720000CD040F24042C4F20202914206D040F284
:102730005842C4F20202914240F02D83C26D082338
:1027400002F01F0240F20F4A9340C4F2020A3342E1
:1027500000F0D18051454FF0040412DC6F27C4F221
:102760000207B94264DC3F27C4F20207B94200F312
:1027700092801027C4F20207B94200F0B0802827E7
:10278000A8E0494560DC40F23F47C4F20207B94285
:1027900000F3888040F21047C4F20207B94200F00B
:1027A0009E8040F2284795E045F26C43C5F602034F
:1027B00099420CD045F28043C5F60203994206D0F7
:1027C00045F29443C5F60203994240F0E4820B6857
:1027D000C76D07F01F070426BE40164218BF13F04E
:1027E00004041BD10226BE40164218BF13F0020497
:1027F00039D1FA40120740F1CE8213F0080200F0FE
:10280000CA820A6822F00E020A60012101FA07F268
:102810006A60416580F83510C16C5BE21A046E6035
:1028200033D49A0635D40A6822F004020A6030E0F4
:102830009F27C4F20207B9423DDC7027C4F20207A9
:10284000B9424CD0882745E040F29F47C4F20207C6
:10285000B94237DC40F27047C4F20207B9423ED0B9
:1028600040F2884736E01A046E6000F197829A06BB
:1028700000F198820A6822F00A020A60012180F8B9
:102880003510002180F834108CE2D90301D4816C1A
:102890007CE2016C7AE24027C4F20207B9421ED002
:1028A000582717E040F24047C4F20207B94216D059
:1028B00040F258470EE0A027C4F20207B9420ED0FA
:1028C000B82707E040F2A047C4F20207B94206D099
:1028D00040F2B847C4F20207B94218BF08240F6893
:1028E000274208D00F6827F004070F60AB60436DE4
:1028F00043F0010343650123934033426AD05145BD
:1029000010DC6F27C4F20207B9421CDC3F27C4F277
:102910000207B94232DC1027C4F20207B94251D093
:1029200028274AE049451ADC40F23F47C4F2020733
:10293000B9422ADC40F21047C4F20207B94241D042
:1029400040F2284739E09F27C4F20207B94225DC4C
:102950007027C4F20207B94234D088272DE040F234
:102960009F47C4F20207B9421FDC40F27047C4F22D
:102970000207B94226D040F288471EE04027C4F241
:102980000207B9421ED0582717E040F24047C4F270
:102990000207B94216D040F258470EE0A027C4F211
:1029A0000207B9420ED0B82707E040F2A047C4F2B0
:1029B0000207B94206D040F2B847C4F20207B94252
:1029C00040F0F2814F693F0604D5AB60436D43F0A0
:1029D000020343650423934033426AD0514510DC1F
:1029E0006F27C4F20207B9421CDC3F27C4F202077A
:1029F000B94232DC1027C4F20207B94251D028276D
:102A00004AE049451ADC40F23F47C4F20207B942A6
:102A10002ADC40F21047C4F20207B94241D040F22A
:102A2000284739E09F27C4F20207B94225DC702706
:102A3000C4F20207B94234D088272DE040F29F4704
:102A4000C4F20207B9421FDC40F27047C4F2020729
:102A5000B94226D040F288471EE04027C4F2020760
:102A6000B9421ED0582717E040F24047C4F202078F
:102A7000B94216D040F258470EE0A027C4F2020730
:102A8000B9420ED0B82707E040F2A047C4F20207CF
:102A9000B94206D040F2B847C4F20207B94240F04A
:102AA00085810F68BF0704D5AB60436D43F0040315
:102AB0004365102303FA02F232427AD051454FF0B7
:102AC000080310DC6F27C4F20207B9421CDC3F2761
:102AD000C4F20207B94232DC1027C4F20207B9423D
:102AE00051D028274AE049451ADC40F23F47C4F25A
:102AF0000207B9422ADC40F21047C4F20207B94289
:102B000041D040F2284739E09F27C4F20207B9427A
:102B100025DC7027C4F20207B94234D088272DE0A3
:102B200040F29F47C4F20207B9421FDC40F27047EF
:102B3000C4F20207B94226D040F288471EE040277F
:102B4000C4F20207B9421ED0582717E040F24047AE
:102B5000C4F20207B94216D040F258470EE0A0274F
:102B6000C4F20207B9420ED0B82707E040F2A047EE
:102B7000C4F20207B94206D040F2B847C4F20207D5
:102B8000B94218BF04230F681F4212D0AA600A6816
:102B900052030A6806D4D20506D40A6822F0080255
:102BA0000A6001E011034ED4016C11B1044688475C
:102BB0002046C16D01F01F02202101FA02F33342C9
:102BC00000F0A88001681027514510DC6F26C4F280
:102BD0000206B1421CDC3F26C4F20206B14236DCDA
:102BE0001026C4F20206B14255D028264EE04945CF
:102BF0001ADC40F23F46C4F20206B1422EDC40F23B
:102C00001046C4F20206B14245D040F228463DE0EB
:102C10009F26C4F20206B14229DC7026C4F20206E5
:102C2000B14238D0882631E040F29F46C4F2020615
:102C3000B14223DC40F27046C4F20206B1422AD00F
:102C400040F2884622E0816C0029AFD1B1E74026EE
:102C5000C4F20206B1421ED0582617E040F24046A8
:102C6000C4F20206B14216D040F258460EE0A02649
:102C7000C4F20206B1420ED0B82607E040F2A046E8
:102C8000C4F20206B14206D040F2B846C4F20206CF
:102C9000B14218BF02270E683E423BD0AB6090F8AD
:102CA0003530042B0B681CD123F016030B604B69E5
:102CB00023F080034B61036C0BB9836C1BB10B6871
:102CC00023F008030B603F219140A960012180F8A7
:102CD0003510016D00294FF0000280F8342056D1E4
:102CE00059E05A030A680CD4D2050ED40A6822F0BF
:102CF00010020A60012180F83510002180F834109C
:102D000003E0110301D4416C00E0C16B11B1044632
:102D100088472046416D00293DD0416DC90734D018
:102D2000042180F8351001684FEA98220B6823F0DF
:102D300001030B60019B0133019393421AD80B6886
:102D4000DB0717D0019B01330193934212D80B6824
:102D5000DB070FD0019B0133019393420AD80B6824
:102D6000DB0707D0019B01330193934202D80B6824
:102D7000DB07DFD10968C9074FF0030108BF012154
:102D800080F83510002180F83410C16C19B102B000
:102D9000BDE8F047084702B0BDE8F087D90301D489
:102DA000416CF3E7C16BF1E70B6813E60B6880E653
:102DB0002DE9F041044600F02BFCECB140F26F48E5
:102DC00005462068C4F20208404518DC9F21C4F281
:102DD000020188422EDC5721C4F20201884254DCF1
:102DE0001021C4F2020188427ED02821C4F20201DF
:102DF000884279D0402172E00120BDE8F08145F29F
:102E00002F41C5F60201884227DC40F2B741C4F2E7
:102E10000201884245DC40F27041C4F2020188425E
:102E200062D040F28841C4F2020188425CD040F294
:102E3000A04154E040F22741C4F20201884240DC44
:102E4000A021C4F2020188424ED0B821C4F202018E
:102E5000884249D040F2104141E045F26B41C5F64D
:102E60000201884200F3C78045F23041C5F60201F5
:102E7000884200F0D28045F24441C5F60201884202
:102E800000F0CB8045F25841C3E05821C4F2020162
:102E9000884229D07021C4F20201884224D08821BE
:102EA0001DE040F2B841C4F2020188421CD045F254
:102EB0000841C5F60201884200F0AF8045F21C418E
:102EC000A7E040F22841C4F2020188420CD040F24F
:102ED0004041C4F20201884206D040F25841C4F297
:102EE0000201884240F0D580022184F8351000218B
:102EF00084F83410016821F0010101602068016844
:102F0000C9070CD000F084FB401B0628F6D3202014
:102F10006065032084F835000120BDE8F08148F2A7
:102F20003F0204F108060168CFF61062114065699E
:102F30004CCE1143A2691943E3693143266A0D431C
:102F4000616A2B43042943EA060343EA020303D1DF
:102F5000D4E90B652E4333436568A5F12906292E74
:102F600000F21382DFE816F02A002A002A002A0065
:102F70002A002A001102110211021102110211028B
:102F800011021102110211021102110211021102A9
:102F9000110211022A002A002A002A00110211023D
:102FA000110211022A002A0011021102110211025B
:102FB000110211022A002A002A002A0043F4801379
:102FC00003600429436923F0070341EA030140F049
:102FD0007B80D4E90A53002B41EA050174D0B2F595
:102FE000005F58D0002A62D1022D63D0012D58D045
:102FF000002D5FD068E045F26C41C5F602018842C1
:103000000BD045F28041C5F60201884205D045F259
:103010009441C5F6020188423BD104F1080E022119
:1030200084F83510002184F834100168A3699EE803
:103030000450A2F18005E769B5FA85F566696D0966
:10304000402A4FEA853543EA07026FF3101142EA3E
:10305000060208BF102541EADC0142EA0E02236A9B
:10306000294341EAD20141EA131140F80819C0B2DC
:10307000CD2148433C2101EA9020E0652046FDF740
:103080003BFCE16D012201F01F0102FA01F14160F8
:1030900025E040203CE7032D16D8DFE805F00E0BB5
:1030A0000E02A3F1C072B2FA82F2520904E0032DBB
:1030B00003D309D1C3F3006232B14020606501201F
:1030C00084F83500BDE8F08141612046FDF714FC2D
:1030D000E16D3F2201F01F0102FA01F181602068D9
:1030E000404519DC9F21C4F20201884231DC57219E
:1030F000C4F20201884256DC1021C4F20201884267
:1031000000F092802821C4F20201884200F08C80F5
:103110004021C4F2020184E045F22F41C5F60201CC
:1031200088422BDC40F2B741C4F20201884248DCFD
:1031300040F27041C4F20201884275D040F28841E9
:10314000C4F2020188426FD040F2A041C4F20201F1
:1031500067E040F22741C4F20201884240DCA0212E
:10316000C4F2020188425FD0B821C4F20201884251
:103170005AD040F21041C4F2020152E045F26B41D4
:10318000C5F6020188423CDC45F23041C5F6020139
:10319000884249D045F24441C5F60201884243D0F5
:1031A00045F258413BE05821C4F2020188423BD02D
:1031B0007021C4F20201884236D08821C4F2020193
:1031C0002FE040F2B841C4F2020188422CD045F20F
:1031D0000841C5F60201884226D045F21C411EE096
:1031E00040F22841C4F2020188421DD040F2404121
:1031F000C4F20201884217D040F25841C4F20201E1
:103200000FE045F26C41C5F6020188420CD045F250
:103210009441C5F60201884206D045F28041C5F6C8
:103220000201884240F0D98045F2574C45F6FC0E29
:10323000C5F6020CC5F6020E60450EDC45F22F41C4
:10324000C5F60201884217DC45F20841C5F60201C5
:10325000884226D045F21C411FE045F27F41C5F669
:103260000201884211DC45F25841C5F6020188424C
:1032700017D045F26C4110E045F23041C5F602012D
:1032800088420ED045F2444107E045F29441C5F62C
:103290000201884205D045F28041C5F6020188420C
:1032A00044D100F0FC014CF6CD420839CCF6CC42BA
:1032B000A1FB0212AEF1FC05AEF17C061309A26877
:1032C00003F01F01802A4FF0010205EB83052566FC
:1032D00002FA01F26666A26604D1002060602860EE
:1032E00072601CE06368D9B25F1E072F29607260AC
:1032F00015D84E1E082E17D260450EF1440235DC5B
:1033000045F22F41C5F60201884245DC45F20841ED
:10331000C5F60201884254D045F21C414DE0002020
:103320006067C4E91B0058E0E06E51E000F0F8016E
:103330004AF6AB221039CAF6AA22A1FB021240F2C9
:103340000F43C4F2020308251109984203F1AA06AB
:103350000B4688BF05EB121340F60005B042C4F2DD
:10336000020505F1800628BF0B46A8E745F27F411C
:10337000C5F60201884218DC45F25841C5F6020143
:1033800088421ED045F26C4117E025F00307742FE8
:1033900008BF43F4801313E645F23041C5F602013D
:1033A00088420ED045F2444107E045F28041C5F61F
:1033B0000201884205D045F29441C5F602018842D7
:1033C00012D10EEB83000121E066B14022676167F4
:1033D00000210160D4E91C014160002060650121E9
:1033E00084F83510BDE8F08140F60000C4F2020018
:1033F00000F1FC0E00F5A072E3E700000000000001
:10340000B0B5044600F004F940F230110546C2F2AE
:103410000041621C097818BF0C4400BF00F0F8F8A6
:10342000401BA042FAD3B0BDB0F5805F18BF704713
:1034300042F214200121C2F20040017070470000E6
:103440008821C5F600010A68024208BF704708607B
:10345000FFF7EABF000000002DE9F04F83B00F68CE
:10346000002F00F0C88000F1264642F2004506F128
:10347000FF76C5F602050A22A8424FEAB62540F2B9
:10348000040C08BF092200F120030093082DC5F6A3
:10349000000C38BF4FEAB622002400264FF0000887
:1034A00001920AE008F101080F6837FA08F206F104
:1034B000020604F1040400F09E80012202FA08FED4
:1034C00017EA0E09EED0D1F804B003220BF003077F
:1034D000B2407D1E6FEA020A012D11D88268CD68C4
:1034E00002EA0A02B5402A438260CBF30015426823
:1034F00022EA0E0205FA08F52A43426004E000BF02
:10350000032F01D103271FE0C2688D6802EA0A0277
:10351000B540022F42EA0502C26015D16FF00302E6
:1035200004F01C0502EA580B009A0F2352F80BE036
:10353000AB400F692EEA0303AF403B4342F80B3028
:10354000D1F804B00BF00307026807FA06F302EAA9
:103550000A021BF4403F42EA03020260A2D044F296
:10356000F44340F2084EC5F60203C5F6000E0F25DF
:103570001A6842F002021A601A6802F0020202920D
:1035800028F00302029B04F00C0352F80E709D40D9
:10359000AF43019D05FA03F33B4342F80E304FF071
:1035A000B04EDEF800204B6842EA0907DD0258BF42
:1035B00022EA09079D02CEF80070DCF8002042EAFA
:1035C000090758BF22EA09079D03CCF80070DCF810
:1035D000802042EA090758BF22EA0907DB03CCF83A
:1035E0008070DCF87C2042EA090758BF22EA09070C
:1035F000CCF87C7056E703B0BDE8F08F0000000007
:10360000002A08BF09048161704700000000000023
:1036100042F21C20C2F20040006870470000000027
:1036200040F2301042F21C21C2F20040C2F20041CE
:1036300000780A681044086070470000000000002D
:1036400080B5032000F0B0F801F0E2FE44F218412A
:103650004AF6DC53C5F60201C0F600030A68C2F35D
:1036600003229A5C096801F00F0102F01F02595C05
:10367000D04040F22C02C2F2004201F01F0120FAB9
:1036800001F1116040F22801C2F2004108600F20F0
:1036900000F00AF800281CBF012080BD00F030F8BF
:1036A000002080BD0000000040F23011C2F2004155
:1036B000097819B310B5044640F22800C2F2004060
:1036C0004FF47A72B2FBF1F10068B0FBF1F002F056
:1036D000AFFD0F2C01464FF001000ED8002918BF96
:1036E00010BD4FF0FF300022214600F02DF840F2CF
:1036F00034110020C2F200410C6010BD012070475F
:1037000081B044F2F440C5F60200016841F00201C4
:103710000160006800F002000090009801B070475E
:10372000002848BF704700F01F01012202FA01F192
:103730004EF20012C0F34A10CEF2000242F82010FE
:10374000704700000000000070B54EF60C5C4FF0B2
:10375000FF36CEF2000C00F1604505F56445DCF85B
:103760000030C3F3022E8EF00703042B28BF04237E
:10377000BEF1030406FA03F321EA030100F00F038C
:1037800038BF0024043B0028634406FA04F048BF15
:1037900003F10C05A14022EA000008430001287053
:1037A00070BD0000000000004EF60C514FF6FF0304
:1037B000CEF200010A681A4060F30A2242F08060EB
:1037C00040F0FD700860704701680122C0F80025D4
:1037D000002280F8F424886940F000608861486D18
:1037E00040F08052002042F003024A65704700001A
:1037F000704700000000000002680020516270471E
:103800002DE9F043D0F80080D8F82430A9B1D8F8D9
:103810002870B1F1010C03EB174351D05FFA8CF122
:103820000C46012998BF0124042908F5827104F08F
:10383000030E09D20027002429E0002043EA0241B8
:10384000C8F82810BDE8F08304F0FC0908F1F4067C
:10385000002400BF56F8107F44F00100C0B244F0CD
:103860000305EDB203EB174344F0020751F82000C3
:10387000FFB2043403EB104051F8273051F82550C3
:10388000E7B200EB13404F4500EB1543E2D1BEF128
:10389000000F15D051F82700BEF1010F03EB1043C4
:1038A0000ED0601CBEF1020FC0B251F8200003EB35
:1038B000104305D0A01CC0B251F8200003EB104308
:1038C00008EB8C0043EA0241C0F804110020BDE877
:1038D000F083000000000000D0F8080504F07CBC74
:1038E00001EBC10200EB8202D0F80805926C04F0F3
:1038F000E3BB00000000000001EBC10200EB82020C
:10390000D0F80805D2F8882204F02EBC0000000090
:10391000D0F8080504F064BC10B501F00F0E0A469B
:103920004FFA82FCD2090EEBCE01BCF1000F00EB86
:10393000810303F51F7148BF03F13C0190F8BC34CB
:103940004A70012B81F800E001D1022010BD012254
:1039500080F8BC2402680446104605F0FDF90020FA
:1039600084F8BC0410BD0000B0B501F00F0243683C
:10397000934201D20120B0BD4CB202EBC2038C468F
:10398000002C00EB830303F51F714FEADC1448BFE2
:1039900003F13C0190F8BC344C700024012B8C7076
:1039A0000A7001D10220B0BD012280F8BC24026857
:1039B0000546104605F0ACFC204685F8BC44B0BD79
:1039C00001F00F0101EBC10100EB8100D0F8900282
:1039D000704700000000000010B54FFA81FCBCF1F8
:1039E000000F01F00F0C0CEBCC0122D400EB810E88
:1039F00000218EF87D120EF51F718EF87CC2CEF874
:103A000084228EF88032022B01D100224A7190F874
:103A1000BC24012A01D1022010BD012280F8BC245F
:103A200002680446104605F047F8002084F8BC04FC
:103A300010BD00EB81014FF0010E01F83CCF81F881
:103A400001E08A600B71A1F81AC0022BDDD0DEE71D
:103A500080B501F00F0C0CEBCC0100EB810E0021C6
:103A6000CEE9A331C3688EF87D120EF51F71CEF832
:103A70008822012B8EF87CC208BFCA61DAB20068C6
:103A800005F08EFC002080BDB0B501F00F04426847
:103A900094424FF001022CD84FFA81FC01EBC10394
:103AA00004EBC405BCF1000F00EB830303F51F73A7
:103AB00000EB850548BF05F13C0390F8BC54C909EB
:103AC0005970012D9A701C7001D10220B0BD0121E6
:103AD00080F8BC1405460068194605F041FC2CB975
:103AE000297B286805F2C44205F0E2FB002285F834
:103AF000BC241046B0BD000080B501F00F0CD0F81A
:103B00000CE0BEF1010F0CEBCC0100EB810101F8E0
:103B10003CCF4FF0000CC1E90323C1F814C04FF0B3
:103B200001034B7008BFCA615FFA8EF2006805F0AE
:103B300037FC002080BD00002DE9F04F87B00568FC
:103B40008246284605F034FE10B107B0BDE8F08F7C
:103B5000DAF8000005F05CFE0028F6D0D5F8080879
:103B6000C0F30D20CAF8FC04DAF8000005F050FE9E
:103B70008007DAF8000003D5416901F002014161D4
:103B800005F50061059105F043FEC006DAF8000076
:103B9000069534D5816921F0100181612C6A04F009
:103BA0000F0000EBC001C4F343400AEB810106287B
:103BB00001F51F7511D002281AD147F6F07014EAEA
:103BC000000615D03409E9680698224605F024FE5F
:103BD000E86800EB1610E86007E00AF2C44108222A
:103BE000069805F019FEC4F30A1468692044686158
:103BF000DAF80000816941F010018161069D05F04D
:103C000007FE000340F1F880DAF8000005F0DCFD63
:103C1000002800F0F18006464FF4306800244FF091
:103C2000000B0AF2C440049009E000BF0BF1010B45
:103C3000760808F1200804F1240400F0DD80F00784
:103C4000F4D05FFA8BF9DAF80000494605F0D8FDA8
:103C50000746C0075FD005EB080001218160DAF854
:103C6000000008EB0001036C8A68DAF80C50012DA3
:103C700025D1150732D4950600F1B68043F20B0525
:103C8000C4F65475AB42069D02D312F400422FD104
:103C90000AEB0402D2F89C3209696FF3DF41A3EB0F
:103CA0000101C2F8901294BBD2F88C32002B00F0C4
:103CB000A180D2F888020844C2F8880227E043F2C3
:103CC0000B05C4F65475FF35AB4217D11004069DA1
:103CD0000ED490061BD52020886018E043F20B001C
:103CE000069DC4F65470834215D312F4004012D0DE
:103CF0004FF40040886038070FD43DE0069D34B98A
:103D0000DAF88C1219B90021049A05F0D1FA50465C
:103D10004946FFF7F1FD38072ED505EB08000821CD
:103D2000816043F20B01DAF80000C4F65471056CAF
:103D300040448D4281680AD311F4004107D04FF40A
:103D400000418160504600F0FBFC069D09E05046B2
:103D500000F0F6FC43F20B00C4F654708542069D59
:103D60000AD3DAF80C00012806D1DAF800000121A4
:103D7000049A05F09DFA00BFF80607D4B8070BD4E3
:103D8000B80624D4B8047FF551AF27E005EB08004E
:103D900010218160B807F3D56869000604D505993C
:103DA000486840F4806048600AEB040090F87F1295
:103DB000012906D1002180F87F125046494600F0C3
:103DC0005BFB05EB080002218160B806DAD505EB44
:103DD000080020218160B8047FF528AF05EB0800BA
:103DE0004FF40051816021E720208860069D38074C
:103DF00093D4C1E7012187E7DAF8000005F008FD58
:103E0000400340F1E080DAF8000005F0D5FC00281E
:103E100000F0D9800646069800F5106900250AF1E1
:103E20003C0004900AF2C4400290CDF80C9004E0EB
:103E3000760805F1010500F0C680F007F8D0EFB272
:103E4000DAF80000394605F0C7FC0446C0070BD17C
:103E5000200735D4E00639D460063DD4A00741D40C
:103E60002006E5D558E000BF059B05F00F004FF098
:103E7000010C09EB45120CFA00F0596B21EA000025
:103E80005863C2F808C0DAF80C00012812D105EB1B
:103E9000C500049901EB8000D0E902121144C16011
:103EA00045B9006930B9DAF800000121029A05F03D
:103EB000FFF900BF50463946FFF712FD2007C9D56C
:103EC00009EB451008218160E006C5D509EB4510D6
:103ED000102181606006C1D509EB45104021816049
:103EE000A007BDD50698294605F0F6FB05EBC500F1
:103EF000049901EB800010F8031F012905D100216E
:103F000001705046394600F0B3FA09EB4510022122
:103F1000816020067FF58CAF05EBC500049901EBAD
:103F20008008D8E904108142FFF482AFDAF800403B
:103F30000A1AD8F808309A4238BF134604EB4512E3
:103F400003F1030CD2F818399BB2B3EB9C0F2BD3BF
:103F500002F51069D8F81010814223D9081A9AF88E
:103F60000C20D8E902B1584538BF8346009220465C
:103F70001FFA8BF33A4605F077FDD8F80C00D8F815
:103F800014105844C8F80C0001EB0B00C8F81400DA
:103F90000BF10301D9F8182092B2B2EB910FD9D2EC
:103FA000D8F81010DDF80C9081423FF641AF05F0D3
:103FB0000F00012101FA00F0D4F8341821EA0000C2
:103FC000C4F8340834E7DAF8000005F021FC0028D2
:103FD00003D4DAF80000069C1AE00599486820F03E
:103FE000010048609AF8F404012807D100208AF8FB
:103FF000F40400215046FFF7FBFB02E0504600F0BE
:104000007FFBDAF80000069C416901F00041416144
:1040100005F0FEFB000502D4DAF800000CE005987C
:104020008068C00702D0504600F0B2FBDAF800000A
:10403000416901F40061416105F0EAFB000117D517
:10404000DAF80000416901F0006141619AF8F41466
:1040500019B1504600F09CFB0AE001218AF8F414E3
:10406000406DC0F38300CAF8F8045046FFF7C0FB68
:10407000DAF8000005F0CCFBC00402D4DAF8000046
:10408000FAE00599486820F001004860DAF800007D
:10409000102105F021FBDAF80400002800F0C280AE
:1040A000042800F0030C01D200216DE020F0030E83
:1040B00004F536634FF6A0584FF6C0554FF6E0545E
:1040C0004FF6006000214FF67F37CFF6FF78CFF62E
:1040D000FF75CFF6FF74CFF6FF7000BFA3F518721F
:1040E000A3F51076043197608E4553F8082022F42A
:1040F000001243F8082043F8587C53F8602C22F44F
:10410000001243F8602C53F8602C42F0006243F830
:10411000602CB760A3F508765A5922F400125A5160
:1041200043F8387C53F8402C22F4001243F8402C1A
:1041300053F8402C42F0006243F8402CB760A3F5DE
:1041400000761A5922F400121A5143F8187C53F8D9
:10415000202C22F4001243F8202C53F8202C42F09B
:10416000006243F8202CB7601A5822F400121A504B
:104170009F601A6822F400121A601A6842F0006206
:104180001A6003F18003A9D1BCF1000F069849D051
:1041900000F5106200F5306002EB41174FF67F33F7
:1041A0004E01BCF1010FBB6000EB4115975927F49C
:1041B00000179751AB60875927F40017875187592B
:1041C00047F0006787512DD04F1CBCF1020F4FEA1A
:1041D000471502EB471600EB4717B360565926F414
:1041E00000165651BB60435923F400134351435901
:1041F00043F00063435115D002314FF67F364F0133
:1042000002EB411300EB41119E60D35923F40013DC
:10421000D3518E60C15921F40011C151C15941F0EF
:104220000061C151059E84210B224423F06940F0B6
:104230000110F061DAF83000002808BF142104BF33
:1042400042F22B021023DAF8000077583A437250FA
:10425000F1580AF2C44241F00B01F150316821F4E7
:10426000FE6131609AF80C1005F022F8DAF80000CF
:10427000416901F48051416105F0CAFA8004DAF81D
:1042800000001AD504F05CFCDAF8000005F080FAB2
:10429000CAF81000DAF8004001F092F89AF81020FD
:1042A0000146204605F058FB504600F011FADAF8B6
:1042B0000000416901F40051416105F0A9FA0007CD
:1042C00002D4DAF8000008E0504600F01DFADAF8EF
:1042D0000000416901F00801416105F099FA00060A
:1042E00029D50699886920F080008861DAF80400F1
:1042F000022820D30AF51F740AF13C05012640F27A
:10430000A32703E001362437864214D21AF8071097
:104310000129F7D106F00F00320600EBC00005EBD3
:10432000800158BF04EB8001DAF8000005F044F981
:10433000DAF80400E6E7DAF8000005F069FAC002EE
:1043400002D4DAF8000031E0DAF80400022827D3BA
:1043500006990AF13C0401F512650AF163064FF073
:104360000108012706E000BF01372035874206F12A
:10437000240615D229687278012AF5D1B1F1FF3FE0
:10438000F2DC07F00F0086F8008000EBC00004EBC1
:104390008001DAF8000005F00FF9DAF80400E3E72D
:1043A000DAF80000416901F48011416105F030FA4A
:1043B0008002069D02D4DAF8000034E0DAF8041036
:1043C00002292AD305F5326001390AF52972012341
:1043D00006E000BF013900F1200002F124021CD0E8
:1043E00007681678012EF5D1B7F1FF3FF2DCDAF855
:1043F000FC6407F4803706F00106B742EAD102F800
:10440000013CAF6947F08007AF616F693F06E1D4B7
:104410000599486840F400704860DAF80000416986
:1044200001F40011416105F0F3F9400002D4DAF81B
:10443000000008E05046FFF74FFADAF80000416943
:1044400001F08041416105F0E3F940077FF57DAB64
:10445000DAF800004468610704D55046FFF758FABF
:10446000DAF8000041682143416007B0BDE8F08FF1
:10447000D0F8080503F01CBFD0F8080503F030BFE2
:10448000002800F0C4802DE9F04F8BB0804605680D
:1044900090F8BD0428B9002088F8BC04404600F01C
:1044A000CFF8032088F8BD04E86BC00502D40020D3
:1044B000C8F80C00D8F8000004F0F2FED8F80000AC
:1044C0000A9008F1040ED8E908769EE82E58D8E93B
:1044D0000A9AD8E90C40CDE908400A988DE820589E
:1044E000CDE90476CDE9069A04F03AFB002840F0C5
:1044F0008780D8F800000021002505F0E5F9D8F8FC
:10450000041000295DD008F13C004FF0010C00229E
:10451000002300BF02EBC20200EB820700F822304A
:10452000DAB201337A83DAB287F801C091423D7181
:10453000BD60FD603D61EDD808F51F7000220025CB
:10454000002300BF05EBC50743F00105ECB200EB0B
:104550008706A14200F8273072703271B260F260B3
:1045600032612ED904EBC40700F8275043F002054E
:10457000ECB200EB8706A14272703271B260F26059
:1045800032611ED904EBC40700F8275043F003053D
:10459000ECB200EB8706A14272703271B260F26039
:1045A00032610ED904EBC407043300EB870600F830
:1045B0002750DDB2A94272703271B260F26032618E
:1045C000C0D8D8F808000A9008F11C0ED8F80020CE
:1045D000D8E90337D8E905659EE80058D8E90A9A72
:1045E000D8E90C40CDE9084002A8CDE9007680E882
:1045F000205810460A9ACDE9069A04F00DFC40B105
:10460000022088F8BD0401200BB0BDE8F08F012026
:104610007047002088F83800012088F8BD04D8F8D9
:104620002400012802D14046FFF7CEF8D8F8000058
:1046300004F0E2FB00200BB0BDE8F08F00000000AA
:1046400010B5C2B014A9044601F10800B021FBF76F
:1046500005FF00212068C4F20401884201D042B065
:1046600010BD01AC4821201DFBF7F8FE2020019071
:1046700001200790204600F053FF08B1FDF768FEC7
:10468000002015904FF4802014904FF44010359086
:1046900014A800F0C9F808B1FDF75AFE00F0B8F808
:1046A00044F2D8400022C5F60200016841F00071D2
:1046B00001600068002100F00070009000984D201B
:1046C000FFF742F84D20FFF72BF842B010BD000075
:1046D00010B50446006928B1022801D0FDF738FE64
:1046E000012100E00021D4F8080503F085FED4F88C
:1046F0000805BDE8104003F033BE000000000000D4
:10470000D0F8080503F05CBED0F8080503F064BEDD
:1047100090F8BC24012A01D10220704710B5012273
:1047200080F8BC2480F8381004460268104605F072
:10473000FFF8002084F8BC0410BD00000000000059
:10474000D0F8082500F2C441104603F06DBE000009
:1047500010B5044690F8BC04012801D1022010BD18
:104760002068012184F8BC14C16BC90506D4A16A74
:10477000012903D1816B41F48031816304F0A4FFEE
:10478000206804F029FB002084F8BC0410BD000060
:1047900010B50446D0F8080503F09EFE2068D0F856
:1047A000001E41F00101C0F8001E206A002808BF69
:1047B00010BD4EF61050CEF20000016841F0060127
:1047C000016010BD00000000B0B544F60C05C5F650
:1047D000020529684907296805D401F00701081A6C
:1047E00018BF0120B0BD21F0070108432860FEF783
:1047F0000FFF044655F8080C800407D4FEF708FFA5
:10480000001BB0F57A7FF5D90120B0BD0020B0BD06
:1048100044F60C00C5F60200016841F080710160A9
:1048200070470000000000002DE9F0470446C07802
:1048300044F22C480007C5F6020824D5606E4FEA02
:104840003051032936D8DFE801F002090F17D8F8F4
:10485000001041F40031C8F800100DE004F1080028
:10486000022102F041FC04E004F12800022102F0E0
:10487000CBFC064640B9606ED8F8241021F44011F4
:104880000843C8F8240000266078C00701D13546E7
:1048900029E0A06D04283CD83546DFE800F003137A
:1048A0000D191900D8F80000354640F40030C8F85A
:1048B00000000DE00126E7E704F12800002102F0E6
:1048C000A3FC04E004F10800002102F00DFC054601
:1048D0002F464DB9D8F82400A16D20F0070000251F
:1048E0000843C8F824003746607840072FD5D4F82D
:1048F000A4004FEA7050052814D8DFE800F0031632
:104900000D1C1C1CD8F8000040F40030C8F8000052
:1049100011E001250127E7E704F12800002102F05A
:1049200073FC07E00125012612E004F108000021D4
:1049300002F0DAFB05462E4655B9D8F82C00D4F81B
:10494000A41020F4600000250843C8F82C003E465F
:10495000607800072CD5D4F8A8004FEA306005280D
:1049600011D8DFE800F003130A191919D8F800006C
:1049700040F40030C8F800000EE004F128000021E7
:1049800002F042FC07E00125012712E004F10800D3
:10499000002102F0A9FB05462F4655B9D8F82C0096
:1049A000D4F8A81020F0E06000250843C8F82C00D7
:1049B0003746E078800720D5E06C4FEA30100328B6
:1049C00030D8DFE800F00F02090FD8F8000040F4FB
:1049D0000030C8F8000005E004F10800022102F0F0
:1049E00083FB05462E464DB9D8F82000E16C20F037
:1049F000300000250843C8F820003E466078C00615
:104A00002AD5E06D4FEA303004283AD8DFE800F0CC
:104A100003130D191900D8F8000040F40030C8F84D
:104A200000000EE001250126E8E704F1280000213E
:104A300002F0EAFB04E004F10800002102F054FB5C
:104A400005462F464DB9D8F82400E16D20F4E0402A
:104A500000250843C8F8240037466078800624D52E
:104A6000206E4FEA3040052800F24B83DFE800F06B
:104A700012030C12121204F10800012102F034FB9F
:104A800007E001250127E8E704F12800012102F0F1
:104A9000BBFB05462E464DB9D8F82400216E20F404
:104AA000E02000250843C8F824003E466078400610
:104AB00023D5D4F8AC004FEA3070052800F22583E6
:104AC000DFE800F00F03090F0F0F04F108000121C8
:104AD00002F00AFB04E004F12800012102F094FB3B
:104AE00005462F4655B9D8F82C00D4F8AC1020F064
:104AF000E04000250843C8F82C00374660780006DF
:104B00001FD5E06E90B1B0F1005F09D0B0F1805FC9
:104B100029D1D8F8000040F40030C8F8000005E0C2
:104B200004F10800012102F0DFFA05462E464DB9D6
:104B3000D8F82400E16E20F0405000250843C8F862
:104B400024003E46E078C00721D0A06C03284FD84F
:104B5000DFE800F012020C12D8F8000040F4003038
:104B6000C8F8000008E001250126EBE704F1080081
:104B7000022102F0B9FA0546A9464DB9D8F820003D
:104B8000A16C20F0030000250843C8F82000B146BE
:104B9000A078400601D44F4616E0D8F8D40340F47C
:104BA0008070C8F8D403FEF733FD0646D8F8D40366
:104BB000C00507D4FEF72CFD801B6428F6D9032519
:104BC000032701E02F46BDB12078C00756D0A06F63
:104BD0004FEAF000052800F29B82DFE800F0440372
:104BE0003E44444404F10800012102F07DFA39E01A
:104BF00001254FF00109CBE7D8F84410D4F8B000F4
:104C0000414011F4407F11D0D8F84410D8F8442026
:104C100042F48032C8F84420D8F8442021F440718E
:104C200022F48032C8F84420C8F84410B0F5807FE0
:104C300040F08282FEF7ECFC064641F2883A0325FA
:104C4000032700BFD8F84400800700F17382FEF705
:104C5000DFFC801B5045F5D9B6E704F1280001219F
:104C600002F0D2FA05462E464DB9D8F82800A16FB9
:104C700020F0380000250843C8F828003E46207878
:104C800080071FD5606F052800F24582DFE800F03D
:104C90000F03090F0F0F04F10800012102F024FA9D
:104CA00004E004F12800012102F0AEFA05462F4687
:104CB0004DB9D8F82800616F20F00700002508439F
:104CC000C8F8280037462078400721D5D4F890004E
:104CD000052800F22382DFE800F00F03090F0F0F11
:104CE00004F10800012102F0FFF904E004F12800BA
:104CF000012102F089FA05462E4655B9D8F82C0054
:104D0000D4F8901020F0070000250843C8F82C00C4
:104D10003E462078800623D5D4F88C004FEA3070C8
:104D2000052800F2FE81DFE800F00F03090F0F0FE6
:104D300004F10800002102F0D7F904E004F1280092
:104D4000022102F061FA05462F4655B9D8F828002D
:104D5000D4F88C1020F0E04000250843C8F8280063
:104D600037462078400623D5D4F898004FEAB02083
:104D7000052800F2D981DFE800F00F03090F0F0FBB
:104D800004F10800002102F0AFF904E004F128006A
:104D9000022102F039FA05462E4655B9D8F82C0002
:104DA000D4F8981020F4E05000250843C8F82C00EF
:104DB0003E462078000623D5D4F89C004FEA703098
:104DC000052800F2B481DFE800F00F03090F0F0F90
:104DD00004F10800002102F087F904E004F1280042
:104DE000022102F011FA05462F4655B9D8F82C00D9
:104DF000D4F89C1020F4604000250843C8F82C002B
:104E000037462068010704D4C1061BD4000332D4FE
:104E100054E0D4F88000B0F5805F09D104F1280097
:104E2000022102F0F1F9002818BF0127D4F8800010
:104E3000D8F8281021F440510843C8F82800206809
:104E4000C106E3D5D4F89400B0F5807F09D104F110
:104E50002800022102F0D8F9002818BF0127D4F851
:104E60009400D8F82C1021F440710843C8F82C00A5
:104E70002068000322D5D4F8A000B0F5003F11D07F
:104E8000B0F5803F08D0002840F0308104F10800E0
:104E9000002102F029F904E004F12800022102F0C7
:104EA000B3F905462E4655B9D8F82C00D4F8A01011
:104EB00020F4403000250843C8F82C003E46A07876
:104EC000400724D5D4F88400B0F5401F13D0B0F5C6
:104ED000001F0AD0B0F5801F40F00B81D8F8000009
:104EE00040F40030C8F8000005E004F1280001217A
:104EF00002F08AF905462F4655B9D8F82800D4F8AB
:104F0000841020F4401000250843C8F828003746D4
:104F1000A078C00701D13E461FE0206DB0F5803F6C
:104F200007D0C0B9D8F8000040F40030C8F800003D
:104F300005E004F10800022102F0D6F805462E46ED
:104F40005DB9D8F82000216D20F480300025084399
:104F5000C8F82000DFE7012501262168880003D476
:104F600060688A030CD44BE004F12800022102F0AF
:104F70004BF9002818BF0126D4E900108A033FD559
:104F8000E26F6FF0010303EB3223022B0BD34FEAE6
:104F9000322343B1012B40F0AF80D8F8003043F406
:104FA0000033C8F8003025B3CA022CD48A0234D4A6
:104FB0004A003CD4CA0F49D1090251D4C1075AD181
:104FC000810763D441076CD4010776D4C10600F190
:104FD0008080800607D504F12800022102F014F930
:104FE000002818BF0125002D18BF01252846BDE85F
:104FF000F087D8F8283023F440731A43C8F82820E3
:105000003546CA02D2D5D8F82420236F22F00042B8
:105010001A43C8F824208A02CAD5D8F82420A36EDF
:1050200022F080721A43C8F824204A00C2D558F8EA
:105030001C2C22F4004248F81C2CD4F8B42058F858
:105040001C3C1A4348F81C2CCA0FB5D0D8F82020B5
:10505000636D22F040521A43C8F820200902ADD5F2
:10506000D8F82810D4F8882021F440011143C8F85A
:105070002810C107A4D004F10800002102F034F880
:10508000002818BF0546606881079BD504F1080019
:10509000012102F029F8002818BF05466068410781
:1050A00092D504F10800022102F01EF8002818BF72
:1050B0000546606801077FF589AF04F128000021EB
:1050C00002F0A2F8002818BF05466068C1067FF507
:1050D00080AF04F12800012102F096F8002818BFE3
:1050E0000546606880063FF576AF7CE7012501261E
:1050F000E5E6012501270BE70125CA027FF556AF3A
:1051000081E701250126FFF7D1BC01250127F5E440
:1051100001250126B3E501250127D4E50125012656
:10512000F7E5012501271CE60125012641E60125B9
:10513000012766E6D4F8B0004FF6CF7358F81C2C60
:10514000C0F2FF0300F4407122F47C5203EA101312
:105150006FF31F30B1F5407F08BF1A43002548F8B0
:105160001C2CD8F844100843C8F8440013E500008C
:105170002DE9F04381B0002800F01C8142F20009C3
:105180000446C5F20029D9F8000000F00F0088425B
:105190000DD2D9F8000020F00F000843C9F8000034
:1051A000D9F8000000F00F00884240F00381206829
:1051B00044F218464207C5F602060AD5226933684A
:1051C00003F070039A4204D9336823F070031A4342
:1051D000326002070AD56269736803F070039A426D
:1051E00004D9736823F070031A437260C2060AD5AB
:1051F000A269736803F4E0639A4204D9736823F4E4
:10520000E0631A43726082060AD5E269B36803F06C
:1052100070039A4204D9B36823F070031A43B26052
:1052200010F002020AD0E368376807F00F07BB42AC
:1052300004D9376827F00F073B433360C3073CD0DE
:10524000306820F47062D4E901031A433260012807
:1052500056F8182C09D0032804D0022808D192034C
:1052600009D4A7E0920106D4A4E0D20503D4A1E0BA
:10527000520740F19F80884656F8081C21F007012C
:10528000084346F8080CFEF7C3F9054641F2883793
:1052900056F8080C616800F03800B0EBC10F08D078
:1052A000FEF7B6F9401BB842F2D9032001B0BDE8C1
:1052B000F0832068414600F0020252B1E268336890
:1052C00003F00F039A4204D2336823F00F031A430A
:1052D0003260D9F8002002F00F028A420CD9D9F8C6
:1052E000002022F00F020A43C9F80020D9F800205C
:1052F00002F00F028A425DD141070AD52169326866
:1053000002F07002914204D2326822F0700211431E
:10531000316001070AD56169726802F0700291423A
:1053200004D2726822F0700211437160C1060AD57E
:10533000A169726802F4E062914204D2726822F4B8
:10534000E0621143716080060AD5E069B16801F03E
:105350007001884204D2B16821F070010843B06046
:1053600000F056F831684AF6DC52C0F60002C1F38C
:105370000321515C336803F00F0301F01F01D25C7D
:1053800020FA01F102F01F0040F22C02C2F20042AA
:1053900021FA00F0106040F2341040F22802C2F20C
:1053A0000040C2F200420068116001B0BDE8F04365
:1053B000FEF77AB9012001B0BDE8F08300000000DB
:1053C00080B500F025F844F218414AF6DC53C5F6E2
:1053D0000201C0F600030A68C2F303229A5C09685E
:1053E00001F00F0102F01F02595C20FA02F201F0F5
:1053F0001F0040F22C01C2F2004122FA00F00860C6
:1054000040F22801C2F200410A6080BD00000000A5
:1054100044F20041C5F602010869C0F3C200032846
:1054200014D002280DD080BB0868800649F2000025
:10543000C0F2D03058BF70470968C1F3C101C840FD
:10544000704743F20060C0F26E1070478A6A886A43
:10545000C0F3051CC86ABCF1000F4B6B1AD000F0FA
:105460000100404200EAD3006FF35F3000EE100A03
:1054700002F003000228B8EE400A0DD078B908689F
:1054800080060FD49FED231A19E040F60010C0F2F9
:105490003D007047002070479FED1D1A0FE09FED03
:1054A0001B1A0CE0086849F20002C0F2D032C0F3C7
:1054B000C10022FA00F001EE100AB8EE411A086BA2
:1054C0009FED153A6FF35F2002EE100A086BC0F3F0
:1054D0004620B8EE422A013000EE032A00EE10CA40
:1054E000B7EE003AB8EE400A81EE000A32EE031A37
:1054F00020EE010A01EE100AB8EE411A80EE010A10
:10550000BCEEC00A10EE100A704700BF0024744AB7
:10551000001BB74B0024744C000000390000000051
:1055200068B3F0B581B00446007844F20046C00785
:10553000C5F6020625D12078800768D5306910F0BD
:105540003801B06A40D0182908BF5FEA80703BD0AC
:10555000E0683168002800F03B8121F01901084320
:105560003060FEF755F805463068400748D4FEF72E
:105570004FF8401B0228F7D9032001B0F0BD0120ED
:105580007047306900F03801B06A102905D0182939
:105590000AD100F00300022806D130688003CAD582
:1055A00060680028C7D1BEE061683068002900F05B
:1055B0004881B1F5A02F00F03D81B1F5803F40F06A
:1055C000578140F4803059E130684007E06802D5E7
:1055D000002800F0A880316821F0190108433060EC
:1055E000FEF716F8054600BF3068400708D4FEF7FE
:1055F0000FF8401B02284FF00300F5D901B0F0BDB1
:105600007068216920F0FE4040EA016070602078F7
:10561000C0061AD5306900F03801B06A082907D0F1
:10562000182940F0978000F00300012840F0928094
:105630003068C00502D5E069802874D1F068216A1D
:1056400020F07C5040EA0160F0602078000756D4DA
:10565000207880066AD42078400700F19380656A3C
:10566000002D49D0306900F03800182840F028811A
:10567000012DB16A306B56D001F00302A36A9A4241
:1056800051D1C1F30511E26A91424CD10146226B1E
:105690006FF35F21013A914245D1C0F34622616B1D
:1056A00001398A423FD1C0F30642A16B01398A42D7
:1056B00039D1C0F30660E16B0139884233D1706B98
:1056C000A16CC0F3CC00814216D0F06A20F001003A
:1056D000F062FDF79DFF0546FDF79AFFA842FBD05B
:1056E000706B4FF6F871A26C884340EAC200706399
:1056F000F06A40F00100F062002001B0F0BD606986
:105700000028706F52D040F001007067FDF780FFF5
:10571000054600BF706F80079AD4FDF779FF401BE4
:105720000228F7D9B7E0012001B0F0BDA069002838
:1057300030686DD040F480503060FDF769FF054659
:10574000306880043FF587AFFDF762FF401B0228F9
:10575000F6D9A0E0E0690028306800F09F8040F0B2
:1057600080003060FDF754FF054600BF3068C0057B
:105770003FF564AFFDF74CFF401B02284FF00300DC
:10578000F4D93BE7D6F8000440F48070C6F8000472
:10579000FDF73EFF054600BFD6F80004C00529D43A
:1057A000FDF736FF401B6428F6D974E020F00100B5
:1057B0007067FDF72DFF0546706F80077FF548AFD6
:1057C000FDF726FF401B02284FF00300F4D915E730
:1057D00021F001003060FDF71BFF054630684007EF
:1057E0007FF515AFFDF714FF401B02284FF00300B3
:1057F000F4D903E7A168306F002900F08A800529F9
:1058000000F08080012940F09C8040F001009EE083
:1058100020F480503060FDF7FBFE054630688004C0
:105820007FF519AFFDF7F4FE401B02284FF003008F
:10583000F4D9E3E640F480203060306840F48030F2
:105840001CE020F480303060306820F4802030602C
:10585000FDF7DEFE054600BF306880037FF56BAEC6
:10586000FDF7D6FE401B64284FF00300F4D9C5E6CF
:1058700020F480303060306820F480203060FDF704
:10588000C7FE0546306880033FF555AEFDF7C0FE04
:10589000401B6428F6D9032001B0F0BD20F0800041
:1058A0003060FDF7B5FE05463068C0057FF5CDAE2A
:1058B000FDF7AEFE401B02284FF00300F4D99DE631
:1058C000306820F080703060FDF7A2FE022D0546A2
:1058D0000CD100BF306880014CD5FDF799FE401B0C
:1058E00002284FF00300F5D988E600BF3068800138
:1058F0007FF502AFFDF78CFE401B02284FF003003E
:10590000F4D97BE640F004003067306F40F00100CE
:105910001DE020F001003067306F20F00400306798
:10592000FDF776FE054641F28837306F80077FF538
:1059300096AEFDF76DFE401BB8424FF00300F4D960
:105940005CE620F001003067306F20F00400306723
:10595000FDF75EFE054641F2883700BF306F8007D5
:105960003FF57DAEFDF754FE401BB8424FF00300FB
:10597000F4D943E604F12807B06A40F2F3318843D2
:105980008ECF0843591E40EA02104FF47E426FF357
:105990005F21B06202EB47204FF4FE0280B2E36B5E
:1059A0000844A16B02EB01414FF0FE4201F4FE01FD
:1059B00002EB0362084402F0FE4108443063F06ADF
:1059C0004FF6F87120F00100F062706BA26C884312
:1059D00040EAC2007063F06A216C20F00C000843BA
:1059E000F062F06A616C20F002000843F062F06A35
:1059F00040F48030F062F06A40F40030F062F06A07
:105A000040F48020F062F06A40F00100F0623068FB
:105A100040F080703060FDF7FBFD04463068800187
:105A20003FF56AAEFDF7F4FD001B02284FF00300BE
:105A3000F4D9E3E50000000070470000000000001A
:105A400070B501680B694E698A6890F88150340519
:105A50000AD513F0080407D08A6942F400628A610B
:105A6000BDE8704000F09CBA1E4006F06403042BB1
:105A700007D1416F04468847216F2046BDE870403A
:105A8000084706F04503012B08D1016F04468847FB
:105A900006F022012046022904D070BD06F026033C
:105AA000022B03D1416FBDE870400847330758D43B
:105AB00016F4587FF1D0710600F1A380B10500F112
:105AC000AE80F10500F1B980B1060AD50168D0F8C1
:105AD000843043F08003C0F884308B6943F02003A6
