:020000040800F2
:10000000182C00249903000841A40008B19C0008A2
:1000100039A400085109000891F40008000000000C
:1000200000000000000000000000000089AE000891
:10003000B91000080000000059A8000821AF00080E
:10004000B3030008B3030008B3030008B3030008B8
:10005000B3030008B3030008B3030008B3030008A8
:10006000B3030008B3030008B3030008310B000812
:10007000410B0008B3030008B3030008B3030008F2
:10008000B3030008B3030008B3030008B303000878
:10009000B3030008B3030008B3030008B303000868
:1000A000B3030008B3030008B3030008B303000858
:1000B000B3030008B3030008B3030008B303000848
:1000C000B3030008B3030008B3030008B303000838
:1000D00099AC0008B3030008B3030008B303000899
:1000E00029290008B303000800000000B30300083A
:1000F000B3030008B3030008B3030008B303000808
:10010000B3030008B3030008B3030008B3030008F7
:10011000B3030008B3030008B3030008B3030008E7
:10012000B3030008B3030008B3030008B3030008D7
:10013000B3030008B3030008B3030008B3030008C7
:1001400000000000000000000000000000000000AF
:10015000B3030008B3030008B3030008B3030008A7
:10016000B3030008B3030008B3030008B303000897
:10017000B3030008B9A40008B3030008000000009E
:10018000B3030008B3030008B3030008B303000877
:10019000B3030008B3030008B3030008B303000867
:1001A000B3030008B3030008B30300080000000015
:1001B000B3030008B3030008B3030008B303000847
:1001C000B3030008B30300080000000000000000B3
:1001D0000000000000000000B30300080000000061
:1001E000000000000000000000000000000000000F
:1001F0000000000000000000B3030008B303000883
:10020000B3030008B303000800000000B3030008B4
:10021000B3030008B3030008B3030008B3030008E6
:10022000B303000800000000B30300080000000052
:10023000B3030008B303000800000000B303000884
:10024000B3030008B3030008B3030008B3030008B6
:10025000B3030008B3030008B3030008B3030008A6
:10026000B3030008B3030008B3030008B303000896
:10027000B3030008B3030008B30300080000000044
:10028000B3030008B3030008B3030008B303000876
:1002900000000000B3030008B303000800000000E2
:1002A00000000000B3030008B3030008B303000814
:1002B000B3030008B3030008B3030008B303000846
:1002C000B3030008B3030008B303000800F002F80A
:1002D00000F052F814A696E8000CB244B344DA4594
:1002E00001D100F049F8BAE80F000FA696E83000F7
:1002F000A5EB040504EB0607AAEB0704A7F1010729
:100300004FEA15154FEA3414A4F10104AC4201D3AD
:1003100000F032F813F0010F18BFFB1A43F001038D
:1003200000F001F8DBE71847A4050100C40501004F
:10033000103A24BF78C878C1FAD8520724BF30C811
:1003400030C144BF04680C60704700007047000073
:100350000023002400250026103A28BF78C1FBD8CE
:10036000520728BF30C148BF0B6070471FB510F05F
:10037000C1F91FBD10B510BD00F0C0F81146FFF760
:10038000F5FF0FF0A1FA00F0DEF803B4FFF7F2FF7B
:1003900003BC00F0E1F80000094880470948004725
:1003A000FEE7FEE7FEE7FEE7FEE7FEE7FEE7FEE725
:1003B000FEE7FEE704480549054A064B7047000082
:1003C000F9AF0008CD02000818220024182C0024E0
:1003D000182400241824002410B5203AC0F00B8003
:1003E000B1E81850A0E81850B1E81850A0E818502B
:1003F000203ABFF4F5AF5FEA027C24BFB1E81850A1
:10040000A0E8185044BF18C918C0BDE810405FEA02
:10041000827C24BF51F8043B40F8043B08BF70477E
:10042000D20728BF31F8023B48BF11F8012B28BF83
:1004300020F8023B48BF00F8012B70474FF0000244
:100440000429C0F0128010F0030C00F01B80CCF1E6
:10045000040CBCF1020F18BF00F8012BA8BF20F854
:10046000022BA1EB0C0100F00DB85FEAC17C24BFA8
:1004700000F8012B00F8012B48BF00F8012B704752
:100480004FF0000200B5134694469646203922BF2D
:10049000A0E80C50A0E80C50B1F12001BFF4F7AF78
:1004A000090728BFA0E80C5048BF0CC05DF804EB5A
:1004B000890028BF40F8042B08BF704748BF20F8C8
:1004C000022B11F0804F18BF00F8012B70477047C6
:1004D0007047704710B500F009F8006810BD10B5FE
:1004E000044600F003F8046010BD000000487047A7
:1004F0003001002400487047300100247546FFF7A2
:10050000F9FFAE4605006946534620F007008546D0
:1005100018B020B5FFF74EFFBDE820404FF00006B1
:100520004FF000074FF000084FF0000BAC46ACE86E
:10053000C009ACE8C009ACE8C009ACE8C00921F0CA
:1005400007018D46704710B50446AFF30080204682
:10055000BDE81040FFF719BF01491820ABBEFEE708
:10056000260002007047000080B540F60000C5F686
:1005700002000122114604F02FFD80BD00000000A2
:1005800080B540F60000C5F602000121002204F00B
:1005900023FD80BD00000000704700000000000047
:1005A00080B540F60000C5F602000821012204F0E3
:1005B00013FD80BD0000000080B540F60000C5F6C8
:1005C00002000821002204F007FD80BD00000000A9
:1005D000704700000000000080B582B0ADF8060052
:1005E000FFE7BDF80600411EADF8061028B1FFE791
:1005F0004FF47A7000F004F8F3E702B080BD000019
:1006000086B0ADF81600002004900390029001908F
:1006100000904EF21400CEF2000000680090BDF889
:100620001600C0EB0010400104904EF21800CEF20C
:10063000000000680390FFE74EF21800CEF20000C1
:10064000006802900298039988421ED0FFE7029842
:100650000399884207D2FFE703980299411A01984B
:100660000844019008E000980299401A0399014457
:10067000019808440190FFE70298039001980499BB
:10068000884201D3FFE701E0FFE7D5E706B07047F6
:1006900080B582B000208DF80700FFF77DFFFFF7DF
:1006A00097FF0EF0A5FF01469DF8070008438DF85F
:1006B00007000FF065F801469DF8070008438DF824
:1006C00007009DF8070002B080BD00000000000098
:1006D00080B588B0079006910592002000900490A4
:1006E0000390FFF74DFF922000F00AF9122003A9B2
:1006F0000191062200F0CCF8FFF736FF9DF80C00C0
:100700009DF80D1040EA0120ADF80A00BDF90A007D
:1007100000EE100AB8EEC00A40F20000C2F200403B
:1007200090ED001A20EE010A069981ED000A9DF86D
:100730000E109DF80F2041EA0221ADF80A10BDF914
:100740000A1000EE101AB8EEC00A90ED001A20EE62
:10075000010A069981ED010A9DF810109DF81120FB
:1007600041EA0221ADF80A10BDF90A1000EE101A94
:10077000B8EEC00A90ED001A20EE010A069880ED4E
:10078000020AFFF719FF00980199082200F080F88B
:10079000FFF706FF9DF80C000F2844D1FFE79DF8F6
:1007A0000E009DF80F1040EA0120ADF80A00BDF9D7
:1007B0000A0000EE100AB8EEC00A40F20400C2F2CD
:1007C000004090ED001A20EE010A079981ED000A21
:1007D0009DF810109DF8112041EA0221ADF80A1091
:1007E000BDF90A1000EE101AB8EEC00A90ED001A1A
:1007F00020EE010A079981ED010A9DF812109DF87B
:10080000132041EA0221ADF80A10BDF90A1000EEEA
:10081000101AB8EEC00A90ED001A20EE010A0798EF
:1008200080ED020AFFE7FFF7ABFEA22000F068F8B8
:10083000222003A9022200F02BF8FFF795FE9DF875
:100840000C009DF80D10C00040EA5110ADF80A00F0
:10085000BDF90A00B0F5806F07DBFFE7BDF80A00BD
:10086000A0F50060ADF80A00FFE7BDF90A0000EE50
:10087000100AB8EEC01AB4EE002AB3EE070AA1EED1
:10088000020A059880ED000A08B080BD0000000053
:1008900080B584B08DF80F0002918DF807209DF887
:1008A0000F0040F0800000F02BF8FFE79DF80700F4
:1008B00070B1FFE7552000F023F802990870029804
:1008C000013002909DF8070001388DF80700EDE730
:1008D00004B080BD0000000080B582B08DF8070034
:1008E00000919DF8070040F0800000F009F85520C5
:1008F00000F006F80099087002B080BD000000000A
:1009000080B582B08DF8070069464FF47A700860B0
:1009100042F23410C2F200400DF107010DF106025F
:10092000012308F0C1FB9DF8060002B080BD000065
:1009300080B582B08DF807008DF806109DF807008D
:10094000FFF7DEFF9DF80600FFF7DAFF02B080BD7B
:10095000FFE7FEE70000000084B08DF80F00029171
:10096000ADF806209DF80F000146009123281DD800
:100970000099DFE801F012131415161B1B1B1B1B3B
:100980001B1B1B1B1B1B1B1B1B1B1B1B1B1B1B1BB7
:100990001B1B1B1B1B1B1718191A08E007E006E09E
:1009A00005E004E003E002E001E000E0FFE70020F2
:1009B00004B07047000000000020704700000000F5
:1009C00080B582B041F65C00C2F20040009040F673
:1009D000B451C2F20041002201920BF0ADFB00982D
:1009E00040F2B451C2F200410BF086FB019802B014
:1009F00080BD00000000000080B584B0039002912B
:100A0000039941F65C00C2F2004001900BF074FBC8
:100A100001980BF015FB002004B080BD0000000021
:100A200083B0029001918DF8032000208DF8020020
:100A30009DF9020003B0704780B586B00490ADF810
:100A40000E1000208DF80D0041F65C00C2F200404F
:100A5000D0F8BC0202900298D0F8140220B1FFE74F
:100A600001208DF8170013E00499BDF80E2041F61F
:100A70005C00C2F2004001900BF05EFB01980BF0AD
:100A800067FC8DF80D009DF80D008DF81700FFE74D
:100A90009DF8170006B080BD83B00290ADF8061037
:100AA0004FF6FF70ADF804000020ADF80200FFE73C
:100AB000BDF80200BDF80610884234DAFFE702985C
:100AC000BDF80210415CBDF804004840ADF80400D8
:100AD00000208DF80100FFE79DF8010007281BDCCE
:100AE000FFE7BDF80400C00748B1FFE7BDF80410F8
:100AF0004AF2010080EA5100ADF8040005E0BDF8BB
:100B000004004008ADF80400FFE7FFE79DF801008E
:100B100001308DF80100DFE7FFE7BDF8020001308A
:100B2000ADF80200C4E7BDF8040003B07047000050
:100B300080B541F63830C2F2004002F091FA80BD33
:100B400080B541F6B030C2F2004002F089FA80BDB3
:100B500083B002900298016801201022C4F20202C0
:100B60009142009000F0A380FFE702980168012005
:100B70002822C4F202029142009000F09880FFE720
:100B80000298016801204022C4F2020291420090C2
:100B900000F08D80FFE70298016801205822C4F21E
:100BA00002029142009000F08280FFE70298016803
:100BB00001207022C4F202029142009077D0FFE738
:100BC0000298016801208822C4F20202914200903A
:100BD0006DD0FFE7029801680120A022C4F2020252
:100BE0009142009063D0FFE7029801680120B8228B
:100BF000C4F202029142009059D0FFE702980168C6
:100C0000012040F21042C4F20202914200904ED004
:100C1000FFE702980168012040F22842C4F2020274
:100C20009142009043D0FFE702980168012040F212
:100C30004042C4F202029142009038D0FFE702988D
:100C40000168012040F25842C4F202029142009031
:100C50002DD0FFE702980168012040F27042C4F2F3
:100C600002029142009022D0FFE702980168012021
:100C700040F28842C4F202029142009017D0FFE78E
:100C800002980168012040F2A042C4F2020291429F
:100C900000900CD0FFE7029800684FF64831CBF681
:100CA000FD710844B0FA80F040090090FFE7009819
:100CB000C00740B3FFE70298007810384AF6AB212E
:100CC000CAF6AA21A0FB011000090190019800F0CA
:100CD000070140F68000C0F60100405C0299C8653B
:100CE0000198042807D3FFE702990868042262F3F9
:100CF0000900886506E00299086840F2FF329043D7
:100D00008865FFE705E00299086820F0FF00886524
:100D1000FFE70298806D03B07047000000000000FC
:100D200084B0039003980068019003980168012043
:100D300045F20842C5F60202914200904ED0FFE70C
:100D400003980168012045F21C42C5F60202914257
:100D5000009043D0FFE703980168012045F230423C
:100D6000C5F602029142009038D0FFE7039801686F
:100D7000012045F24442C5F60202914200902DD076
:100D8000FFE703980168012045F25842C5F60202C8
:100D90009142009022D0FFE703980168012045F2BC
:100DA0006C42C5F602029142009017D0FFE703980B
:100DB0000168012045F28042C5F60202914200908E
:100DC0000CD0FFE7039800684AF66C31CAF2FD7157
:100DD0000844B0FA80F040090090FFE70098C0078F
:100DE00010B3FFE70398007808384CF6CD41CCF6F5
:100DF000CC41A0FB011000090290029945F60000C9
:100E0000C5F6020000EB810003990866039945F6D8
:100E10008000C5F602004866029800F01F0101201C
:100E200088400399886635E00398007810384AF6C0
:100E3000AB21CAF6AA21A0FB01100009029001987B
:100E400040F2B841C4F2020188420CD8FFE7019891
:100E500040F21041C4F20201884204D3FFE7029835
:100E600008300290FFE7029940F60000C4F2020049
:100E700000EB810003990866039940F68000C4F2F4
:100E800002004866029800F01F0101208840039983
:100E90008866FFE704B0704783B00290029800793B
:100EA00001900198002800F08A80FFE70198082847
:100EB00000F28580FFE702980168012045F20842B0
:100EC000C5F60202914200904ED0FFE702980168F9
:100ED000012045F21C42C5F602029142009043D027
:100EE000FFE702980168012045F23042C5F6020290
:100EF0009142009038D0FFE702980168012045F246
:100F00004442C5F60202914200902DD0FFE70298BC
:100F10000168012045F25842C5F602029142009054
:100F200022D0FFE702980168012045F26C42C5F625
:100F300002029142009017D0FFE702980168012059
:100F400045F28042C5F60202914200900CD0FFE7C4
:100F5000029800684AF66C31CAF2FD710844B0FA92
:100F600080F040090090FFE70098C00780B1FFE7DC
:100F7000019945F6FC00C5F6020000EB81000299DC
:100F8000C866029945F64010C5F6020008670FE0F2
:100F9000019940F6FC00C4F2020000EB81000299C6
:100FA000C866029940F64010C4F202000867FFE7E5
:100FB0000198411E0120884002994867FFE703B06D
:100FC000704700000000000085B0049000208DF8FC
:100FD0000F000498806918BBFFE70498806A0290AC
:100FE00003281BD80299DFE801F0020D02180498CB
:100FF00090F82F00C00720B1FFE701208DF80F0007
:10100000FFE70CE00498C06AB0F1C07F04D1FFE7AD
:1010100001208DF80F00FFE701E000E0FFE747E067
:1010200004988069B0F5005F26D1FFE70498806AD4
:10103000019003281ED80199DFE801F00206021191
:1010400001208DF80F0016E0049890F82F00C007DB
:1010500020B1FFE701208DF80F00FFE70BE00498B7
:10106000C06AB0F1C07F04D1FFE701208DF80F0006
:10107000FFE700E0FFE71AE00498806A0090032889
:1010800004D3FFE70098032804D00EE001208DF878
:101090000F000BE0049890F82F00C00720B1FFE785
:1010A00001208DF80F00FFE700E0FFE7FFE7FFE713
:1010B0009DF80F0005B07047704700000000000069
:1010C00010B596B01590149115994CF2AC50C3F22E
:1010D0002770C1F8EC0115994FF2C350C4F21C10EF
:1010E000C1F8F001159900200390C1F8F401159A98
:1010F00049F69A11C3F61961C2F8F811159A002140
:10110000C4F2C821C2F8FC11159A4FF07E51C2F802
:101110000012159AC2F804121599C1F80802159A1E
:1011200041F26F21C3F68321C2F80C121599C1F860
:1011300010021599C1F814021599C1F818021598F2
:1011400000F507705421FFF79BF903981599C1F832
:1011500070021599C1F874021599C1F878021498B3
:101160000068139014984068129014988068119049
:101170009DED131A9DED120A20EE000AA1EE010A60
:101180009DED111AA1EE010A0FF0C4F98DED100AC0
:101190009DED100A9FEDBA1AB4EE410AF1EE10FA75
:1011A0000CDAFFE715994FF07E5008601599002082
:1011B0004860159988601599C860DFE09DED130AB5
:1011C000B1EE400A9DED101A80EE010A8DED0F0A76
:1011D0009DED0F0AB0EEC00A9FEDAA1AB4EE410AC7
:1011E000F1EE10FA0CDDFFE715994FF07E50086024
:1011F000159900204860159988601599C860BCE071
:101200009DED120ADDED110A0EF08CFB8DED0E0A3C
:101210009DED130AB1EE400A8DED010A9DED121A03
:101220009DED110A20EE000AA1EE010A0FF072F9FD
:10123000F0EE400A9DED010A0EF074FB8DED0D0AF3
:1012400000200C909DED0E0AB6EE001A8DED021AEC
:1012500020EE010A0EF0BCFC9DED021A8DED0B0A8A
:101260009DED0E0A20EE010A0FF08CF89DED021A9A
:101270008DED0A0A9DED0D0A20EE010A0EF0A8FC84
:101280009DED021A8DED090A9DED0D0A20EE010A71
:101290000FF078F89DED021A8DED080A9DED0C0A0D
:1012A00020EE010A0EF094FC9DED021A8DED070A66
:1012B0009DED0C0A20EE010A0FF064F88DED060A90
:1012C0009DED0B0A9DED091A20EE011A9DED072AEE
:1012D0009DED0A0A9DED083A20EE030A9DED063ABF
:1012E00020EE030AA1EE020A159880ED000A9DED9A
:1012F0000A0A9DED091A20EE011A9DED072A9DEDBF
:101300000B0A9DED083A20EE030A9DED063A20EE09
:10131000030A91EE020A159880ED010A9DED0B0A71
:101320009DED081A20EE011A9DED072A9DED0A0A8F
:101330009DED093A20EE030A9DED063A20EE030AE0
:10134000A1EE020A159880ED020A9DED0B0A9DEDB3
:10135000091A20EE011A9DED062A9DED0A0A9DED5F
:10136000083A20EE030A9DED073A20EE030A91EEBB
:10137000020A159880ED030AFFE7FFE715990020A0
:1013800000900861159948611599886115981C307D
:1013900009F026F800980590FFE70598032812DC6D
:1013A000FFE715980599C1EBC10200EB820000EB45
:1013B00081014DF20A70C3F62340C861FFE705982A
:1013C00001300590E9E704200490FFE7049806281F
:1013D00010DCFFE715980499C1EBC10200EB820015
:1013E00000EB81014FF07E50C861FFE704980130A7
:1013F0000490EBE71598E03009F012F815994EF2D9
:10140000FF60C2F6DB60C1F860011599C1F8800188
:101410001599C1F8A001159800F5E47008F094FF43
:10142000159800F5E471B7EE000A084608F0A0FF31
:101430001599D1F8C801D1F8CC21D1F8D031D1F823
:10144000D4C1D1F8D8E1D1F8DC41C1F8B841C1F834
:10145000B4E1C1F8B0C1C1F8AC31C1F8A821C1F8FC
:10146000A401D1F8E001D1F8E421D1F8E831C1F8C4
:10147000C431C1F8C021C1F8BC0116B010BD00BF15
:10148000BD378635A4707D3F80B5ADF58E6DF7AA6A
:1014900004920A460499059202460598CDF86C24F8
:1014A000CDF8680481ED220ADDF86C040068CDF8FF
:1014B0006004DDF86C044068CDF85C04DDF86C0471
:1014C0008068CDF85804DDF86C04C068CDF8540489
:1014D000DDF8680490ED000ADDF86C0490ED041A64
:1014E00030EE410A81ED1D0ADDF8680490ED010A35
:1014F000DDF86C0490ED051A30EE410A81ED1C0A0E
:10150000DDF8680490ED020ADDF86C0490ED061A2F
:1015100030EE410A81ED1B0A00200690CDF8080448
:1015200091ED1D0AB1EE400A81ED0C0A91ED1C0A05
:10153000B1EE400A81ED0D0A91ED1B0AB1EE400AB1
:1015400081ED0E0ADDF85024CDF81824CDF81C04E6
:10155000DDF84824CDF8202491ED1C0AB1EE400AB4
:1015600081ED120ADDF84C24CDF8282491ED1B0AF8
:10157000B1EE400A81ED140ACDF83004DDF85024B4
:10158000CDF83424DDF84824CDF83824DDF84C2497
:10159000CDF83C2491ED1D0AB1EE400A81ED190A07
:1015A000CDF84404DDF86014FE91DDF85C14FF9181
:1015B000DDF85814CDF80014DDF85414CDF80414F7
:1015C000FD90FC90FB90FA90F990FFE7F9980328C2
:1015D00039DCFFE7F99AFEA850F82200FAA941F891
:1015E00022000020F890FFE7F898032826DCFFE7A8
:1015F0000498F9990DF5816202EB0113F89A03EB57
:10160000820393ED000AB6EE001A20EE010A90ED77
:10161000221A20EE011AFEA800EB820090ED002AAB
:10162000FAA800EB810090ED000AA1EE020A80ED1D
:10163000000AFFE7F8980130F890D5E7FFE7F9983E
:101640000130F990C2E7049890ED033A90ED040A56
:1016500090ED052A90ED061A20EE000AA3EE030A8B
:10166000A2EE020AA1EE010A0EF054FF049880EDEA
:10167000000A90ED000A9FEDEA1AB4EE410AF1EE7D
:1016800010FA2ADDFFE7049890ED030A90ED001AA6
:1016900080EE010ADDF86C1481ED000A90ED040A79
:1016A00090ED001A80EE010ADDF86C1481ED010A5C
:1016B00090ED050A90ED001A80EE010ADDF86C1439
:1016C00081ED020A90ED060A90ED001A80EE010A03
:1016D000DDF86C0480ED030AFFE7C6A8C421FEF71D
:1016E000CFFE0020C590FFE7C598032839DCFFE74F
:1016F000C59AC2EBC201C6A800EB81014FF07E5033
:1017000041F822000020C490FFE7C498032823DC9E
:10171000FFE7049AC5980DF5816101EB0013C499A8
:1017200003EB810393ED000AB6EE001A20EE011AD6
:1017300092ED222AC0EBC002C6A800EB820000EBAB
:10174000810090ED000AA1EE020A80ED000AFFE799
:10175000C4980130C490D8E7FFE7C5980130C59020
:10176000C2E7049890ED220AB6EE002A8DED022A17
:1017700020EE020A90ED201A20EE010A8DEDCA0A31
:1017800090ED220A20EE020A90ED1F1A20EE010AC7
:101790008DEDCB0A90ED220A20EE020A90ED1E1A82
:1017A00020EE010A8DEDCC0A90ED220ABEEE001A61
:1017B0008DED031A20EE010A90ED213A20EE030A86
:1017C0008DEDD10A90ED220A20EE020A90ED1E3A2C
:1017D00020EE030A8DEDD20A90ED220A20EE010AD6
:1017E00090ED1F3A20EE030A8DEDD30A90ED220A08
:1017F00020EE010A90ED1E3A20EE030A8DEDD80A84
:1018000090ED220A20EE010A90ED213A20EE030A23
:101810008DEDD90A90ED220A20EE020A90ED203AD1
:1018200020EE030A8DEDDA0A90ED220A20EE020A7C
:1018300090ED1F3A20EE030A8DEDDF0A90ED220AAB
:1018400020EE010A90ED203A20EE030A8DEDE00A29
:1018500090ED220A20EE010A90ED213A20EE030AD3
:101860008DEDE10A4FF07E51E691EE91F69190ED0B
:10187000220A20EE010A90ED203A20EE030A8DEDB7
:10188000B80A90ED220A20EE010A90ED1F3A20EEF0
:10189000030A8DEDB90A90ED220A20EE010A90EDBF
:1018A0001E3A20EE030A8DEDBA0A90ED220A20EED0
:1018B000020A90ED213A20EE030A8DEDBB0A90ED6D
:1018C000220A20EE010A90ED1E3A20EE030A8DED69
:1018D000BC0A90ED220A20EE020A90ED1F3A20EE9B
:1018E000030A8DEDBD0A90ED220A20EE020A90ED6A
:1018F0001E3A20EE030A8DEDBE0A90ED220A20EE7C
:10190000020A90ED213A20EE030A8DEDBF0A90ED18
:10191000220A20EE010A90ED203A20EE030A8DED16
:10192000C00A90ED220A20EE010A90ED1F3A20EE47
:10193000030A8DEDC10A90ED220A20EE020A90ED15
:10194000202A20EE020A8DEDC20A90ED220A20EE36
:10195000010A90ED211A20EE010A8DEDC30ADDF88F
:101960006C04D0F8EC01B7900020A690FFE7A69891
:10197000032847DCFFE70020A590FFE7A598032890
:101980003BDCFFE7A699A7A800EB0111A59A002070
:1019900041F82200A490FFE7A498022828DCFFE782
:1019A000A69A02EB4201B8A800EB8101A49B01EBCF
:1019B000830191ED000A9DEDB71A20EE011AA59959
:1019C00001EB410C00EB8C0000EB830090ED002A52
:1019D000A7A800EB021000EB810090ED000AA1EE39
:1019E000020A80ED000AFFE7A4980130A490D3E733
:1019F000FFE7A5980130A590C0E7FFE7A698013062
:101A0000A690B4E70020A390FFE7A398032824DC66
:101A1000FFE70020A290FFE7A298032818DC01E06E
:101A2000BD378635A39BA7A800EB0310A29A50F8F8
:101A30002200DDF86C14C3EBC30301EB830101EB5F
:101A40008201C1F8E000FFE7A2980130A290E3E72D
:101A5000FFE7A3980130A390D7E7DDF86C0400F10D
:101A60001C0171A8C4220192FEF7B6FC019940A89E
:101A7000FEF706FD00200E90FFE70E9806283DDCDD
:101A8000FFE700200D90FFE70D98062831DCFFE707
:101A900000200C90FFE70C98062825DCFFE70E9845
:101AA000C0EBC002C6A800EB82010C9801EB8001DC
:101AB00091ED001AC0EBC00171A800EB81000D99F7
:101AC00000EB810090ED002A40A800EB820000EBC3
:101AD000810090ED000AA1EE020A80ED000AFFE706
:101AE0000C9801300C90D6E7FFE70D9801300D906F
:101AF000CAE7FFE70E9801300E90BEE70FA8C42199
:101B0000FEF7BEFC00200B90FFE70B9806283DDC9B
:101B1000FFE700200A90FFE70A98062831DCFFE77C
:101B200000200990FFE70998062825DCFFE70B98BD
:101B3000C0EBC00240A800EB8200099B00EB8300D1
:101B400090ED001A0A99C1EBC10CC6A800EB8C00FD
:101B500000EB830090ED002A0FA800EB820000EB61
:101B6000810090ED000AA1EE020A80ED000AFFE775
:101B7000099801300990D6E7FFE70A9801300A90EA
:101B8000CAE7FFE70B9801300B90BEE700200890F2
:101B9000FFE70898062828DCFFE700200790FFE70A
:101BA000079806281CDCFFE70898C0EBC0020FA8C6
:101BB00000EB8200079900EB810090ED000ADDF850
:101BC0006C0400EB820000EB810090ED381A30EEDF
:101BD000010A80ED070AFFE7079801300790DFE769
:101BE000FFE7089801300890D3E7DDF86C14002077
:101BF00088610DF58E6D80BD10B5ADF5C46DEFAA91
:101C00000292CDF81C06CDF81816DDF818261068DB
:101C100051689268CDF81426CDF81016CDF80C0650
:101C20000DF20C600DF04CFC0298DDF81C160968F2
:101C3000CDF80816DDF81C164968CDF80416DDF855
:101C40001C168968CDF80016DDF81C16C968CDF899
:101C5000FC1590ED916A90ED905A25EE051AA6EECE
:101C6000061AB8EE007AB7EE000AF0EE400AE1EE8E
:101C7000070A90ED924A90ED932A22EE051AA4EEFF
:101C8000061A31EE011AD0ED941AD0ED952A90ED96
:101C9000963A21EE221AA0EEA11A22EE062A94EE1E
:101CA000052A32EE022AA2EE031A80ED8F1A90ED79
:101CB000925A90ED913A90ED931A90ED904A21EE60
:101CC000042A95EE032A32EE026A24EE042AA5EED7
:101CD000052AA2EE070A90ED947AD0ED950A90EDD0
:101CE000962A20EE200AA6EE070A21EE051AA3EE98
:101CF000041A31EE011AA1EE020A80ED8E0A90ED6F
:101D00008F1A90ED8E0A20EE000AA1EE010A0EF065
:101D100001FCDDF81C0680ED820ADDF81C0690ED62
:101D20007E1A90ED820AB4EE410AF1EE10FA35DD2A
:101D3000FFE70298DDF81C1691ED7E1A91ED820AFC
:101D400080EE010A80ED8D0A90ED8D0ADDF81C060B
:101D5000D0ED800A0DF0E4FFDDF81C0680ED810A6D
:101D6000DDF81C0690ED7F1A90ED810AB4EE410A71
:101D7000F1EE10FA07DDFFE7DDF81C16D1F8FC01E3
:101D8000C1F80402FFE7DDF81C2602F5D27002F567
:101D9000E47192ED810A08F0EBFA2DE0DDF81C16F3
:101DA0004FF07E50C1F80402DDF81C160191D1F805
:101DB000C801D1F8CC21D1F8D031D1F8D4C1D1F8B3
:101DC000D8E1D1F8DC41C1F8B841C1F8B4E1C1F8BB
:101DD000B0C1C1F8AC31C1F8A821C1F8A401D1F853
:101DE000E001D1F8E421D1F8E831C1F8C431C1F8FB
:101DF000C021C1F8BC01FFE7029890ED921A90ED66
:101E0000902A90ED930A90ED913A20EE030A91EE1C
:101E1000020A30EE000A80ED8A0A90ED911A90EDE8
:101E2000902A90ED930A90ED923A20EE030AA1EEEB
:101E3000020A30EE000A80ED8B0A90ED931A90EDC5
:101E4000920A20EE000A91EE010A90ED911AA1EE9D
:101E5000410A90ED901AA1EE010A80ED8C0A90EDF6
:101E6000910AB8EE001A20EE010A80ED7E0A90ED8C
:101E7000900A30EE000A80ED7F0A90ED930A20EE82
:101E8000010A80ED800A90ED920A30EE000A80EDA2
:101E9000810A90ED920A30EE000A80ED820A90ED00
:101EA000930A30EE000A80ED830A90ED900A30EE3E
:101EB000000A80ED840A90ED910A30EE000A80ED70
:101EC000850A90ED930A30EE000A80ED860A90EDC7
:101ED000920A20EE010A80ED870A90ED910A20EE29
:101EE000010A80ED880A90ED900A30EE000A80ED3C
:101EF000890A0020CDF85C05FFE7DDF85C050228C3
:101F000046DCFFE70020CDF85805FFE7DDF858056F
:101F1000032819DCFFE7DDF85C150DF2B45000EB87
:101F20000110DDF8582550F82200C1EBC1030DF572
:101F3000AC6101EB830141F82200FFE7DDF85805B1
:101F40000130CDF85805E1E70420CDF85405FFE74E
:101F5000DDF85405062814DCFFE7DDF85C05C0EB6E
:101F6000C0010DF5AC6000EB8101DDF854250020C7
:101F700041F82200FFE7DDF854050130CDF85405A3
:101F8000E6E7FFE7DDF85C050130CDF85C05B4E776
:101F90000DF5A0605421FEF773FA0020CDF8FC0483
:101FA000FFE7DDF8FC0402284DDCFFE70020CDF858
:101FB000F804FFE7DDF8F80406283DDCFFE7002021
:101FC000CDF8F404FFE7DDF8F40406282DDCFFE784
:101FD000DDF8FC04C0EBC0020DF5AC6000EB820044
:101FE000DDF8F41400EB810090ED001ADDF81C061A
:101FF000C1EBC10100EB8100DDF8F81400EB8100BA
:1020000090ED072A0DF5A06000EB820000EB810047
:1020100090ED000AA1EE020A80ED000AFFE7DDF86C
:10202000F4040130CDF8F404CDE7FFE7DDF8F8045F
:102030000130CDF8F804BDE7FFE7DDF8FC0401301E
:10204000CDF8FC04ADE70DF59A602421FEF718FAEF
:102050000020CDF8CC04FFE7DDF8CC04022871DCC9
:10206000FFE70020CDF8C804FFE7DDF8C804022828
:1020700061DCFFE70020CDF8C404FFE7DDF8C4040D
:1020800006282FDCFFE7DDF8CC04C0EBC0020DF51D
:10209000A06101EB8201DDF8C43401EB830191ED15
:1020A000001ADDF8C814C1EBC10C0DF5AC6202EBEF
:1020B0008C0202EB830292ED002A00EB40020DF548
:1020C0009A6000EB820000EB810090ED000AA1EE27
:1020D000020A80ED000AFFE7DDF8C4040130CDF804
:1020E000C404CBE7DDF8CC04DDF8C81488421BD16A
:1020F000FFE7DDF81C06DDF8CC1401EB410200EB34
:102100008200DDF8C81400EB810090ED691A0DF52E
:102110009A6000EB820000EB810090ED000A30EE47
:10212000010A80ED000AFFE7FFE7DDF8C80401308F
:10213000CDF8C80499E7FFE7DDF8CC040130CDF80D
:10214000CC0489E7029890ED492AD0ED4D1AD0EDE4
:102150004A0A90ED4C4A20EE847A92EE217A90ED74
:10216000456A90ED460A90ED471A90ED483A90ED99
:102170004B5A60EE850AD3EE210A20EE200A96EE35
:10218000070A22EE052A93EE042AA1EE020A80ED48
:10219000380A90ED381AB7EE000A80EE010A80ED99
:1021A000370A90ED491A90ED4A0A90ED4C3A90EDBD
:1021B0004D2A20EE030A91EE020A90ED371A20EE26
:1021C000010A80ED390A90ED460A90ED471A90ED2C
:1021D0004C2A90ED4D3A20EE030A91EE020A90ED62
:1021E000371A20EE010A80ED3A0A90ED461A90ED7A
:1021F000470A90ED493A90ED4A2A20EE030A91EE03
:10220000020A90ED371A20EE010A80ED3B0A90EDAC
:10221000480A90ED4A1A90ED4B2A90ED4D3A20EE87
:10222000030A91EE020A90ED371A20EE010A80EDC2
:102230003C0A90ED451A90ED470A90ED4B3A90ED2F
:102240004D2A20EE030A91EE020A90ED371A20EE95
:10225000010A80ED3D0A90ED450A90ED471A90ED98
:10226000482A90ED4A3A20EE030A91EE020A90EDD8
:10227000371A20EE010A80ED3E0A90ED481A90EDE3
:10228000490A90ED4B3A90ED4C2A20EE030A91EE6C
:10229000020A90ED371A20EE010A80ED3F0A90ED18
:1022A000450A90ED461A90ED4B2A90ED4C3A20EEFF
:1022B000030A91EE020A90ED371A20EE010A80ED32
:1022C000400A90ED451A90ED460A90ED483A90ED9F
:1022D000492A20EE030A91EE020A90ED371A20EE09
:1022E000010A80ED410A0DF244405421FEF7C8F87E
:1022F0000020CDF84004FFE7DDF8400406284FDC5D
:10230000FFE70020CDF83C04FFE7DDF83C0402289D
:102310003FDCFFE70020CDF83804FFE7DDF83804A4
:1023200006282FDCFFE7DDF81C16DDF84004C0EBC3
:10233000C00201EB8201DDF8383401EB830191ED3D
:10234000071ADDF83C14C1EBC10C0DF5AC6202EBD1
:102350008C0202EB830292ED002A00EB40020DF2A8
:10236000444000EB820000EB810090ED000AA1EEFA
:10237000020A80ED000AFFE7DDF838040130CDF8ED
:102380003804CBE7FFE7DDF83C040130CDF83C042E
:10239000BBE7FFE7DDF840040130CDF84004ABE7D0
:1023A000F9A85421FEF76CF80020F890FFE7F898A0
:1023B00006283FDCFFE70020F790FFE7F7980228A8
:1023C00033DCFFE70020F690FFE7F698022827DCD1
:1023D000FFE7F89800EB40020DF2444000EB820169
:1023E000F69801EB800191ED001A00EB40010DF52C
:1023F000946000EB8100F79900EB810090ED002ADA
:10240000F9A800EB820000EB810090ED000AA1EE3C
:10241000020A80ED000AFFE7F6980130F690D4E753
:10242000FFE7F7980130F790C8E7FFE7F898013029
:10243000F890BCE7DDF81C0600F50770F9A95422F6
:10244000FDF7CAFF029890ED940A90ED8A1A30EEDB
:10245000410ADDF81C1681ED9C0A90ED950A90ED7D
:102460008B1A30EE410ADDF81C1681ED9D0A90EDC5
:10247000960A90ED8C1A30EE410ADDF81C0680EDCC
:102480009E0A0020EE90FFE7EE9806282FDCFFE77B
:10249000EE9AEFA9002041F82200ED90FFE7ED98B9
:1024A00002281FDCFFE7EE9901EB4102F9A800EBDF
:1024B0008200ED9A00EB820090ED001ADDF81C0618
:1024C00000EB820090ED9C2AEFA800EB810090EDDC
:1024D000000AA1EE020A80ED000AFFE7ED98013044
:1024E000ED90DCE7FFE7EE980130EE90CCE7029844
:1024F00090ED001ADDF81C1691ED000A30EE010A8D
:1025000081ED000A90ED011ADDF81C1691ED010A2B
:1025100030EE010A81ED010A90ED021ADDF81C1679
:1025200091ED020A30EE010A81ED020A90ED031AE4
:10253000DDF81C1691ED030A30EE010A81ED030A65
:1025400090ED041ADDF81C1691ED040A30EE010A34
:1025500081ED040A90ED051ADDF81C1691ED050ACF
:1025600030EE010A81ED050A90ED061ADDF81C0631
:1025700090ED060A30EE010A80ED060ADDF81C0631
:1025800008F06EF9DDF81C0690ED042A90ED7D1A36
:10259000B1EE410A81FE421A80FE010A80ED040A72
:1025A000DDF81C0690ED052A90ED7D1AB1EE410A8A
:1025B00081FE421A80FE010A80ED050ADDF81C1634
:1025C000002000908861BCA8C421FDF759FF009845
:1025D000BB90FFE7BB9806284ADCFFE7BB9AC2EB3B
:1025E000C201BCA800EB81014FF07E5041F82200EF
:1025F0000020BA90FFE7BA98062834DCFFE70020F5
:10260000B990FFE7B998022828DCFFE7BB9800EBF8
:102610004002F9A901EB8202B99902EB810292ED25
:10262000001AC1EBC1020DF5AC6101EB8202BA994F
:1026300002EB810292ED002AC0EBC002BCA800EBC5
:10264000820000EB810090ED000AA1EE420A80EDCD
:10265000000AFFE7B9980130B990D3E7FFE7BA98CD
:102660000130BA90C7E7FFE7BB980130BB90B1E7F4
:1026700088A8C421FDF704FF00208790FFE7879812
:1026800006283EDCFFE700208690FFE786980628B4
:1026900032DCFFE700208590FFE78598062826DCDE
:1026A000FFE78798C0EBC002BCA800EB82008599C9
:1026B00000EB810090ED001ADDF81C06C1EBC101B2
:1026C00000EB8100869900EB810090ED072A88A835
:1026D00000EB820000EB810090ED000AA1EE020AFF
:1026E00080ED000AFFE7859801308590D5E7FFE788
:1026F000869801308690C9E7FFE787980130879078
:10270000BDE754A8C421FDF7BBFE00205390FFE7AE
:10271000539806283DDCFFE700205290FFE75298CF
:10272000062831DCFFE700205190FFE7519806288A
:1027300025DCFFE75398C0EBC00288A800EB8200BD
:10274000519B00EB830090ED001A5299C1EBC10C34
:10275000BCA800EB8C0000EB830090ED002A54A88D
:1027600000EB820000EB810090ED000AA1EE020A6E
:1027700080ED000AFFE7519801305190D6E7FFE75E
:10278000529801305290CAE7FFE7539801305390B6
:10279000BEE73CA85421FDF773FE00203B90FFE705
:1027A0003B9806283EDCFFE700203A90FFE73A9886
:1027B000022832DCFFE700203990FFE73998022831
:1027C00026DCFFE73B9800EB4002F9A800EB820013
:1027D000399900EB810090ED001ADDF81C0601EB41
:1027E000410100EB81003A9900EB810090ED692AEC
:1027F0003CA800EB820000EB810090ED000AA1EE06
:10280000020A80ED000AFFE7399801303990D5E7D8
:10281000FFE73A9801303A90C9E7FFE73B9801306B
:102820003B90BDE708A8C421FDF72AFE00200790D1
:10283000FFE7079806283FDCFFE700200690FFE748
:102840000698062833DCFFE700200590FFE705988F
:10285000022827DCFFE7079800EB40023CA901EBC8
:102860008201059B01EB830191ED001A069901EBB2
:10287000410CF9AA02EB8C0202EB830292ED002AD2
:10288000C0EBC00208A800EB820000EB810090EDD5
:10289000000AA1EE020A80ED000AFFE70598013068
:1028A0000590D4E7FFE7069801300690C8E7FFE7F8
:1028B000079801300790BCE700200490FFE70498D8
:1028C00006282DDCFFE700200390FFE70398062889
:1028D00021DCFFE70498C0EBC00254A800EB8200A3
:1028E000039900EB810090ED000A08A800EB82003C
:1028F00000EB810090ED001A30EE010ADDF81C06B5
:1029000000EB820000EB810080ED070AFFE70398EF
:1029100001300390DAE7FFE7049801300490CEE736
:102920000DF5C46D10BD000080B54FF4806002F05D
:1029300063F94FF4805002F05FF980BD00000000A1
:1029400081B0EFF3108072B60090FFE7FEE7000061
:1029500080B584B04EF60000C1F6F17000680390B7
:102960004EF60400C1F6F170006802904EF60800C1
:10297000C1F6F17000680190019903980844039032
:10298000039888B1FFE7039840F2E801C2F20041E2
:1029900000910231082207F00BFB009902981231D6
:1029A000042207F005FBFFE704B080BD0000000033
:1029B00080B586B00490049820B9FFE701208DF817
:1029C000170046E3049890F83500022807D0FFE787
:1029D00004998020486501208DF8170039E3049898
:1029E000016801201022C4F202029142029000F01C
:1029F000A380FFE70498016801202822C4F20202A4
:102A00009142029000F09880FFE70498016801204D
:102A10004022C4F202029142029000F08D80FFE752
:102A20000498016801205822C4F2020291420290E7
:102A300000F08280FFE70498016801207022C4F250
:102A400002029142029077D0FFE7049801680120CA
:102A50008822C4F20202914202906DD0FFE70498EE
:102A600001680120A022C4F202029142029063D0C8
:102A7000FFE7049801680120B822C4F202029142E3
:102A8000029059D0FFE704980168012040F21042FB
:102A9000C4F20202914202904ED0FFE7049801680E
:102AA000012040F22842C4F202029142029043D037
:102AB000FFE704980168012040F24042C4F202029C
:102AC0009142029038D0FFE704980168012040F25B
:102AD0005842C4F20202914202902DD0FFE70498BE
:102AE0000168012040F27042C4F202029142029059
:102AF00022D0FFE704980168012040F28842C4F226
:102B000002029142029017D0FFE704980168012069
:102B100040F2A042C4F20202914202900CD0FFE7C0
:102B2000049800684FF64831CBF6FD710844B0FABE
:102B300080F040090290FFE70298C007002800F0EB
:102B40009D80FFE70499042081F83500049800680F
:102B50001021C4F20201884200F08180FFE704984E
:102B600000682821C4F20201884278D0FFE7049867
:102B700000684021C4F20201884270D0FFE7049847
:102B800000685821C4F20201884268D0FFE7049827
:102B900000687021C4F20201884260D0FFE7049807
:102BA00000688821C4F20201884258D0FFE70498E7
:102BB0000068A021C4F20201884250D0FFE70498C7
:102BC0000068B821C4F20201884248D0FFE70498A7
:102BD000006840F21041C4F2020188423FD0FFE792
:102BE0000498006840F22841C4F20201884236D0BD
:102BF000FFE70498006840F24041C4F202018842B5
:102C00002DD0FFE70498006840F25841C4F2020159
:102C1000884224D0FFE70498006840F27041C4F273
:102C2000020188421BD0FFE70498006840F2884107
:102C3000C4F20201884212D0FFE70498006840F213
:102C4000A041C4F20201884209D0FFE7049800685D
:102C500040F2B841C4F20201884207D1FFE704986C
:102C60000168086820F00100086006E00498016827
:102C7000086820F001000860FFE7E5E104980168BA
:102C8000086820F00E000860049800681021C4F263
:102C90000201884200F08180FFE704980068282143
:102CA000C4F20201884278D0FFE70498006840210E
:102CB000C4F20201884270D0FFE7049800685821EE
:102CC000C4F20201884268D0FFE7049800687021CE
:102CD000C4F20201884260D0FFE7049800688821AE
:102CE000C4F20201884258D0FFE704980068A0218E
:102CF000C4F20201884250D0FFE704980068B8216E
:102D0000C4F20201884248D0FFE70498006840F20C
:102D10001041C4F2020188423FD0FFE704980068E6
:102D200040F22841C4F20201884236D0FFE70498FD
:102D3000006840F24041C4F2020188422DD0FFE712
:102D40000498006840F25841C4F20201884224D03D
:102D5000FFE70498006840F27041C4F20201884223
:102D60001BD0FFE70498006840F28841C4F20201DA
:102D7000884212D0FFE70498006840F2A041C4F2F4
:102D80000201884209D0FFE70498006840F2B84188
:102D9000C4F20201884207D1FFE70498016808687D
:102DA00020F00100086006E004980168086820F03F
:102DB00001000860FFE70498016801201022C4F2B6
:102DC00002029142019000F00381FFE7049801683C
:102DD00001202822C4F202029142019000F0F88002
:102DE000FFE70498016801204022C4F202029142E8
:102DF000019000F0ED80FFE704980168012058225F
:102E0000C4F202029142019000F0E280FFE70498D0
:102E1000016801207022C4F202029142019000F088
:102E2000D780FFE70498016801208822C4F20202DB
:102E30009142019000F0CC80FFE7049801680120E6
:102E4000A022C4F202029142019000F0C180FFE78B
:102E5000049801680120B822C4F202029142019054
:102E600000F0B680FFE704980168012040F21042AC
:102E7000C4F202029142019000F0AA80FFE7049898
:102E80000168012040F22842C4F2020291420190FE
:102E900000F09E80FFE704980168012040F2404264
:102EA000C4F202029142019000F09280FFE7049880
:102EB0000168012040F25842C4F20202914201909E
:102EC00000F08680FFE704980168012040F270421C
:102ED000C4F20202914201907AD0FFE7049801689F
:102EE000012040F28842C4F20202914201906FD068
:102EF000FFE704980168012040F2A042C4F20202F8
:102F00009142019064D0FFE704980168012040F2EB
:102F1000B842C4F202029142019059D0FFE70498EE
:102F20000168012045F20842C5F602029142019073
:102F30004ED0FFE704980168012045F21C42C5F617
:102F400002029142019043D0FFE7049801680120FA
:102F500045F23042C5F602029142019038D0FFE7B7
:102F600004980168012045F24442C5F602029142EC
:102F700001902DD0FFE704980168012045F25842E6
:102F8000C5F602029142019022D0FFE70498016841
:102F9000012045F26C42C5F602029142019017D021
:102FA000FFE704980168012045F28042C5F602025D
:102FB000914201900CD0FFE7049800684AF66C310A
:102FC000CAF2FD710844B0FA80F040090190FFE7B1
:102FD0000198C00728B3FFE70498016E086820F441
:102FE000807008600498806D03900498C06D00F0B4
:102FF0001F0101208840039948600498416E806E4B
:1030000048600498C06E58B1FFE70498C16E086824
:1030100020F4807008600498016F406F4860FFE7FB
:10302000FFE70499012081F83500FFE704990020AB
:1030300081F83400FFE70498006D20B1FFE70498A1
:10304000016D8847FFE7FFE7FFE700208DF81700D5
:10305000FFE79DF8170006B080BD000000000000EB
:1030600080B590B00F9000200B9040F22C00C2F27F
:103070000040006848F2B511C1F64E31A0FB0110C6
:10308000800A0A900F98806D09900F98806D0890C3
:10309000099800680E90089800680D900F980168D4
:1030A00001201022C4F202029142079000F0A38096
:1030B000FFE70F98016801202822C4F20202914222
:1030C000079000F09880FFE70F98016801204022E8
:1030D000C4F202029142079000F08D80FFE70F9842
:1030E000016801205822C4F202029142079000F0C8
:1030F0008280FFE70F98016801207022C4F202026B
:103100009142079077D0FFE70F980168012088224D
:10311000C4F20202914207906DD0FFE70F98016858
:103120000120A022C4F202029142079063D0FFE77F
:103130000F9801680120B822C4F202029142079060
:1031400059D0FFE70F980168012040F21042C4F205
:103150000202914207904ED0FFE70F9801680120CC
:1031600040F22842C4F202029142079043D0FFE7A6
:103170000F980168012040F24042C4F202029142DD
:10318000079038D0FFE70F980168012040F25842BD
:10319000C4F20202914207902DD0FFE70F98016818
:1031A000012040F27042C4F202029142079022D004
:1031B000FFE70F980168012040F28842C4F2020242
:1031C0009142079017D0FFE70F980168012040F265
:1031D000A042C4F20202914207900CD0FFE70F9880
:1031E00000684FF64831CBF6FD710844B0FA80F024
:1031F00040090790FFE70798C007002800F01385F3
:10320000FFE70E980F99C96D01F01F01C840000734
:10321000002840F1B080FFE70F9800681021C4F249
:103220000201884200F08180FFE70F9800682821A2
:10323000C4F20201884278D0FFE70F98006840216D
:10324000C4F20201884270D0FFE70F98006858214D
:10325000C4F20201884268D0FFE70F98006870212D
:10326000C4F20201884260D0FFE70F98006888210D
:10327000C4F20201884258D0FFE70F980068A021ED
:10328000C4F20201884250D0FFE70F980068B821CD
:10329000C4F20201884248D0FFE70F98006840F26C
:1032A0001041C4F2020188423FD0FFE70F98006846
:1032B00040F22841C4F20201884236D0FFE70F985D
:1032C000006840F24041C4F2020188422DD0FFE77D
:1032D0000F98006840F25841C4F20201884224D09D
:1032E000FFE70F98006840F27041C4F20201884283
:1032F0001BD0FFE70F98006840F28841C4F202013A
:10330000884212D0FFE70F98006840F2A041C4F253
:103310000201884209D0FFE70F98006840F2B841E7
:10332000C4F20201884207D1FFE70F9800680068E5
:1033300000F00400069006E00F980068006800F0B6
:1033400008000690FFE70698A0B1FFE70F98016814
:10335000086820F0040008600F98C06D00F01F019D
:1033600008208840099988600F99486D40F0010055
:103370004865FFE7FFE70E980F99C96D01F01F013F
:10338000C840C007002800F0A980FFE70F98006838
:103390001021C4F20201884200F08180FFE70F98FB
:1033A00000682821C4F20201884278D0FFE70F9814
:1033B00000684021C4F20201884270D0FFE70F98F4
:1033C00000685821C4F20201884268D0FFE70F98D4
:1033D00000687021C4F20201884260D0FFE70F98B4
:1033E00000688821C4F20201884258D0FFE70F9894
:1033F0000068A021C4F20201884250D0FFE70F9874
:103400000068B821C4F20201884248D0FFE70F9853
:10341000006840F21041C4F2020188423FD0FFE749
:103420000F98006840F22841C4F20201884236D069
:10343000FFE70F98006840F24041C4F20201884261
:103440002DD0FFE70F98006840F25841C4F2020106
:10345000884224D0FFE70F98006840F27041C4F220
:10346000020188421BD0FFE70F98006840F28841B4
:10347000C4F20201884212D0FFE70F98006840F2C0
:10348000A041C4F20201884209D0FFE70F9800680A
:1034900040F2B841C4F20201884207D1FFE70F9819
:1034A0000068406900F08000059005E00F98006812
:1034B000006800200590FFE7059870B1FFE70F98BE
:1034C000C06D00F01F0101208840099988600F99A4
:1034D000486D40F002004865FFE7FFE70E980F993E
:1034E000C96D01F01F01C8404007002840F1A980C4
:1034F000FFE70F9800681021C4F20201884200F033
:103500008180FFE70F9800682821C4F202018842F9
:1035100078D0FFE70F9800684021C4F2020188428A
:1035200070D0FFE70F9800685821C4F2020188426A
:1035300068D0FFE70F9800687021C4F2020188424A
:1035400060D0FFE70F9800688821C4F2020188422A
:1035500058D0FFE70F980068A021C4F2020188420A
:1035600050D0FFE70F980068B821C4F202018842EA
:1035700048D0FFE70F98006840F21041C4F2020102
:1035800088423FD0FFE70F98006840F22841C4F21C
:103590000201884236D0FFE70F98006840F24041B0
:1035A000C4F2020188422DD0FFE70F98006840F274
:1035B0005841C4F20201884224D0FFE70F98006806
:1035C00040F27041C4F2020188421BD0FFE70F981D
:1035D000006840F28841C4F20201884212D0FFE73D
:1035E0000F98006840F2A041C4F20201884209D05D
:1035F000FFE70F98006840F2B841C4F20201884228
:1036000007D1FFE70F980068006800F002000490FF
:1036100005E00F980068006800200490FFE7049818
:1036200070B1FFE70F98C06D00F01F0104208840C3
:10363000099988600F99486D40F004004865FFE7DC
:10364000FFE70E980F99C96D01F01F01C840C00631
:10365000002840F1DE80FFE70F9800681021C4F2D7
:103660000201884200F08180FFE70F98006828215E
:10367000C4F20201884278D0FFE70F980068402129
:10368000C4F20201884270D0FFE70F980068582109
:10369000C4F20201884268D0FFE70F9800687021E9
:1036A000C4F20201884260D0FFE70F9800688821C9
:1036B000C4F20201884258D0FFE70F980068A021A9
:1036C000C4F20201884250D0FFE70F980068B82189
:1036D000C4F20201884248D0FFE70F98006840F228
:1036E0001041C4F2020188423FD0FFE70F98006802
:1036F00040F22841C4F20201884236D0FFE70F9819
:10370000006840F24041C4F2020188422DD0FFE738
:103710000F98006840F25841C4F20201884224D058
:10372000FFE70F98006840F27041C4F2020188423E
:103730001BD0FFE70F98006840F28841C4F20201F5
:10374000884212D0FFE70F98006840F2A041C4F20F
:103750000201884209D0FFE70F98006840F2B841A3
:10376000C4F20201884207D1FFE70F9800680068A1
:1037700000F00800039006E00F980068006800F071
:1037800004000390FFE70398002841D0FFE70F985B
:10379000C06D00F01F0110208840099988600F98C3
:1037A00000680068400300281AD5FFE70F980068FA
:1037B00000680003002809D4FFE70F98006C20B1CF
:1037C000FFE70F98016C8847FFE708E00F98806CCF
:1037D00020B1FFE70F98816C8847FFE7FFE716E00D
:1037E0000F9800680068C005002807D4FFE70F980D
:1037F0000168086820F008000860FFE70F98006C77
:1038000020B1FFE70F98016C8847FFE7FFE7FFE76C
:10381000FFE70E980F99C96D01F01F01C84080069F
:10382000002840F12681FFE70F9800681021C4F2BC
:103830000201884200F08180FFE70F98006828218C
:10384000C4F20201884278D0FFE70F980068402157
:10385000C4F20201884270D0FFE70F980068582137
:10386000C4F20201884268D0FFE70F980068702117
:10387000C4F20201884260D0FFE70F9800688821F7
:10388000C4F20201884258D0FFE70F980068A021D7
:10389000C4F20201884250D0FFE70F980068B821B7
:1038A000C4F20201884248D0FFE70F98006840F256
:1038B0001041C4F2020188423FD0FFE70F98006830
:1038C00040F22841C4F20201884236D0FFE70F9847
:1038D000006840F24041C4F2020188422DD0FFE767
:1038E0000F98006840F25841C4F20201884224D087
:1038F000FFE70F98006840F27041C4F2020188426D
:103900001BD0FFE70F98006840F28841C4F2020123
:10391000884212D0FFE70F98006840F2A041C4F23D
:103920000201884209D0FFE70F98006840F2B841D1
:10393000C4F20201884207D1FFE70F9800680068CF
:1039400000F01000029006E00F980068006800F098
:1039500002000290FFE70298002800F08980FFE74C
:103960000F98C06D00F01F012020884009998860E1
:103970000F9890F83500042837D1FFE70F980168B9
:10398000086820F0160008600F980168486920F068
:10399000800048610F98006C20B9FFE70F98806C99
:1039A00038B1FFE70F980168086820F00800086048
:1039B000FFE70F98C06D00F01F013F208840099974
:1039C00088600F99012081F83500FFE70F990020EA
:1039D00081F83400FFE70F98006D20B1FFE70F98E2
:1039E000016D8847FFE700F019BC0F980068006878
:1039F000400300281AD5FFE70F980068006800030D
:103A0000002809D4FFE70F98406C20B1FFE70F981A
:103A1000416C8847FFE708E00F98C06B20B1FFE7D3
:103A20000F98C16B8847FFE7FFE720E00F98006819
:103A30000068C005002811D4FFE70F9801680868E6
:103A400020F0100008600F99012081F83500FFE791
:103A50000F99002081F83400FFE7FFE70F98C06B53
:103A600020B1FFE70F98C16B8847FFE7FFE7FFE74B
:103A7000FFE70F98406D002800F0D480FFE70F9813
:103A8000406DC007002800F0C480FFE70F990420B4
:103A900081F835000F9800681021C4F202018842B5
:103AA00000F08180FFE70F9800682821C4F202012E
:103AB000884278D0FFE70F9800684021C4F20201E5
:103AC000884270D0FFE70F9800685821C4F20201C5
:103AD000884268D0FFE70F9800687021C4F20201A5
:103AE000884260D0FFE70F9800688821C4F2020185
:103AF000884258D0FFE70F980068A021C4F2020165
:103B0000884250D0FFE70F980068B821C4F2020144
:103B1000884248D0FFE70F98006840F21041C4F295
:103B2000020188423FD0FFE70F98006840F2284129
:103B3000C4F20201884236D0FFE70F98006840F2D5
:103B40004041C4F2020188422DD0FFE70F9800687F
:103B500040F25841C4F20201884224D0FFE70F9896
:103B6000006840F27041C4F2020188421BD0FFE7B6
:103B70000F98006840F28841C4F20201884212D0D6
:103B8000FFE70F98006840F2A041C4F202018842AA
:103B900009D0FFE70F98006840F2B841C4F2020173
:103BA000884207D1FFE70F980168086820F00100FC
:103BB000086006E00F980168086820F001000860BE
:103BC000FFE7FFE70B9801300B900A99884201D973
:103BD000FFE707E0FFE70F9800680068C0070028CC
:103BE000F0D1FFE70F9800680068C00728B1FFE731
:103BF0000F99032081F8350004E00F99012081F826
:103C00003500FFE7FFE70F99002081F83400FFE758
:103C1000FFE70F98C06C20B1FFE70F98C16C884791
:103C2000FFE7FFE7FAE20F980168012045F208423A
:103C3000C5F60202914201904ED0FFE70F9801684D
:103C4000012045F21C42C5F602029142019043D088
:103C5000FFE70F980168012045F23042C5F60202E5
:103C60009142019038D0FFE70F980168012045F29A
:103C70004442C5F60202914201902DD0FFE70F9811
:103C80000168012045F25842C5F6020291420190B6
:103C900022D0FFE70F980168012045F26C42C5F67B
:103CA00002029142019017D0FFE70F9801680120AE
:103CB00045F28042C5F60202914201900CD0FFE726
:103CC0000F9800684AF66C31CAF2FD710844B0FAE8
:103CD00080F040090190FFE70198C007002800F03C
:103CE0009B82FFE70F98006800680C900D980F9971
:103CF000C96D01F01F01C8404007002840F1D7807E
:103D0000FFE79DF830004007002840F1D080FFE732
:103D10000F98C06D00F01F0104208840089948608A
:103D20009DF831000006002818D5FFE79DF8320005
:103D3000C00748B9FFE70F98806C20B1FFE70F98E4
:103D4000816C8847FFE708E00F98006C20B1FFE71F
:103D50000F98016C8847FFE7FFE7A7E09DF8300068
:103D60008006002800F19980FFE70F980068102175
:103D7000C4F20201884200F08180FFE70F980068DA
:103D80002821C4F20201884278D0FFE70F9800682A
:103D90004021C4F20201884270D0FFE70F9800680A
:103DA0005821C4F20201884268D0FFE70F980068EA
:103DB0007021C4F20201884260D0FFE70F980068CA
:103DC0008821C4F20201884258D0FFE70F980068AA
:103DD000A021C4F20201884250D0FFE70F9800688A
:103DE000B821C4F20201884248D0FFE70F9800686A
:103DF00040F21041C4F2020188423FD0FFE70F9821
:103E0000006840F22841C4F20201884236D0FFE740
:103E10000F98006840F24041C4F2020188422DD060
:103E2000FFE70F98006840F25841C4F2020188424F
:103E300024D0FFE70F98006840F27041C4F20201FD
:103E400088421BD0FFE70F98006840F28841C4F217
:103E50000201884212D0FFE70F98006840F2A041AB
:103E6000C4F20201884209D0FFE70F98006840F2CF
:103E7000B841C4F20201884207D1FFE70F980168F8
:103E8000086820F00800086006E00F9801680868DC
:103E900020F004000860FFE7FFE70F98006C20B1F6
:103EA000FFE70F98016C8847FFE7FFE7B3E10D9844
:103EB0000F99C96D01F01F01C8408007002840F12B
:103EC000E180FFE79DF830008007002840F1DA80AC
:103ED000FFE70F98C06D00F01F010220884008998D
:103EE00048609DF831000006002818D5FFE79DF8CE
:103EF0003200C00748B9FFE70F98406C20B1FFE7D8
:103F00000F98416C8847FFE708E00F98C06B20B11D
:103F1000FFE70F98C16B8847FFE7FFE7B1E09DF827
:103F200030008006002800F1A380FFE70F980068AA
:103F30001021C4F20201884200F08180FFE70F984F
:103F400000682821C4F20201884278D0FFE70F9868
:103F500000684021C4F20201884270D0FFE70F9848
:103F600000685821C4F20201884268D0FFE70F9828
:103F700000687021C4F20201884260D0FFE70F9808
:103F800000688821C4F20201884258D0FFE70F98E8
:103F90000068A021C4F20201884250D0FFE70F98C8
:103FA0000068B821C4F20201884248D0FFE70F98A8
:103FB000006840F21041C4F2020188423FD0FFE79E
:103FC0000F98006840F22841C4F20201884236D0BE
:103FD000FFE70F98006840F24041C4F202018842B6
:103FE0002DD0FFE70F98006840F25841C4F202015B
:103FF000884224D0FFE70F98006840F27041C4F275
:10400000020188421BD0FFE70F98006840F2884108
:10401000C4F20201884212D0FFE70F98006840F214
:10402000A041C4F20201884209D0FFE70F9800685E
:1040300040F2B841C4F20201884207D1FFE70F986D
:104040000168086820F01400086006E00F98016815
:10405000086820F00A000860FFE70F99012081F846
:104060003500FFE70F99002081F83400FFE7FFE7F4
:104070000F98C06B20B1FFE70F98C16B8847FFE72F
:10408000FFE7C7E00D980F99C96D01F01F01C84007
:104090000007002840F1BC80FFE79DF830000007D2
:1040A000002840F1B580FFE70F9800681021C4F2A6
:1040B0000201884200F08180FFE70F980068282104
:1040C000C4F20201884278D0FFE70F9800684021CF
:1040D000C4F20201884270D0FFE70F9800685821AF
:1040E000C4F20201884268D0FFE70F98006870218F
:1040F000C4F20201884260D0FFE70F98006888216F
:10410000C4F20201884258D0FFE70F980068A0214E
:10411000C4F20201884250D0FFE70F980068B8212E
:10412000C4F20201884248D0FFE70F98006840F2CD
:104130001041C4F2020188423FD0FFE70F980068A7
:1041400040F22841C4F20201884236D0FFE70F98BE
:10415000006840F24041C4F2020188422DD0FFE7DE
:104160000F98006840F25841C4F20201884224D0FE
:10417000FFE70F98006840F27041C4F202018842E4
:104180001BD0FFE70F98006840F28841C4F202019B
:10419000884212D0FFE70F98006840F2A041C4F2B5
:1041A0000201884209D0FFE70F98006840F2B84149
:1041B000C4F20201884207D1FFE70F98016808683E
:1041C00020F01C00086006E00F980168086820F0E5
:1041D0000E000860FFE70F98C06D00F01F0101207E
:1041E00000FA01F1089A51600F9948650F9981F81A
:1041F0003500FFE70F99002081F83400FFE70F98A2
:10420000C06C20B1FFE70F98C16C8847FFE700E062
:10421000FFE7FFE7FFE700E0FFE7FFE710B080BD43
:1042200010B58EB00C9000F0EFFE0A900C9828B9F3
:10423000FFE701208DF8370000F09EBC0C98016864
:1042400001201022C4F202029142079000F0A380E4
:10425000FFE70C98016801202822C4F20202914273
:10426000079000F09880FFE70C9801680120402239
:10427000C4F202029142079000F08D80FFE70C9893
:10428000016801205822C4F202029142079000F016
:104290008280FFE70C98016801207022C4F20202BC
:1042A0009142079077D0FFE70C980168012088229F
:1042B000C4F20202914207906DD0FFE70C980168AA
:1042C0000120A022C4F202029142079063D0FFE7CE
:1042D0000C9801680120B822C4F2020291420790B2
:1042E00059D0FFE70C980168012040F21042C4F257
:1042F0000202914207904ED0FFE70C98016801201E
:1043000040F22842C4F202029142079043D0FFE7F4
:104310000C980168012040F24042C4F2020291422E
:10432000079038D0FFE70C980168012040F258420E
:10433000C4F20202914207902DD0FFE70C98016869
:10434000012040F27042C4F202029142079022D052
:10435000FFE70C980168012040F28842C4F2020293
:104360009142079017D0FFE70C980168012040F2B6
:10437000A042C4F20202914207900CD0FFE70C98D1
:1043800000684FF64831CBF6FD710844B0FA80F072
:1043900040090790FFE70798C007002800F07881E0
:1043A000FFE70C98406A08B1FFE7FFE70C9902208D
:1043B00081F83500FFE70C99002081F83400FFE711
:1043C0000C9800681021C4F20201884200F081803C
:1043D000FFE70C9800682821C4F20201884278D0D7
:1043E000FFE70C9800684021C4F20201884270D0B7
:1043F000FFE70C9800685821C4F20201884268D097
:10440000FFE70C9800687021C4F20201884260D076
:10441000FFE70C9800688821C4F20201884258D056
:10442000FFE70C980068A021C4F20201884250D036
:10443000FFE70C980068B821C4F20201884248D016
:10444000FFE70C98006840F21041C4F20201884274
:104450003FD0FFE70C98006840F22841C4F2020107
:10446000884236D0FFE70C98006840F24041C4F221
:10447000020188422DD0FFE70C98006840F25841B5
:10448000C4F20201884224D0FFE70C98006840F291
:104490007041C4F2020188421BD0FFE70C9800680B
:1044A00040F28841C4F20201884212D0FFE70C9822
:1044B000006840F2A041C4F20201884209D0FFE73F
:1044C0000C98006840F2B841C4F20201884207D15A
:1044D000FFE70C980168086820F00100086006E01A
:1044E0000C980168086820F001000860FFE7FFE70A
:1044F0000C9800680068C00798B1FFE700F084FDE1
:104500000A99401A06280BD3FFE70C99202048652A
:104510000C99032081F8350001208DF837002BE33A
:10452000E6E70C98006800680B900B9848F23F0192
:10453000CFF6106108400B900C998868D1F80CC038
:104540000B694A6940EA0C00184310438A6910431A
:10455000CA691043096A01430B9808430B900C98F1
:10456000406A042808D1FFE70C99C86A096B014327
:104570000B9808430B90FFE70C984068292807D355
:10458000FFE70C98416801202F29069036D3FFE7FA
:104590000C9840683F2807D3FFE70C98416801203A
:1045A000432906902AD3FFE70C984068472807D391
:1045B000FFE70C9841680120492906901ED3FFE7C8
:1045C0000C9840684F2807D3FFE70C9841680120FA
:1045D0005329069012D3FFE70C98416800207429F4
:1045E000059008D3FFE70C9841680020782938BF70
:1045F00001200590FFE705980690FFE70698C007A1
:1046000028B1FFE70B9840F480100B90FFE70B9860
:104610000C99096808600C98006840690B900B9829
:1046200020F007000B900C98416A0B9808430B9000
:104630000C98406A04281AD1FFE70C98816A0B98FD
:1046400008430B900C98C06A80B1FFE70C98FCF708
:10465000BBFC50B1FFE70C99402048650C99012044
:1046600081F835008DF8370086E2FFE7FFE70B9809
:104670000C99096848610C98FCF76AFA09900C9843
:10468000C06D00F01F013F2088400999886026E135
:104690000C980168012045F20842C5F602029142D9
:1046A00004904ED0FFE70C980168012045F21C42AF
:1046B000C5F602029142049043D0FFE70C980168CE
:1046C000012045F23042C5F602029142049038D0F2
:1046D000FFE70C980168012045F24442C5F602024A
:1046E000914204902DD0FFE70C980168012045F21B
:1046F0005842C5F602029142049022D0FFE70C987E
:104700000168012045F26C42C5F602029142049014
:1047100017D0FFE70C980168012045F28042C5F6EA
:104720000202914204900CD0FFE70C9800684AF610
:104730006C31CAF2FD710844B0FA80F0400904906F
:10474000FFE70498C007002800F0BD80FFE70C9841
:104750000168012045F20842C5F602029142039029
:104760004ED0FFE70C980168012045F21C42C5F6C7
:1047700002029142039043D0FFE70C9801680120A8
:1047800045F23042C5F602029142039038D0FFE76D
:104790000C980168012045F24442C5F6020291429C
:1047A00003902DD0FFE70C980168012045F2584294
:1047B000C5F602029142039022D0FFE70C980168EF
:1047C000012045F26C42C5F602029142039017D0D7
:1047D000FFE70C980168012045F28042C5F602020D
:1047E000914203900CD0FFE70C9800684AF66C31B8
:1047F000CAF2FD710844B0FA80F040090390FFE767
:104800000398C00708B1FFE7FFE70C99022081F881
:104810003500FFE70C99002081F83400FFE70C9881
:10482000006800680B900B986FF310100B900C98B9
:104830008068402803D1FFE71020029008E00C9820
:1048400080688038B0FA80F0400980030290FFE76A
:1048500002980C99CA680B69D1F814C0D1F818E015
:10486000CC694EEA040E4CEA0E0C43EA0C031A43E0
:1048700040EAD200096A40EA11110B9808430B90F4
:104880000B980C99096808600C9908684AF6F83288
:10489000CAF2FD7210444CF6CD42CCF6CC42A0FBDD
:1048A00002026FF0030000EA9200C8650C98FCF762
:1048B0004FF908900C98C06D00F01F01012088404E
:1048C000089948600AE00C99402048650C9903203B
:1048D00081F8350001208DF837004DE1FFE70C9895
:1048E000016801201022C4F202029142019000F0FE
:1048F0000381FFE70C98016801202822C4F202021C
:104900009142019000F0F880FFE70C9801680120C7
:104910004022C4F202029142019000F0ED80FFE7D4
:104920000C98016801205822C4F2020291420190C1
:1049300000F0E280FFE70C98016801207022C4F2C9
:1049400002029142019000F0D780FFE70C980168C5
:1049500001208822C4F202029142019000F0CC8032
:10496000FFE70C9801680120A022C4F202029142E4
:10497000019000F0C180FFE70C9801680120B82287
:10498000C4F202029142019000F0B680FFE70C9859
:104990000168012040F21042C4F2020291420190EB
:1049A00000F0AA80FFE70C980168012040F228423D
:1049B000C4F202029142019000F09E80FFE70C9841
:1049C0000168012040F24042C4F20202914201908B
:1049D00000F09280FFE70C980168012040F25842F5
:1049E000C4F202029142019000F08680FFE70C9829
:1049F0000168012040F27042C4F20202914201902B
:104A00007AD0FFE70C980168012040F28842C4F296
:104A10000202914201906FD0FFE70C9801680120DB
:104A200040F2A042C4F202029142019064D0FFE73A
:104A30000C980168012040F2B842C4F2020291428F
:104A4000019059D0FFE70C980168012045F2084217
:104A5000C5F60202914201904ED0FFE70C98016822
:104A6000012045F21C42C5F602029142019043D05A
:104A7000FFE70C980168012045F23042C5F60202BA
:104A80009142019038D0FFE70C980168012045F26F
:104A90004442C5F60202914201902DD0FFE70C98E6
:104AA0000168012045F25842C5F602029142019088
:104AB00022D0FFE70C980168012045F26C42C5F650
:104AC00002029142019017D0FFE70C980168012083
:104AD00045F28042C5F60202914201900CD0FFE7F8
:104AE0000C9800684AF66C31CAF2FD710844B0FABD
:104AF00080F040090190FFE70198C00790B3FFE7FD
:104B00000C98FCF70DF90C988068802804D1FFE719
:104B10000C9900204860FFE70C990879096E08603D
:104B20000C98416E806E48600C98406888B1FFE731
:104B30000C98406808280CD8FFE70C98FCF7ACF9F3
:104B40000C98C16E002008600C98016F406F48609F
:104B500007E00C990020C8660C9908670C99486713
:104B6000FFE7FFE70C99002048650C9A012182F8C5
:104B700035108DF83700FFE79DF837000EB010BDF7
:104B800080B584B0039000F03FFA02900398019042
:104B90000198013048B1FFE740F20210C2F2004034
:104BA0000178019808440190FFE7FFE700F02CFA34
:104BB0000299401A0199884201D2FFE7F6E704B052
:104BC00080BD00000000000080B582B0ADF8060096
:104BD000BDF80600B0F5805F03D1FFE705F06CF883
:104BE00007E0BDF80600B0F5806F01D1FFE7FFE7F1
:104BF000FFE702B080BD000080B582B0ADF80600CE
:104C00008820C5F600000068BDF8061008420BD0E9
:104C1000FFE7BDF806008821C5F600010860BDF871
:104C20000600FFF7D1FFFFE702B080BD00000000E3
:104C30008FB00E900D9100200C908020C5F60000E2
:104C40000990FFE70D9800680C99C840002800F013
:104C5000C181FFE70D9800680C9A0121914008403E
:104C60000B900B98002800F0B181FFE70D98406889
:104C700000F00300012807D0FFE70D98406800F01E
:104C8000030002282FD1FFE70E9880680A900C9845
:104C90004100032000FA01F10A9888430A900D9818
:104CA000C0680C99490000FA01F10A9808430A907B
:104CB0000A980E9988600E9840680A900C99012015
:104CC00000FA01F10A9888430A900D984068C0F3F1
:104CD00000100C9900FA01F10A9808430A900A980A
:104CE0000E994860FFE70D98406800F00300032824
:104CF00018D0FFE70E98C0680A900C984100032076
:104D000000FA01F10A9888430A900D9880680C997E
:104D1000490000FA01F10A9808430A900A980E998E
:104D2000C860FFE70D98406800F00300022826D114
:104D3000FFE70E980C996FF0030202EA5101084454
:104D4000006A0A900C9800F0070081000F2000FA1A
:104D500001F10A9888430A900D9800690C9901F0B6
:104D60000701890000FA01F10A9808430A900A989D
:104D70000E990C9B02EA530211440862FFE70E9859
:104D800000680A900C984100032000FA01F10A988B
:104D900088430A900D98406800F003000C99490080
:104DA00000FA01F10A9808430A900A980E990860DF
:104DB0000D9880798007002800F00781FFE7FFE762
:104DC00044F2F440C5F60200016841F002010160BE
:104DD000006800F0020008900898FFE70C9820F0A7
:104DE000030040F20841C5F6000140580A900C98B3
:104DF00000F0030081000F2000FA01F10A988843B7
:104E00000A900E980021C5F60201884203D1FFE7FF
:104E1000002007906CE00E9840F20041C5F60201B8
:104E2000884203D1FFE7012006905EE00E9840F62D
:104E30000001C5F60201884203D1FFE70220059078
:104E400050E00E9840F60041C5F60201884203D1B9
:104E5000FFE70320049042E00E9841F20001C5F6FE
:104E60000201884203D1FFE70420039034E00E984A
:104E700041F20041C5F60201884203D1FFE7052057
:104E8000029026E00E9841F60001C5F60201884224
:104E900003D1FFE70620019018E00E9841F600418B
:104EA000C5F60201884203D1FFE7072000900AE01F
:104EB0000E9942F20042C5F602020A20914208BF52
:104EC00009200090FFE700980190FFE70198029009
:104ED000FFE702980390FFE703980490FFE7049828
:104EE0000590FFE705980690FFE706980790FFE713
:104EF00007980C9901F00301890000FA01F10A9862
:104F000008430A900A980C9921F0030140F20842E4
:104F1000C5F6000288504FF0B04000680A900B9927
:104F20000A9888430A900D988079C006002805D514
:104F3000FFE70B990A9808430A90FFE70A984FF099
:104F4000B04108600420C5F6000000680A900B9983
:104F50000A9888430A900D9880798006002805D524
:104F6000FFE70B990A9808430A90FFE70A98042183
:104F7000C5F600010860099840680A900B990A98E4
:104F800088430A900D9880798007002805D5FFE7AF
:104F90000B990A9808430A90FFE70A980999486014
:104FA000099800680A900B990A9888430A900D980E
:104FB0008079C00728B1FFE70B990A9808430A9047
:104FC000FFE70A9809990860FFE7FFE70C980130AE
:104FD0000C9037E60FB0704782B00190ADF8021028
:104FE0008DF801209DF8010028B1FFE7BDF802000F
:104FF0000199886105E0BDF802000004019988610B
:10500000FFE702B07047000042F21420C2F20040F5
:10501000006870470000000040F20210C2F2004039
:10502000027842F21421C2F200410868104408607C
:10503000704700000000000080B582B0032000F03F
:10504000B7F802F09DFD44F21842C5F6020211685D
:10505000C1F3032340F67001C0F60101CB5C03F0FD
:105060001F03D84000900098126802F00F02895C7C
:1050700001F01F01C84040F23001C2F20041086057
:10508000009840F22C01C2F2004108600F2000F0AD
:1050900013F820B1FFE701208DF8070005E000F0CC
:1050A0004FF800208DF80700FFE79DF8070002B0D9
:1050B00080BD00000000000080B582B0009040F28A
:1050C0000210C2F20040007820B9FFE701208DF8FD
:1050D000070030E040F22C00C2F20040006840F2CD
:1050E0000211C2F200410A784FF47A71B1FBF2F179
:1050F000B0FBF1F004F040FA20B1FFE701208DF899
:10510000070018E000980F280DD8FFE700994FF02E
:10511000FF30002200F034F8009840F20411C2F28F
:105120000041086003E001208DF8070003E0002043
:105130008DF80700FFE79DF8070002B080BD000072
:1051400081B0FFE744F2F440C5F60200016841F087
:1051500002010160006800F0020000900098FFE783
:1051600001B070470000000080B582B0ADF80600C5
:10517000BDF906000AF0D8F902B080BD00000000B9
:1051800080B586B0ADF81600049103920AF0E4F9F8
:105190000290BDF91600019002980499039A05F057
:1051A00053F9014601980AF0DFF906B080BD00000E
:1051B00080B582B0019001980AF0FAF902B080BD82
:1051C00082B0019001980068009001990120C1F817
:1051D00000050199002081F8F404009A916941F0DA
:1051E00000619161009A516D0323C1F200031943DC
:1051F000516502B07047000082B001908DF8031035
:1052000002B070470000000082B00190ADF80210BB
:10521000BDF80200019909684862002002B0704799
:1052200084B003908DF80B10ADF808200398006847
:10523000406A00909DF80B0048B9FFE7BDF80810E0
:10524000009840EA014003990968886233E00398B6
:105250000068816A009800EB1140009000208DF8F2
:105260000700FFE79DF807009DF80B100139884201
:1052700013D2FFE7039800689DF8071000EB810048
:10528000D0F80411009800EB11400090FFE79DF862
:10529000070001308DF80700E4E7BDF8081000981A
:1052A00040EA0140039909689DF80B2001EB820157
:1052B000C1F80001FFE7002004B0704700000000C3
:1052C00080B582B001900198D0F8080507F014FF6E
:1052D00002B080BD0000000080B582B001908DF862
:1052E0000310019AD2F808059DF8031001EBC103E1
:1052F00002EB8302926C07F05BFD02B080BD000000
:1053000080B582B001908DF80310019AD2F808059B
:105310009DF8031001EBC10302EB8302D2F888224F
:1053200007F00EFE02B080BD80B582B001900198FA
:10533000D0F8080507F0E8FE02B080BD00000000CC
:1053400080B584B003908DF80B109DF80B0000061B
:1053500000280CD5FFE703989DF80B1001F00F0112
:1053600001EBC10100EB81003C3001900CE003989F
:105370009DF80B1001F00F0101EBC10100EB810062
:1053800000F51F700190FFE703980068019909F08C
:1053900097FC8DF80A009DF80A0004B080BD00005B
:1053A00080B584B002908DF807109DF807000006C4
:1053B00000280FD5FFE702989DF8071001F00F01B4
:1053C00001EBC10100EB81003C300090009901200D
:1053D00048700FE002989DF8071001F00F0101EBF3
:1053E000C10100EB810000F51F70009000990020C2
:1053F0004870FFE79DF8070000F00F000099087063
:10540000FFE7029890F8BC04012804D1FFE70220CE
:105410008DF80F0014E00299012081F8BC04FFE729
:10542000FFE702980068009908F02EFFFFE7029955
:10543000002081F8BC04FFE700208DF80F00FFE793
:105440009DF80F0004B080BD80B584B002908DF847
:1054500007109DF8070000F00F0002994968884284
:1054600004D9FFE701208DF80F004DE09DF80700FB
:10547000000600280FD5FFE702989DF8071001F0FD
:105480000F0101EBC10100EB81003C30009000995D
:10549000012048700FE002989DF8071001F00F01FD
:1054A00001EBC10100EB810000F51F700090009935
:1054B00000204870FFE70099002088709DF80700E1
:1054C00000F00F0000990870FFE7029890F8BC0404
:1054D000012804D1FFE702208DF80F0014E00299A3
:1054E000012081F8BC04FFE7FFE7029800680099FB
:1054F00009F04EF9FFE70299002081F8BC04FFE7AC
:1055000000208DF80F00FFE79DF80F0004B080BD6C
:1055100082B001908DF8031001989DF8031001F0FE
:105520000F0101EBC10100EB8100D0F8900202B045
:10553000704700000000000080B586B004908DF830
:105540000F10ADF80C208DF80B3000208DF80A00FC
:105550009DF80F00000600280FD5FFE704989DF87E
:105560000F1001F00F0101EBC10100EB81003C3095
:1055700001900199012048700FE004989DF80F10E8
:1055800001F00F0101EBC10100EB810000F51F707C
:105590000190019900204870FFE79DF80F0000F08E
:1055A0000F0001990870BDF80C00019988609DF802
:1055B0000B00019908710198407820B1FFE701992B
:1055C00008784883FFE79DF80B00022804D1FFE725
:1055D000019900204871FFE7FFE7049890F8BC04A8
:1055E000012804D1FFE702208DF8170015E0049987
:1055F000012081F8BC04FFE7FFE7049800680199E7
:1056000008F0EAFCFFE70499002081F8BC04FFE7FA
:105610009DF80A008DF81700FFE79DF8170006B007
:1056200080BD00000000000080B586B005908DF8B8
:1056300013100392029305989DF8131001F00F01C7
:1056400001EBC10100EB810000F51F700190039890
:105650000199C86002980199086101990020486188
:10566000019948709DF8130000F00F00019908702F
:105670000598C068012804D1FFE703980199C86123
:10568000FFE7059A10680199127B09F025F90020BF
:1056900006B080BD0000000080B584B002908DF897
:1056A00007109DF8070000F00F0002994968884232
:1056B00004D9FFE701208DF80F0058E09DF807009E
:1056C000000600280FD5FFE702989DF8071001F0AB
:1056D0000F0101EBC10100EB81003C30009000990B
:1056E000012048700DE002989DF8071001EBC10100
:1056F00000EB810000F51F700090009900204870B9
:10570000FFE70099012088709DF8070000F00F0066
:1057100000990870FFE7029890F8BC04012804D1B2
:10572000FFE702208DF80F0021E00299012081F8A7
:10573000BC04FFE7FFE702980068009909F078F8D9
:105740009DF80700000740B9FFE7029A1068117B37
:1057500002F2C44208F0CCFFFFE7FFE70299002005
:1057600081F8BC04FFE700208DF80F00FFE79DF8EB
:105770000F0004B080BD000080B586B005908DF8A4
:1057800013100392029305989DF8131001F00F0176
:1057900001EBC10100EB81003C30019003980199BD
:1057A000C860029801990861019900204861019937
:1057B000012048709DF8130000F00F000199087057
:1057C0000598C068012804D1FFE703980199C861D2
:1057D000FFE7059A10680199127B09F07DF8002017
:1057E00006B080BD0000000080B58CB00B900B9817
:1057F00000680A900A9809900B98006809F0A8FBC5
:10580000002840F03584FFE70B98006809F010FC91
:1058100010B9FFE700F02CBC0998D0F80808C0F3D5
:105820000D200B99C1F8FC040B98006809F000FCEE
:105830008007002807D5FFE70B980168486900F04A
:1058400002004861FFE70B98006809F0F1FBC00611
:10585000002862D5FFE70B980168886920F01000E6
:1058600088610A98006A02900B98029901F00F0172
:1058700001EBC10100EB810000F51F700890029858
:1058800000F4F0110220B0EB514F23D1FFE7BDF837
:10589000080047F6F07108421BD0FFE70A98089904
:1058A000C968029AC2F30A1209F0D2FB029847F6BD
:1058B000F07100EA0103089AD06800EB1310D06081
:1058C000029800EA01020899486900EB1210486149
:1058D000FFE71BE0029800F4F0110620B0EB514FF7
:1058E00012D1FFE70A980B9901F2C441082209F08E
:1058F000AFFB029847F6F07100EA01020899486987
:1059000000EB1210486100E0FFE7FFE70B98016829
:10591000886940F010008861FFE70B98006809F083
:1059200087FB0003002840F1A680FFE700200490D9
:105930000B98006809F028FB0690FFE706980028FE
:1059400000F09880FFE79DF81800C007002800F0DD
:105950008A80FFE70B9800689DF8101009F050FB53
:1059600005909DF81400C00760B1FFE709980499FD
:1059700000EB41110120C1F8080B0B98049904F0C9
:10598000EBFDFFE79DF81400000700280CD5FFE7AA
:105990000998049900EB41110820C1F8080B0B98F5
:1059A000049904F091FDFFE79DF81400C00600285B
:1059B00008D5FFE70998049900EB41111020C1F8C0
:1059C000080BFFE79DF81400800700282DD5FFE79E
:1059D0000A9840690006002808D5FFE70999D1F820
:1059E000040840F48060C1F80408FFE70B980499AC
:1059F00001EBC10100EB810000F51F7008900898D1
:105A0000C078012809D1FFE708990020C8700B98D9
:105A10009DF8101000F040FBFFE70998049900EB97
:105A200041110220C1F8080BFFE79DF81400800621
:105A3000002808D5FFE70998049900EB41112020C0
:105A4000C1F8080BFFE79DF815008006002809D56E
:105A5000FFE70998049900EB41114FF40050C1F899
:105A6000080BFFE7FFE70498013004900698400810
:105A7000069063E7FFE70B98006809F0D9FA400346
:105A8000002840F1C680FFE70B98006809F068FA2B
:105A9000069000200490FFE70698002800F0B880E8
:105AA000FFE79DF81800C007002800F0AA80FFE774
:105AB0000B9800689DF8101009F07AFA05909DF88F
:105AC0001400C00700283ED0FFE7049800F00F0143
:105AD000012000FA01F10391039B099AD2F83418CE
